:020000040000FA
:1000000038020020C1000000C50B0000B50B000045
:10001000FFFFFFFFFFFFFFFFFFFFFFFFFFFFFFFFF0
:10002000FFFFFFFFFFFFFFFFFFFFFFFFC90B000008
:10003000FFFFFFFFFFFFFFFFC70B0000510C000099
:1000400035010000350100003501000035010000D8
:1000500035010000350100003501000035010000C8
:1000600035010000FFFFFFFF3501000035010000F2
:10007000350100003501000035010000FFFFFFFFE2
:10008000FFFFFFFF350100003501000035010000D2
:10009000350100003501000035010000490F000066
:1000A0003501000035010000350100003501000078
:1000B0003501000035010000350100003501000068
:1000C0001D4880471D4880471D4800471D4801695D
:1000D000002908D14169002905D18169002902D18F
:1000E000C169002909D01848C1680901090D002912
:1000F0000ED005290CD006290AD0BFF34F8F134824
:100100001349016013491248C860BFF34F8FFEE7DF
:100110000E4801680E48884200D070470E480F49CB
:1001200001600A480E4901607047FEE7FEE7FEE7FE
:10013000FEE7FEE7FEE70000CD000000550C0000E2
:100140006501000000030840800108400000002015
:100150000400FA0500ED00E0008108400100000005
:10016000000000000348854600F08AF90048004777
:10017000711200003802002030B50B460146002005
:100180002022012409E00D46D5409D4205D31D469D
:100190009540491B2546954040191546521E002D95
:1001A000F1DC30BDF0B50C465C4085B0E40FE407EF
:1001B00003944C00002664085900944649080246FE
:1001C0000296224321D062460A431ED06200570D98
:1001D0004A000E032303550D012402462C49240531
:1001E000781B1B0B360B40182343264361460090B7
:1001F0001C46501AB44103D30098401C009002E002
:10020000921800985B41002803DA0020014605B0EF
:10021000F0BD0020012109050746864611E064462D
:100220001D46141BB54106D36546521BB3417446A7
:1002300007430C43A646CD074008490828439218B7
:100240005B4105460D43EAD11046184313D0604682
:10025000194650407140084306D06046101AB34119
:1002600006D20122002306E000220123DB0702E080
:100270000122D2435310009874460105381C614195
:10028000029C039D0019694100F09AF8BFE7000045
:10029000FD030000C217C10F504010B54018CA0737
:1002A0009623002100F053F810BD000070B5CD0F6B
:1002B0004A0009030123090B1B0519430B4BED07EA
:1002C0000024520D9A4201DA002070BD074B3433EE
:1002D0009A4203DC9A1A00F021F802E0044951180E
:1002E00088402C43F1D0404270BD0000FF03000065
:1002F000CDFBFFFFC20FD207400040080BD0C10D5D
:100300000723DB01C91840020905400A1143C2084E
:1003100040071143704700200146704710B5202A5E
:1003200004DB0846203AD040002110BD0B46D340E4
:10033000D0402024A21A91400843194610BD00293C
:1003400004DA401C490001D140084000704770B4F5
:100350000024050C05D11024000402D1002921D06D
:100360001124050E01D100020834050F01D100014E
:10037000241D850F01D18000A41C002801DB400052
:10038000641C002908D020252E1B0D46F540A140F5
:1003900000D001212943084301061B1B000ADB1D75
:1003A00002D5002070BC7047DB05181880180029A2
:1003B000F8DA401C4900F5D170BC40084000704795
:1003C00010B5002B08DA0024401C614192185B41F3
:1003D0001A4301D14008400010BDF0B51FB482B0EF
:1003E00005460C0003D0084600F0B9FE02E000F01C
:1003F000B6FE2030024600902146284600F052F812
:10040000049B059A04460F4618431143084314D031
:10041000184610431BD0009840210A1A1846059927
:10042000FFF77CFF05460E46009A0599049800F0F8
:1004300039F8084305D0012004E02046394607B0CA
:10044000F0BD0020C11705430E432C4337430099EC
:100450000E986305401A7905E40A00220C43FD0A50
:100460000A3002D500200146E9E70105101969416B
:100470000C9C0D9D00196941FFF7A2FFDFE700000A
:10048000064C0125064E05E0E36807CC2B430C3CE7
:1004900098471034B442F7D3FFF768FE901200007B
:1004A000B012000010B5202A04DB0146203A91402A
:1004B000002010BD914020239C1A0346E3401943BD
:1004C000904010BDF7B50B46009DED00154EAA19E2
:1004D000002000240027002120E000240027FF2521
:1004E0008D401D40002D17D000200FE01D46C54057
:1004F00001268E403540002D07D086000F25B540DF
:100500002C438600029DB5402F43401C0828EDD3A4
:100510001568A5433D431560121D08310829DCDD2F
:10052000FEBD00002020024070B504461F48406B0D
:100530004607760F00F03EF82060330000F026FEFC
:10054000081605080B16160E12162068606010E0DB
:10055000174860600DE0164860600AE00120C003A3
:10056000606006E07D200002606002E000206060C4
:1005700000BF00BF0D48056A052D02D36068400921
:1005800001E06068E840A0600848806A072109042B
:100590000840050C072D04D10321A068FFF7ECFDEE
:1005A00001E0A068E840E06070BD00000080084005
:1005B00000127A00F0B517480068FF27013738406D
:1005C000040A1448C069C50F124840687F003840CB
:1005D000460A002E01D10020F0BD002C01D10E48AA
:1005E00000E00D480346012D01D11846F4E7094803
:1005F00080690F27FF053840C10D002900D1102167
:100600000448806903277F053840420D1846484357
:10061000D040E1E70080084000127A007FB5044630
:10062000601180000A49461800252E2C00D10225B1
:10063000E406E40E0321A14030680840E04045197B
:100640006846FFF771FF0298E84004B070BD0000F3
:10065000388008403FB50E4C606AE16A226B044660
:10066000009DAC4320460C46019DAC4321461446F8
:10067000029DAC432246002B05D0009C2043019CE8
:100680002143029C2243024C6062E16222633FBD2F
:100690000080084081627047002A03D003680B4342
:1006A000036002E003688B43036070470EB50020CF
:1006B000009001900290012189030198884340181D
:1006C0000190C900009888434018009001236846B3
:1006D00007C8FFF7BFFF01222A211046FFF7F2FEED
:1006E00001222A21064800F043F800222A2104486A
:1006F000FFF7D2FF01222A21014800F02FF80EBD9A
:1007000000200B400EB500200090019002900121C6
:1007100089030198884340180190C90000988843D4
:10072000401800900123684607C8FFF793FF012295
:1007300015211046FFF7C6FE01221521064800F0DC
:1007400017F800221521044800F036F8012215217F
:100750000148FFF7A1FF0EBD00200B40002A03D087
:1007600043680B43436002E043688B434360704738
:10077000002A06D183680B438360C3688B43C36040
:100780000EE0012A06D1C3680B43C36083688B4324
:10079000836005E083688B438360C3688B43C360D9
:1007A00070470246D3690B40002B01D0012000E0C6
:1007B0000020704741627047002A01D0416200E08A
:1007C0008162704700B58BB00020009001900290CC
:1007D000012109040098884340180090891001986D
:1007E000884340180190891102988843401802906C
:1007F0000123684607C8FFF72DFF0422F0210020DF
:10080000FFF760FE0122F0213448FFF745FFFF218A
:100810000131334800F0DAFA03A800F069FB002048
:100820000990C7216846C1832E498183FF21013188
:10083000018507A92A4800F067FB0021684601737B
:10084000012101740621C181012181740622002148
:10085000234800F03BFB03A9214800F0D3FA012113
:100860006846017301740621C18101218174062249
:100870001B4800F02BFB03A9194800F0C3FA022122
:1008800068460173012101740621C181012181742F
:1008900006220221124800F019FB03A9104800F0BB
:1008A000B1FA032168460173012101740621C18157
:1008B0000121817406220321094800F007FB03A9E6
:1008C000074800F09FFA01220F21054800F08FFA37
:1008D0000121034800F07FFA0BB000BD00000B407F
:1008E00000E00640BF120000F8B500F09DF83E4958
:1008F000086000F0DBF83D49086000F019F93C4958
:100900000860394800683B49096888421CD9364864
:100910000068394908600846006836490968401A85
:100920003549086008460068FFF7B4FC0090FFF7FF
:10093000E1FC04460022314BFFF734FC0646FFF78A
:10094000B5FC2D49086002E000202B4908602748CB
:1009500000682B49096888421CD924480068294945
:1009600008600846006826490968401A2549086059
:1009700008460068FFF78EFC0090FFF7BBFC0646B8
:1009800000221E4BFFF70EFC0446FFF78FFC1D49AB
:10099000086002E000201B490860154800681A49F9
:1009A000096888421CD9124800681849086008463E
:1009B000006815490968401A14490860084600682B
:1009C000FFF768FC0090FFF795FC044600220B4BF4
:1009D000FFF7E8FB0646FFF769FC0C49086002E0F8
:1009E00000200A490860F8BD0C000020100000201B
:1009F00014000020180000202400002000A05A400D
:100A00001C00002028000020200000202C000020D6
:100A100010B5FFF777FEFFF749FE15210148FFF7F4
:100A2000C9FE10BD00200B4070B501211E48FFF724
:100A3000C1FE012000F0E8FB01211B48FFF72AFE60
:100A4000002400BF02211848FFF7ABFE0028F9D1AF
:100A5000002517E001211448FFF7ACFE64000120D7
:100A600000F0D2FB01211048FFF714FE02210E48CE
:100A7000FFF797FE002800D0641C012000F0C4FBA3
:100A8000681CC5B2182DE5DB01210748FFF792FE6F
:100A90000120C0054440012000F0B6FB01210248BE
:100AA000FFF7F8FD204670BD00200B4070B5042113
:100AB0001E48FFF77FFE012000F0A6FB04211B4823
:100AC000FFF7E8FD002400BF08211848FFF769FE82
:100AD0000028F9D1002517E004211448FFF76AFE29
:100AE0006400012000F090FB04211048FFF7D2FDC4
:100AF00008210E48FFF755FE002800D0641C012095
:100B000000F082FB681CC5B2182DE5DB0421074804
:100B1000FFF750FE0120C0054440012000F074FBA7
:100B200004210248FFF7B6FD204670BD00200B40AF
:100B300070B510211E48FFF73DFE012000F064FB58
:100B400010211B48FFF7A6FD002400BF20211848F4
:100B5000FFF727FE0028F9D1002517E010211448DF
:100B6000FFF728FE6400012000F04EFB1021104822
:100B7000FFF790FD20210E48FFF713FE002800D05C
:100B8000641C012000F040FB681CC5B2182DE5DB99
:100B900010210748FFF70EFE0120C0054440012048
:100BA00000F032FB10210248FFF774FD204670BDB3
:100BB00000200B4000BF024800680028FBD07047AF
:100BC000000000207047704770470000042806D1DD
:100BD0000649096904221143044A116105E00349E9
:100BE000096904229143014A1161704700E000E065
:100BF000002803D10021094A91610EE0012806D1A5
:100C00000649096901221143044A116105E00349BB
:100C1000096949084900014A1161704700E000E094
:100C2000002806D00649096902221143044A1161CD
:100C300005E00349096902229143014A11617047A5
:100C400000E000E0014948617047000000E000E07A
:100C50007047000010205849C860012057490860BB
:100C60005748006B402108435549086300BF554869
:100C700080682728FBD103E00120400251494860E9
:100C8000504840680121490208408842F4D102E0FE
:100C900000204C4948604B48406801214902084007
:100CA0000028F5D1454908604548406A032189027A
:100CB000884343494862084640680121C902084305
:100CC0003F49486000BF3E4880680007C00F0028C9
:100CD000F9D03B484068C008C000C01C3849486093
:100CE00000BF3748406B4007400F0328F9D1364812
:100CF0000068C008C000401C33490860002030492B
:100D0000086208464068491588432D4948600846EE
:100D10000068891508432A49086008464068091593
:100D200008432749486000BF254880684007C00F36
:100D30000028F9D02248006B4021884320490863ED
:100D400008460068891588431D490860032000068D
:100D5000886108464068491508431949486000BF42
:100D6000174880688007C00F0028F9D0164800682F
:100D7000C008C000801C14490860002010490862A7
:100D800008464068C008C000401C486000BF0C48CE
:100D9000406B4007400F0128F9D10B480068102133
:100DA000084309490860084600680121090308430F
:100DB0000549086070470000008108400083084032
:100DC0000080084000A1064000020840CA43C267F4
:100DD000BFF34F8F7047002904D0026901231A43E3
:100DE000026103E002695208520002617047002A62
:100DF00003D0436F0B43436702E0436F8B4343676A
:100E000070470000FCB50D78AD0006464036AF19BE
:100E10000D78AD005036AD1901950D78AD00103646
:100E2000AD1900950D786D062A0E274DA84203D105
:100E300003259540EC4302E001259540EC43224D0B
:100E4000A84200D100BF056D25400565436D2340D4
:100E50001D4DA84206D18D79CE7976003543954057
:100E60002B4302E08D7995402B434365164DA842F4
:100E700009D1C56E25402B460D7A4E7A7600354352
:100E800095402B43C3663D68FF260836B5433D6059
:100E90003D684E8835433D604E89019D2E608E89A8
:100EA000009D2E60084DA84208D10D794E7976003C
:100EB00035439540066D3543056504E0056D0E79B3
:100EC000964035430565FCBD00C0024070B58D00FD
:100ED000044640342B19046D4E000125B540AC4347
:100EE00004651C68FF250835AC4314431C6070BDC5
:100EF000002101704180017141718171C1710172E4
:100F000041724181818170474B88882213500B8840
:100F100084221350026803231B049A430260026870
:100F200001231B069A43026002688B681A43026021
:100F3000044A904202D10B798C2213508A8982672D
:100F40007047000000C0024010B52021480600F0A4
:100F50005FF800280CD00120800700F0B3F80446A9
:100F6000044802780078401C024B187002488454F0
:100F700010BD0000080000200500002000B587B06B
:100F80000020019002900390012189030298884378
:100F9000401802908911029888434018029001235A
:100FA00001A807C8FFF756FB062204210020FFF71F
:100FB00089FA062208210020FFF784FA4B20C0019D
:100FC0000490FF210131684681820021C1820183A2
:100FD000418304A90120800700F024F801220021A8
:100FE000900700F075F801221146900700F070F8A4
:100FF000172001218140054A116000BF01221146DE
:10100000900700F055F807B000BD000000E100E0D7
:10101000024610690840002801D0012070470020D6
:10102000FCE7000070B504460D4660681C490840A6
:10103000E9880843A988084329890843698908433E
:10104000606001208007844207D11820FFF7E6FA8C
:1010500006462968FFF790F860621248844207D17B
:101060001A20FFF7DBFA06462968FFF785F8606269
:101070000D48844207D11C20FFF7D0FA06462968A4
:10108000FFF77AF860620948844207D11E20FFF713
:10109000C5FA06462968FFF76FF8606270BD000068
:1010A000FCE0FFFF0000044000100040001004407E
:1010B000002A03D0C3680B43C36002E0C3688B43BC
:1010C000C36070470146086880B27047016070478E
:1010D00010B5002A05D0436810248C402343436098
:1010E00004E0436810248C40A343436010BD00001B
:1010F00070B5552450252146A00700F021F8642042
:1011000000F074F82946A00700F01AF8642000F0F7
:101110006DF80848007800020649497840180649E9
:101120000880044880782D380449087000F04CF895
:1011300070BD0000050000200A000020090000200A
:1011400070B504460D4629462046FFF7BFFF00BF95
:1011500080212046FFF75CFF0028F9D070BD2021D8
:10116000020C01D010211046020A01D010460839A5
:10117000020901D01046091F820801D01046891EBD
:10118000420801D0881E7047081A704730B4744670
:10119000641E2578641CAB4204D3635D5B00E318D6
:1011A00030BC18471D46F8E702E008C8121F08C106
:1011B000002AFAD170477047002001E001C1121FD8
:1011C000002AFBD170470000002000BF06E000218C
:1011D000044A1154044A1170411CC8B20328F6DBBA
:1011E00070470000050000200800002010B50446EC
:1011F00003E07D20C00000F007F82046611E8CB29D
:101200000028F6D110BD000070B504460420C0438C
:10121000FFF7DCFC13490968C8081349FEF7ACFF67
:101220000646FFF70FFD0020FFF7FAFC0020FFF74E
:10123000DFFC0120FFF7DCFC002508E000BF0B48C5
:1012400000690121090408400028F8D06D1CA5425E
:10125000F4D30120C043FFF7CBFC0020FFF7C8FC0C
:1012600070BD00003400002040420F0000E000E0AC
:10127000FFF7A8FAFFF7CCFBFFF780FE07E0FFF7C8
:1012800033FBFF20F530FFF7B1FFFFF731FFF6E743
:10129000B01200000000002038000000A81100007B
:1012A000E81200003800002000020000B811000021
:1012B000000000000000000000000000000000002E
:1012C000000000000000000000000000000000001E
:1012D000000000000000000000000000000000000E
:0812E00000000000006CDC02BC
:040000050000016591
:00000001FF
