:020000040000FA
:1000000050020020C1000000D50800007506000065
:10001000FFFFFFFFFFFFFFFFFFFFFFFFFFFFFFFFF0
:10002000FFFFFFFFFFFFFFFFFFFFFFFF110D0000BE
:10003000FFFFFFFFFFFFFFFF750C0000050E000034
:1000400035010000350100003501000035010000D8
:1000500035010000350100003501000035010000C8
:1000600035010000FFFFFFFF3501000035010000F2
:10007000350100003501000035010000FFFFFFFFE2
:10008000FFFFFFFF350100003501000035010000D2
:10009000350100003501000035010000B9120000F3
:1000A0003501000035010000350100003501000078
:1000B0003501000035010000350100003501000068
:1000C0001D4880471D4880471D4800471D4801695D
:1000D000002908D14169002905D18169002902D18F
:1000E000C169002909D01848C1680901090D002912
:1000F0000ED005290CD006290AD0BFF34F8F134824
:100100001349016013491248C860BFF34F8FFEE7DF
:100110000E4801680E48884200D070470E480F49CB
:1001200001600A480E4901607047FEE7FEE7FEE7FE
:10013000FEE7FEE7FEE70000CD000000090E00002C
:100140006501000000030840800108400000002015
:100150000400FA0500ED00E0008108400100000005
:10016000000000000348854600F01CF800480047E6
:10017000251600005002002030B50B460146002035
:100180002022012409E00D46D5409D4205D31D469D
:100190009540491B2546954040191546521E002D95
:1001A000F1DC30BD064C0125064E05E0E36807CCC6
:1001B0002B430C3C98471034B442F7D3FFF7D6FFDB
:1001C0000C1F00002C1F0000F7B50B46009DED0032
:1001D000154EAA19002000240027002120E0002449
:1001E0000027FF258D401D40002D17D000200FE077
:1001F0001D46C54001268E403540002D07D08600A3
:100200000F25B5402C438600029DB5402F43401C6E
:100210000828EDD31568A5433D431560121D08312C
:100220000829DCDDFEBD00002020024070B5044638
:100230001F48406B4607760F00F03EF82060330001
:1002400001F092F9081605080B16160E1216206812
:10025000606010E0174860600DE0164860600AE0DA
:100260000120C003606006E07D200002606002E0C3
:100270000020606000BF00BF0D48056A052D02D355
:100280006068400901E06068E840A0600848806A52
:10029000072109040840050C072D04D10321A0689B
:1002A000FFF76AFF01E0A068E840E06070BD000071
:1002B0000080084000127A00F0B517480068FF2758
:1002C00001373840040A1448C069C50F1248406815
:1002D0007F003840460A002E01D10020F0BD002CDE
:1002E00001D10E4800E00D480346012D01D118460A
:1002F000F4E7094880690F27FF053840C10D002940
:1003000000D110210448806903277F053840420D41
:1003100018464843D040E1E70080084000127A00C8
:100320007FB50446601180000A49461800252E2C2E
:1003300000D10225E406E40E0321A1403068084004
:10034000E04045196846FFF771FF0298E84004B0A5
:1003500070BD0000388008403FB50E4C606AE16A0D
:10036000226B0446009DAC4320460C46019DAC43E5
:1003700021461446029DAC432246002B05D0009C2A
:100380002043019C2143029C2243024C6062E162B3
:1003900022633FBD0080084081627047002A03D07D
:1003A00003680B43036002E003688B4303607047FC
:1003B0000EB5002000900190029001218903019860
:1003C00088434018019049010098884340180090E4
:1003D0000123684607C8FFF7BFFF0122022103205F
:1003E000FFF7F2FE01220221064800F0BBF80022CE
:1003F00002210448FFF7D2FF01220221014800F048
:1004000031F80EBD00600B400EB500200090019049
:100410000290012189030198884340180190090145
:1004200000988843401800900123684607C8FFF7EA
:1004300093FF0122D1020220FFF7C6FE0122D10262
:10044000074800F08FF800220121C902044800F09B
:10045000ADF80122D1020248FFF7A0FF0EBD000057
:1004600000400B40002A03D043680B43436002E086
:1004700043688B43436070470EB5002000900190A5
:100480000290012189030198884340180190890056
:10049000009888434018009049000098884340180D
:1004A0000090490000988843401800900123684656
:1004B00007C8FFF751FF0122D1030020FFF784FE98
:1004C0000122A8211046FFF77FFE012221490220C8
:1004D000FFF77AFE00220121C9031F4800F042F80D
:1004E0000022A8211D4800F03DF8002219491C48AF
:1004F00000F038F800220121C9031748FFF74EFF2A
:100500000022A8211548FFF749FF0022114914488D
:10051000FFF744FF0122D1030F48FFF73FFF0122FD
:10052000A8210E48FFF73AFF01220A490C48FFF7BD
:1005300035FF0122D1030848FFF794FF0122A821CB
:100540000648FFF78FFF012202490548FFF78AFF9F
:100550000EBD00000883000000000B4000200B408F
:1005600000400B40002A06D183680B438360C368B8
:100570008B43C3600EE0012A06D1C3680B43C360FE
:1005800083688B43836005E083688B438360C36823
:100590008B43C36070470246D3690B40002B01D0E8
:1005A000012000E00020704741627047002A01D01E
:1005B000416200E08162704710B500F011F8014916
:1005C000086010BD1000002010B5FFF71DFFFFF7F9
:1005D000EFFE02210148FFF7E7FF10BD00600B406E
:1005E00070B502212148FFF7DFFF012000F0E6FF90
:1005F0000121C9021E48FFF7CFFE002400BF0221DF
:100600001A48FFF7C8FF0028F9D1002519E0012199
:10061000C9021748FFF7C8FF6400012000F0CEFFB1
:100620000121C9021248FFF7B7FE02210F48FFF768
:10063000B2FF002800D0641C012000F0BFFF681C3E
:10064000C5B2182DE3DB0121C9020948FFF7ACFF51
:100650000120C0054440012000F0B0FF0121C90283
:100660000348FFF799FE204670BD000000600B4074
:1006700000400B4000BF024800680028FBD07047D4
:100680000000002010B50122D1030A48FFF78EFFB9
:10069000012210210848FFF789FF00221021064897
:1006A000FFF784FF00220121C9030248FFF77EFF04
:1006B00010BD000000200B4000400B4010B501228F
:1006C000D1030748FFF772FF002210210548FFF70A
:1006D0006DFF012210210348FFF768FF10BD0000E5
:1006E00000200B4000400B4010B50122D10305480B
:1006F000FFF75CFF00220121C9030248FFF756FF04
:1007000010BD000000200B400EB5002000900190AD
:100710000290012189030198884340180190C90083
:10072000009888434018009089000098884340183A
:1007300000900123684607C8FFF70EFE0122FF2143
:1007400041311046FFF740FD012205210320FFF74C
:100750003BFD0122FF2141311148FFF703FF012238
:1007600005211048FFF7FEFE0122FF2141310C4810
:10077000FFF714FE012205210B48FFF70FFE0122AF
:10078000FF2141310648FFF76DFE01220521064891
:10079000FFF768FE002240210148FFF707FF0EBD6A
:1007A00000200B4000400B4000600B40002904D0AB
:1007B000026F10231A43026703E0026F10239A436B
:1007C0000267704700B58BB0002000900190029046
:1007D000012189030198884340180190029840083C
:1007E0004000401C02900123684607C8FFF7B4FD93
:1007F000042211030020FFF7E7FC04220121084630
:10080000FFF7E2FC042211460120FFF7DDFC042281
:1008100008210320FFF7D8FC012222210220FFF744
:10082000D3FC2A496846C1830021818308A801704E
:1008300000200990FF2101316846018507A924485D
:1008400000F01AFD0121224800F0BBFB00216846A0
:1008500001730621C1810121017400218174017598
:100860004B218901C1820021018303A9184800F0AE
:1008700065FC0121684601730021C1820121817458
:1008800003A9134800F05AFC0221684601734B216A
:100890008901C1820021817403A90D4800F04EFC3A
:1008A0000321684601730021C1820121817403A9DB
:1008B000074800F043FC0121054800F02BFC012112
:1008C0000348FFF773FF0BB000BD0000BF1200002C
:1008D00000C00240704770B5002418E02046B030D8
:1008E000002100F0BAF90021022000F0B6F9002141
:1008F000102000F0B2F9002505E00121002000F0F1
:10090000ACF9681CC5B2802DF7DB601CC4B2082CA2
:10091000E4DB70BD0EB50020009001900290012133
:1009200089030198884340180190C90000988843C2
:100930004018009049000098884340180090012317
:10094000684607C8FFF708FD0122D1031046FFF7EC
:100950003BFC012210210220FFF736FC002201217E
:10096000C9031448FFF7FEFD002210211248FFF7CB
:10097000F9FD00220121C9030E48FFF70FFD0022F7
:1009800010210D48FFF70AFD0122D1030948FFF7A6
:1009900005FD012210210848FFF700FD0122D103C7
:1009A0000448FFF75FFD012210210348FFF75AFDBD
:1009B0000EBD000000200B4000400B4010B5FFF7BB
:1009C000A9FF012210213D48FFF7F0FD0122D103CC
:1009D0003B48FFF7EBFD1920400100F0E2FD00214C
:1009E000AE2000F03AF90021022000F036F9002193
:1009F000102000F032F90021402000F02EF90021F3
:100A0000B02000F02AF90021812000F026F9002111
:100A1000FF2000F022F90021A12000F01EF90021A2
:100A2000A62000F01AF90021A82000F016F90021F4
:100A30003F2000F012F90021C82000F00EF900213B
:100A4000D32000F00AF90021084600F006F9002141
:100A5000D52000F002F90021802000F0FEF80021EE
:100A6000D82000F0FAF80021052000F0F6F8002167
:100A7000D92000F0F2F80021F12000F0EEF800217A
:100A8000DA2000F0EAF80021122000F0E6F8002158
:100A9000DB2000F0E2F80021302000F0DEF8002139
:100AA0008D2000F0DAF80021142000F0D6F80021A3
:100AB000AF2000F0D2F8FFF70EFF10BD00400B4052
:100AC00000200B4070B504460D462846B03000218A
:100AD00000F0C3F8A11CF0221140091108461030A3
:100AE000002100F0BAF8A11C0807000F002100F057
:100AF000B4F870BDFFB581B007460D46002600244E
:100B000003982038C6B27F2F02DD0027A81CC5B28B
:100B10000498102824D129463846FFF7D3FF002433
:100B200008E031010919184A505C012100F095F8DC
:100B3000601CC4B2082CF4DB681CC1B23846FFF755
:100B4000C1FF002409E03101091908310E4A505C47
:100B5000012100F082F8601CC4B2082CF3DB11E024
:100B600029463846FFF7AEFF002409E0062171430D
:100B7000064A8918085D012100F06FF8601CC4B2B4
:100B8000062CF3DB05B0F0BD1A190000F2160000C8
:100B9000FFB583B01E460C9C0020029000253CE06F
:100BA000701B401EC1B20A2000F096FD0146009065
:100BB0000598FFF7E1FA0A210190FFF7DDFA0F46E9
:100BC0000298002815D1701EA84212DD002F0ED108
:100BD000E00F001940106843019403994018C0B217
:100BE0002346202200900499FFF784FF13E00120A0
:100BF0000290E00F001940106843019403994018D7
:100C0000C0B2009038463030C2B2234604990098F2
:100C1000FFF770FF00BF681CC5B2B542C0DB07B06C
:100C2000F0BDFFB581B004460F46154600260FE023
:100C3000AA5D39462046049BFFF75CFF204608303A
:100C4000C4B2782C02DD0024B81CC7B2701CC6B236
:100C5000A85D0028ECD105B0F0BD70B504460D4686
:100C6000002D03D0E0B200F041FC02E0E0B200F061
:100C700027FC70BD7047000070B50446002C02D000
:100C8000012C2ED116E002211E4800F04FFA054635
:100C900003211C4800F04AFA281A1B490860002268
:100CA0000221184800F0E1FA00220321154800F063
:100CB000DCFA1AE00221154800F038FA0546032153
:100CC000124800F033FA281A0F4908600022022166
:100CD0000E4800F0CAFA002203210C4800F0C5FAC1
:100CE00003E000200849086000BF00BF0648006814
:100CF000002804DA044800684042034908600248BA
:100D0000006870BD00E006401800002000F00640BA
:100D100070470000042806D10649096904221143DE
:100D2000044A116105E00349096904229143014A1B
:100D30001161704700E000E0002803D10021094A5A
:100D400091610EE0012806D106490969012211438B
:100D5000044A116105E00349096949084900014A4B
:100D60001161704700E000E0002806D006490969DB
:100D700002221143044A116105E003490969022274
:100D80009143014A1161704700E000E00149486168
:100D90007047000000E000E010B504464B229201CD
:100DA0000021094800F061FAA2B20121064800F0D2
:100DB0005CFA01220021044800F0E2F80122114609
:100DC000014800F0DDF810BD00C0024010B5044637
:100DD0004B208001001B82B20221094800F045FA35
:100DE00000220321064800F040FA012202210448B3
:100DF00000F0C6F801220321014800F0C1F810BD3F
:100E000000C002407047000010205849C86001200F
:100E1000574908605748006B40210843554908630B
:100E200000BF554880682728FBD103E0012040021D
:100E300051494860504840680121490208408842B1
:100E4000F4D102E000204C4948604B484068012141
:100E5000490208400028F5D1454908604548406AE4
:100E600003218902884343494862084640680121BA
:100E7000C90208433F49486000BF3E4880680007F8
:100E8000C00F0028F9D03B484068C008C000C01C13
:100E90003849486000BF3748406B4007400F03287F
:100EA000F9D136480068C008C000401C33490860CA
:100EB00000203049086208464068491588432D499A
:100EC000486008460068891508432A4908600846B2
:100ED0004068091508432749486000BF25488068D5
:100EE0004007C00F0028F9D02248006B40218843FA
:100EF0002049086308460068891588431D49086031
:100F000003200006886108464068491508431949CE
:100F1000486000BF174880688007C00F0028F9D0DC
:100F200016480068C008C000801C144908600020F2
:100F30001049086208464068C008C000401C48606C
:100F400000BF0C48406B4007400F0128F9D10B4807
:100F5000006810210843094908600846006801211B
:100F600009030843054908607047000000810840F4
:100F7000008308400080084000A1064000020840AD
:100F800030B503468D001C4640342819002A04D091
:100F9000046810252C43046003E004681025AC436A
:100FA000046030BD30B503468D001C46203428193E
:100FB00004680325AD04AC43046004681443046072
:100FC00030BD002904D0026902231A43026103E004
:100FD000026902239A430261704700210170417047
:100FE0000121090441600021816001737047000004
:100FF0001FB500200190029003900121090401987F
:101000008843401801908910029888434018029044
:1010100089110398884340180390012301A807C849
:10102000FFF79AF901214902039888434018039079
:10103000012301A807C8FFF78FF9042240210020EF
:10104000FFF7C2F8042280210020FFF7BDF8042238
:1010500011460020FFF7B8F8042208210020FFF70E
:10106000B3F80122CC212848FFF7FCF91321684688
:1010700001800021C94341800021017100200290BC
:10108000FF210131684681816946204800F0F4F86B
:1010900069461F4800F0F0F86846FFF79EFF0221FE
:1010A0006846017000214170012000040190002079
:1010B0000290684601736946144800F0A3F80321C2
:1010C00068460170002141706946104800F09AF8A6
:1010D0000221684601700021417069460C4800F009
:1010E00091F8032168460170002141706946084863
:1010F00000F088F80121054800F00CF801210448AF
:1011000000F008F81FBD000000000B4000E00640A2
:1011100000F00640002904D0026901231A4302614D
:1011200003E00269520852000261704710B502469E
:101130008C00104690302318186810BDFCB50D784F
:10114000AD0006464036AF190D78AD005036AD19EA
:1011500001950D78AD001036AD1900950D786D062E
:101160002A0E274DA84203D103259540EC4302E007
:1011700001259540EC43224DA84200D100BF056DEA
:1011800025400565436D23401D4DA84206D18D794C
:10119000CE797600354395402B4302E08D7995401A
:1011A0002B434365164DA84209D1C56E25402B46F9
:1011B0000D7A4E7A7600354395402B43C3663D68E1
:1011C000FF260836B5433D603D684E8835433D6097
:1011D0004E89019D2E608E89009D2E60084DA8428B
:1011E00008D10D794E79760035439540066D35432B
:1011F000056504E0056D0E79964035430565FCBD37
:1012000000C00240F3B581B00C466078002801D1DF
:10121000012500E00025012109046068884201D110
:10122000460001E0012636042078002801D101277C
:1012300000E00027207B00906278217863680198A5
:1012400000F06AF92178A2680198FFF7ABFE207BD5
:1012500033462A4639460090019800F05DF9394638
:10126000A2680198FFF79EFEFEBD30B58D000446D2
:1012700090342B191A6030BD4B88882213500B888C
:1012800084221350026803231B049A4302600268FD
:1012900001231B069A43026002688B681A430260AE
:1012A000044A904202D10B798C2213508A898267BA
:1012B0007047000000C0024010B52021480600F031
:1012C0005FF800280CD00120800700F0B3F8044636
:1012D000044802780078401C024B1870024884547D
:1012E00010BD0000080000200500002000B587B0F8
:1012F0000020019002900390012189030298884305
:1013000040180290891102988843401802900123E6
:1013100001A807C8FFF720F80622FF2101310020AD
:10132000FEF752FF062202210120FEF74DFF4B205F
:10133000C0010490FF210131684681820021C182F1
:101340000183418304A90120800700F023F80122D2
:101350000021900700F072F801221146900700F07A
:101360006DF8172001218140044A116000BF01225D
:101370001146900700F054F807B000BD00E100E00E
:10138000024610690840002801D001207047002063
:10139000FCE7000070B504460D4660681C49084033
:1013A000E9880843A98808432989084369890843CB
:1013B000606001208007844207D11820FEF7B0FF4B
:1013C00006462968FEF7D8FE60621248844207D1BB
:1013D0001A20FEF7A5FF06462968FEF7CDFE6062DB
:1013E0000D48844207D11C20FEF79AFF0646296863
:1013F000FEF7C2FE60620948844207D11E20FEF754
:101400008FFF06462968FEF7B7FE606270BD0000D8
:10141000FCE0FFFF0000044000100040001004400A
:10142000002A03D0C3680B43C36002E0C3688B4348
:10143000C36070470146086880B2704710B5002A43
:1014400005D0436810248C402343436004E0436884
:1014500010248C40A343436010BD0000F8B505463E
:101460002C4600220121C9031348FFF79FF80026EC
:101470001EE0274680200740802F05D10122102141
:101480000E48FFF793F804E0002210210B48FFF705
:101490008DF86006040E0122D1030748FFF786F895
:1014A00000220121C9030448FFF780F8701CC6B26E
:1014B000082EDEDBF8BD000000200B4000400B4092
:1014C00010B50446FFF7DEF87820FFF7C7FFFFF7F7
:1014D0000BF90020FFF7C2FFFFF706F92046FFF7E0
:1014E000BDFFFFF701F9FFF7E9F810BD10B504469D
:1014F000FFF7C8F87820FFF7B1FFFFF7F5F84020B5
:10150000FFF7ACFFFFF7F0F82046FFF7A7FFFFF764
:10151000EBF8FFF7D3F810BDFFB58E000546203578
:101520007419056D4F000126BE40B543056522685C
:10153000436D0C4D2A40099E039D35432A4322608A
:101540004E000125B5401E46AE4333464E00029D77
:10155000B5402B434365056D4F000126BE40354322
:101560000565FFBDF0FFFCFF30B47446641E2578AE
:10157000641CAB4204D3635D5B00E31830BC1847C6
:101580001D46F8E702E008C8121F08C1002AFAD178
:1015900070477047002001E001C1121F002AFBD1F3
:1015A000704710B5044603E07D20C00000F006F847
:1015B0002046611E8CB20028F6D110BD70B50446DD
:1015C0000420C043FFF7A6FB13490968C808134964
:1015D000FEF7D2FD0646FFF7D9FB0020FFF7C4FB5C
:1015E0000020FFF7A9FB0120FFF7A6FB002508E07C
:1015F00000BF0B4800690121090408400028F8D009
:101600006D1CA542F4D30120C043FFF795FB0020D9
:10161000FFF792FB70BD00004800002040420F0021
:1016200000E000E008B5FFF7CDF8FEF7CDFFFFF7CB
:101630005DFEFFF7DDFCFEF71FFFFFF7BFF9FFF7C9
:1016400063F8102319A200210846FFF7EAFA1023D5
:1016500018A202210020FFF7E4FA102318A20421A7
:101660000020FFF7DEFA102318A206210020FFF762
:10167000D8FA1420FFF7AAFB1420FFF78DFB7D207A
:101680000001FFF78EFFFEF797FF0EE00120FFF746
:10169000F3FA1020072300900E480621026840202C
:1016A000FFF776FA6420FFF77CFFEFE7204B6579C0
:1016B0003A000000205765696768743A000000002E
:1016C0002044697374616E63653A00002050554C84
:1016D00053453A001800002010B50246012002E0F0
:1016E0000346534318460B464C1EE1B2002BF7D17C
:1016F00010BD0000000000000000002F00000000EE
:101700000700070000147F147F1400242A7F2A1288
:101710000062640813230036495522500000050377
:10172000000000001C224100000041221C000014A7
:10173000083E08140008083E0808000000A06000E9
:101740000008080808080000606000000020100879
:101750000402003E5149453E0000427F40000042E5
:1017600061514946002141454B31001814127F1048
:10177000002745454539003C4A4949300001710977
:10178000050300364949493600064949291E00002B
:1017900036360000000056360000000814224100D2
:1017A0000014141414140000412214080002015102
:1017B000090600324959513E007C1211127C007F0B
:1017C00049494936003E41414122007F4141221CA6
:1017D000007F49494941007F09090901003E41490B
:1017E000497A007F0808087F0000417F41000020FF
:1017F00040413F01007F08142241007F40404040AB
:10180000007F020C027F007F0408107F003E4141F0
:10181000413E007F09090906003E4151215E007FDB
:10182000091929460046494949310001017F010152
:10183000003F4040403F001F2040201F003F4038F5
:10184000403F006314081463000708700807006134
:101850005149454300007F41410000552A552A5512
:10186000000041417F0000040201020400404040AA
:101870004040000001020400002054545478007FCE
:101880004844443800384444442000384444487FA5
:1018900000385454541800087E0901020018A4A40A
:1018A000A47C007F080404780000447D40000040D0
:1018B00080847D00007F102844000000417F4000AC
:1018C000007C04180478007C080404780038444440
:1018D000443800FC242424180018242418FC007C1C
:1018E0000804040800485454542000043F44402095
:1018F000003C4040207C001C2040201C003C40302C
:10190000403C004428102844001CA0A0A07C0044B7
:1019100064544C4414141414141400000000000007
:1019200000000000000000000000000000F80000BF
:101930000000000000333000000000100C06100C06
:101940000600000000000000000040C07840C078A1
:101950004000043F04043F040400007088FC083089
:101960000000001820FF211E0000F008F000E01821
:10197000000000211C031E211E0000F008887000DA
:1019800000001E2123241927211010160E0000002C
:1019900000000000000000000000000000E018044B
:1019A0000200000000071820400000020418E000B8
:1019B00000000040201807000000404080F08040F8
:1019C00040000202010F01020200000000F00000CE
:1019D00000000101011F01010100000000000000E2
:1019E000000080B070000000000000000000000057
:1019F00000000001010101010101000000000000E0
:101A00000000003030000000000000000000806096
:101A10001804006018060100000000E0100808101B
:101A2000E000000F102020100F00001010F8000040
:101A300000000020203F20200000007008080888D7
:101A400070000030282422213000003008888848A7
:101A500030000018202020110E000000C02010F8D7
:101A6000000000070424243F240000F808888808A8
:101A700008000019212020110E0000E010888818AD
:101A80000000000F112020110E0000380808C8388F
:101A900008000000003F000000000070880808886F
:101AA0007000001C222121221C0000E010080810F8
:101AB000E0000000312222110F00000000C0C00031
:101AC0000000000000303000000000000080000036
:101AD0000000000080600000000000008040201036
:101AE000080000010204081020004040404040402F
:101AF0004000040404040404040000081020408092
:101B000000000020100804020100007048080808C6
:101B1000F0000000003036010000C030C828E81096
:101B2000E0000718272423140B000000C038E00051
:101B30000000203C23020227382008F8888888709B
:101B40000000203F202020110E00C03008080808A7
:101B50003800071820202010080008F8080808108E
:101B6000E000203F202020100F0008F88888E808B7
:101B70001000203F20202320180008F88888E8085B
:101B80001000203F200003000000C0300808083883
:101B9000000007182020221E020008F80800000894
:101BA000F808203F210101213F20000808F808081B
:101BB00000000020203F2020000000000808F80856
:101BC0000800C08080807F00000008F888C02818C6
:101BD0000800203F20012638200008F808000000F7
:101BE0000000203F20202020300008F8F800F8F8FE
:101BF0000800203F003F003F200008F830C00008E8
:101C0000F808203F200007183F00E01008080810DF
:101C1000E0000F10202020100F0008F80808080826
:101C2000F000203F210101010000E0100808081029
:101C3000E0000F18242438504F0008F8888888885E
:101C40007000203F2000030C302000708808080836
:101C500038000038202121221C00180808F8080844
:101C600018000000203F2000000008F808000008CD
:101C7000F808001F202020201F000878880000C8D6
:101C80003808000007380E010000F80800F80008C6
:101C9000F800033C0700073C0300081868808068D0
:101CA000180820302C03032C30200838C800C8380E
:101CB00008000000203F2000000010080808C83875
:101CC00008002038262120201800000000FE020213
:101CD00002000000007F40404000000C30C00000C7
:101CE0000000000000010638C00000020202FE00F1
:101CF0000000004040407F0000000000040202029B
:101D000004000000000000000000000000000000CF
:101D100000008080808080808080000202040000BB
:101D200000000000000000000000000080808080B3
:101D300000000019242222223F2008F800808000A1
:101D40000000003F112020110E0000000080808064
:101D50000000000E1120202011000000008080886B
:101D6000F800000E112020103F20000080808080AD
:101D70000000001F222222221300008080F08888A9
:101D800088180020203F20200000000080808080F4
:101D90008000006B94949493600008F80080808029
:101DA0000000203F210000203F2000809898000084
:101DB00000000020203F20200000000000809898B4
:101DC000000000C08080807F000008F80000808054
:101DD0008000203F24022D302000000808F8000079
:101DE00000000020203F2020000080808080808034
:101DF0008000203F20003F20003F808000808080C6
:101E00000000203F210000203F20000080808080D3
:101E10000000001F202020201F0080800080800004
:101E2000000080FFA12020110E00000000808080B3
:101E30008000000E112020A0FF8080808000808024
:101E4000800020203F212000010000008080808051
:101E500080000033242424241900008080E0808046
:101E600000000000001F2020000080800000008093
:101E70008000001F202020103F20808080000080F4
:101E8000808000010E300806010080800080008004
:101E900080800F300C030C300F00008080008080A9
:101EA00080000020312E0E312000808080000080D4
:101EB000808080818E701806010000808080808084
:101EC00080000021302C2221300000000000807CA6
:101ED000020200000000003F404000000000FF0040
:101EE000000000000000FF0000000002027C8000F3
:101EF00000000040403F0000000000060101020217
:101F00000404000000000000000000002C1F00007E
:101F1000000000204C00000084150000781F000025
:101F20004C00002004020000941500000000000096
:101F300000000000000000000000000000000000A1
:101F40000000000000000000000000000000000091
:101F5000000000006666663F000000000000000010
:101F6000000000006666663F000000000000000000
:081F700000000000006CDC021F
:040000050000016591
:00000001FF
