:020000040000FA
:1000000070030020C100000091100000710D00007D
:10001000FFFFFFFFFFFFFFFFFFFFFFFFFFFFFFFFF0
:10002000FFFFFFFFFFFFFFFFFFFFFFFFE1150000E6
:10003000FFFFFFFFFFFFFFFF49140000E316000072
:1000400035010000350100003501000035010000D8
:1000500035010000350100003501000035010000C8
:1000600035010000FFFFFFFF350100002D0D0000EE
:10007000010D00009515000035010000FFFFFFFF96
:10008000FFFFFFFF350100003501000035010000D2
:100090003501000035010000350100008520000019
:1000A0003501000035010000350100003501000078
:1000B0003501000035010000350100003501000068
:1000C0001D4880471D4880471D4800471D4801695D
:1000D000002908D14169002905D18169002902D18F
:1000E000C169002909D01848C1680901090D002912
:1000F0000ED005290CD006290AD0BFF34F8F134824
:100100001349016013491248C860BFF34F8FFEE7DF
:100110000E4801680E48884200D070470E480F49CB
:1001200001600A480E4901607047FEE7FEE7FEE7FE
:10013000FEE7FEE7FEE70000CD000000E516000048
:100140006501000000030840800108400000002015
:100150000400FA0500ED00E0008108400100000005
:10016000000000000348854600F094FB004800476B
:10017000A12600007003002030B50B460146002088
:100180002022012409E00D46D5409D4205D31D469D
:100190009540491B2546954040191546521E002D95
:1001A000F1DC30BDF8B502464A40D40F42004B00A6
:1001B00052085B089A4202D20246084611464A009B
:1001C00023D0C30D4A00DDB2120EAD1A202D35DA50
:1001D00049020126490AF6058A19002C00D052422C
:1001E00020214F1B1146B9402A411018C20D9A42D6
:1001F00021D0002C17D0012D08DCDA05801AD20F8F
:100200008019D207DBB200F0ADFAF8BDDA05801A2A
:10021000012340001B06C01880185A428018CA0FDC
:100220001043490007E04908C2071143DA05801A64
:1002300080194008801800F08DFAF8BD6100012295
:10024000511A001BF7E70122D2075140AAE7012209
:10025000D2075040A6E7024670B54A40D30FDB07ED
:1002600040002DD04A002AD0010E140E00021202C6
:100270000919400A520A8418E50104465443000A49
:10028000120A2E045043A4194219200CC543AA187F
:10029000120C0125AD03521C521912047F3924049B
:1002A00000D0521C104301D44000491EC2B20C06BB
:1002B000C0092018401C4008802A02D003E000201A
:1002C00070BD40084000002900DA0020184370BDCE
:1002D000F0B507460846584087B0C00F0490480064
:1002E0000E46590040084908BC1A884105D23846D4
:1002F00031461E4617460B4602465800400810433A
:100300004CD0300D039040055900400D490D05902B
:10031000401A0290402872DA18030121000B0905E7
:100320000843019004980092002805D00199524298
:100330000020884100920190029840210A1A0199F8
:10034000009800F0D3F905460C466B4607CB00F049
:10035000EEF9C0197141039A0E0D0023D7175640CC
:100360001A467A40164344D0049A002A2DD0029AA5
:10037000012A039A15DC1205C01A9141012636059F
:10038000001C7141D20F059ED20700930192029684
:100390002A46234600F02CFA07B0F0BD3846314615
:1003A000FAE71605224A0F46B218C01AB7410121D2
:1003B0000905001C4F4100187F411146181879416A
:1003C000E20F10436D19644113E0E2076D08154315
:1003D0006408C2071443039A01261205C01A91410A
:1003E0003605001C7141CE07400830434908C0184B
:1003F00051412A46234600F0EEF9CDE7FFE7049885
:1004000001224000C117121A00238B410498314683
:10041000C417381AA141EEE730B40124E407634061
:1004200030BC55E730B40124E407614030BC4FE7ED
:100430000000E0FFF0B51FB488B00B9909980024C4
:1004400048400999C00F490049080991C0070B9914
:100450000090490049080B9109990898A64608435D
:100460001CD00B990A98084318D009980124400021
:10047000420D4800410D099824050003000B20435C
:1004800009900B980003000B20430B9050181C4957
:100490004018002201901446104605E00020014655
:1004A0000DB0F0BD032801DA034600E003239C46AB
:1004B000C11A0AAE0AE05F0008ADED5B4F00F75BC2
:1004C0007D430027AA187C41491C5B1E6145F2DD73
:1004D000410004AB5A522104120C0A43240C401C64
:1004E0000828DFDB01980290009970460191009086
:1004F000059B049A0799069800F07AF9D0E7000066
:100500000DFCFFFFF0B50C465C4085B0E40FE4073E
:1005100003944C000026640859009446490802469A
:100520000296224321D062460A431ED06200570D34
:100530004A000E032303550D012402462C492405CD
:10054000781B1B0B360B4018234326436146009053
:100550001C46501AB44103D30098401C009002E09E
:10056000921800985B41002803DA0020014605B08C
:10057000F0BD0020012109050746864611E06446CA
:100580001D46141BB54106D36546521BB341744644
:1005900007430C43A646CD07400849082843921854
:1005A0005B4105460D43EAD11046184313D060461F
:1005B000194650407140084306D06046101AB341B6
:1005C00006D20122002306E000220123DB0702E01D
:1005D0000122D2435310009874460105381C614132
:1005E000029C039D0019694100F0F5F8BFE7000087
:1005F000FD030000C217C10F504010B54018CA07D4
:100600009623002100F0AEF810BDC20F4100400259
:100610000123400ADB05D207090EC0187F2901DA41
:1006200000207047962903DC9623591AC84001E040
:1006300096398840002AF4D0404270474100400279
:100640000122400AD205090E80187F2901DA002014
:100650007047962903DC9622511AC8407047963994
:1006600088407047C20FD207400040080BD0C10D30
:100670000723DB01C91840020905400A1143C208DB
:10068000400711437047002001467047CB0FDB073E
:10069000490010B5490802460A4307D00A0D07244D
:1006A0000903E401090B121B002A01DC002010BD24
:1006B000C900440F0C43C100E018D205801800F0B7
:1006C00049F810BD0122D207002800DB101A0029CA
:1006D00000DB511A814270470122D207002800DB5B
:1006E000101A002900DB511A8842704710B5202AE1
:1006F00004DB0146203A9140002010BD91402023A8
:100700009C1A0346E3401943904010BD10B5202ABF
:1007100004DB0846203AD040002110BD0B46D340F0
:10072000D0402024A21A91400843194610BD10B5AC
:10073000202A06DBCB170846203A1041C1170B438D
:1007400006E00B461341D0402024A21A91400843F2
:10075000194610BD002904DA401C490001D14008A7
:100760004000704770B40024050C05D1102400042B
:1007700002D1002921D01124050E01D10002083434
:10078000050F01D10001241D850F01D18000A41C9B
:10079000002801DB4000641C002908D020252E1B06
:1007A0000D46F540A14000D0012129430843010630
:1007B0001B1B000ADB1D02D5002070BC7047DB0547
:1007C000181880180029F8DA401C4900F5D170BCCF
:1007D00040084000704710B5002B08DA0024401C88
:1007E000614192185B411A4301D14008400010BD9D
:1007F000F0B51FB482B005460C0003D0084601F0E6
:10080000E9FD02E001F0E6FD2030024600902146BD
:100810002846FFF76BFF049B059A04460F461843D2
:100820001143084314D0184610431BD000984021B0
:100830000A1A18460599FFF769FF05460E46009A01
:1008400005990498FFF752FF084305D0012004E002
:100850002046394607B0F0BD0020C11705430E43BE
:100860002C43374300990E986305401A7905E40A32
:1008700000220C43FD0A0A3002D500200146E9E7B8
:100880000105101969410C9C0D9D00196941FFF784
:10089000A2FFDFE7064C0125064E05E0E36807CC22
:1008A0002B430C3C98471034B442F7D3FFF75EFC5F
:1008B0004430000064300000F7B50B46009DED00A9
:1008C000154EAA19002000240027002120E0002452
:1008D0000027FF258D401D40002D17D000200FE080
:1008E0001D46C54001268E403540002D07D08600AC
:1008F0000F25B5402C438600029DB5402F43401C78
:100900000828EDD31568A5433D431560121D083135
:100910000829DCDDFEBD00002020024070B5044641
:100920001F48406B4607760F00F03EF8206033000A
:1009300001F067FD081605080B16160E1216206842
:10094000606010E0174860600DE0164860600AE0E3
:100950000120C003606006E07D200002606002E0CC
:100960000020606000BF00BF0D48056A052D02D35E
:100970006068400901E06068E840A0600848806A5B
:10098000072109040840050C072D04D10321A068A4
:10099000FFF7F2FB01E0A068E840E06070BD0000F6
:1009A0000080084000127A00F0B517480068FF2761
:1009B00001373840040A1448C069C50F124840681E
:1009C0007F003840460A002E01D10020F0BD002CE7
:1009D00001D10E4800E00D480346012D01D1184613
:1009E000F4E7094880690F27FF053840C10D002949
:1009F00000D110210448806903277F053840420D4B
:100A000018464843D040E1E70080084000127A00D1
:100A10007FB50446601180000A49461800252E2C37
:100A200000D10225E406E40E0321A140306808400D
:100A3000E04045196846FFF771FF0298E84004B0AE
:100A400070BD0000388008403FB50E4C606AE16A16
:100A5000226B0446009DAC4320460C46019DAC43EE
:100A600021461446029DAC432246002B05D0009C33
:100A70002043019C2143029C2243024C6062E162BC
:100A800022633FBD00800840002A03D003680B4367
:100A9000036002E003688B43036070470EB50020DB
:100AA0000090019002900121890301988843401829
:100AB000019049010098884340180090012368463E
:100AC00007C8FFF7C1FF012202210320FFF7F4FE50
:100AD00001220221064800F0E9F800220221044820
:100AE000FFF7D2FF01220221014800F031F80EBDCC
:100AF00000600B400EB50020009001900290012193
:100B0000890301988843401801900901009888439F
:100B1000401800900123684607C8FFF795FF01229F
:100B2000D1020220FFF7C8FE0122D102074800F0DF
:100B3000BDF800220121C902044800F0DBF80122BF
:100B4000D1020248FFF7A0FF0EBD000000400B409D
:100B5000002A03D043680B43436002E043688B43A1
:100B6000436070470EB50020009001900290012173
:100B700089030198884340180190890000988843B0
:100B8000401800900123684607C8FFF75DFF012267
:100B9000D1020020FFF790FE00220121C902074880
:100BA00000F084F800220121C9020448FFF76CFF1D
:100BB0000122D1020148FFF7CBFF0EBD00000B4020
:100BC0000EB5002000900190029001218903019848
:100BD000884340180190890000988843401800908D
:100BE00049000098884340180090490000988843C5
:100BF000401800900123684607C8FFF725FF01222F
:100C0000D1030020FFF758FE0122A8211046FFF76C
:100C100053FE012221490220FFF74EFE002201214E
:100C2000C9031F4800F042F80022A8211D4800F027
:100C30003DF8002219491C4800F038F80022012133
:100C4000C9031748FFF720FF0022A8211548FFF726
:100C50001BFF002211491448FFF716FF0122D103A0
:100C60000F48FFF711FF0122A8210E48FFF70CFFE4
:100C700001220A490C48FFF707FF0122D103084867
:100C8000FFF766FF0122A8210648FFF761FF012256
:100C900002490548FFF75CFF0EBD00000883000015
:100CA00000000B4000200B4000400B40002A06D102
:100CB00083680B438360C3688B43C3600EE0012AE3
:100CC00006D1C3680B43C36083688B43836005E030
:100CD00083688B438360C3688B43C360704702465D
:100CE000D3690B40002B01D0012000E000207047A9
:100CF00041627047002A01D0416200E08162704782
:100D000010B50421074800F0DDFE002808D00421BA
:100D1000044800F082FE04480068401C0249086054
:100D200010BD000000E006402800002010B508219A
:100D3000074800F0C7FE002808D00821044800F04A
:100D40006CFE04480068401C0249086010BD0000A9
:100D500000F006402C00002010B5FFF7CBFEFFF797
:100D60009DFE02210148FFF7C3FF10BD00600B404C
:100D700000BF024800680028FBD070470000002038
:100D800010B50122D1030A48FFF7B4FF0122102158
:100D90000848FFF7AFFF002210210648FFF7AAFF1F
:100DA00000220121C9030248FFF7A4FF10BD000083
:100DB00000200B4000400B4010B50122D103074832
:100DC000FFF798FF002210210548FFF793FF01224B
:100DD00010210348FFF78EFF10BD000000200B40DC
:100DE00000400B4010B50122D1030548FFF782FFF8
:100DF00000220121C9030248FFF77CFF10BD00005B
:100E000000200B4010B5012240210648FFF772FF79
:100E1000642001F09FFB002240210248FFF76AFF97
:100E200010BD000000200B400EB500200090019086
:100E30000290012189030198884340180190C9005C
:100E40000098884340180090890000988843401813
:100E500000900123684607C8FFF7F6FD0122FF2135
:100E600041311046FFF728FD012205210320FFF73D
:100E700023FD0122FF2141311148FFF717FF012215
:100E800005211048FFF712FF0122FF2141310C48D4
:100E9000FFF7FAFD012205210B48FFF7F5FD0122BE
:100EA000FF2141310648FFF753FE01220521064884
:100EB000FFF74EFE002240210148FFF71BFF0EBD49
:100EC00000200B4000400B4000600B40F0B58BB0A1
:100ED00004460F466760A068E060E068FFF7C2FB69
:100EE000039102902068FFF7BDFB05460022104BDE
:100EF000FFF798FA01910090039B029AFFF79AFA84
:100F00000791069061682068FFF7A5F90546FFF78D
:100F1000A9FB05910490079B069AFFF7D9F909915F
:100F20000890FFF7B3FBA060A0680BB0F0BD000015
:100F30000000F03F002904D0026F10231A4302671B
:100F400003E0026F10239A430267704700B58BB02D
:100F500000200090019002900121890301988843AC
:100F600040180190029840084000401C0290012364
:100F7000684607C8FFF768FD042211030020FFF749
:100F80009BFC042201210846FFF796FC042211462F
:100F90000120FFF791FC042208210320FFF78CFCBD
:100FA000012222210220FFF787FC2A496846C183DB
:100FB0000021818308A8017000200990FF210131E0
:100FC0006846018507A9244800F034FE0121224823
:100FD00000F065FC0021684601730621C1810121F2
:100FE00001740021817401754B218901C1820021A6
:100FF000018303A9184800F07FFD012168460173B1
:101000000021C1820121817403A9134800F074FDFD
:101010000221684601734B218901C182002181743C
:1010200003A90D4800F068FD032168460173002103
:10103000C1820121817403A9074800F05DFD0121EF
:10104000054800F0EFFC01210348FFF773FF0BB0E8
:1010500000BD0000BF12000000C0024070B5044691
:101060000D46094804600948056007480068FFF715
:10107000CCFA064600F0F8FA04480068FFF7C5FA13
:10108000064600F00BFB70BD540000205800002005
:1010900070470000C206D20E01219140014A116042
:1010A0007047000000E100E070B5002418E0204621
:1010B000B030002100F0BBF90021022000F0B7F9A8
:1010C0000021102000F0B3F9002505E001210020E7
:1010D00000F0ADF9681CC5B2802DF7DB601CC4B20E
:1010E000082CE4DB70BD00000EB5002000900190DC
:1010F0000290012189030198884340180190C9009A
:101100000098884340180090490000988843401890
:1011100000900123684607C8FFF796FC0122D1031F
:101120001046FFF7C9FB012210210220FFF7C4FB84
:1011300000220121C9031448FFF7B8FD0022102145
:101140001248FFF7B3FD00220121C9030E48FFF743
:101150009BFC002210210D48FFF796FC0122D103D1
:101160000948FFF791FC012210210848FFF78CFC89
:101170000122D1030448FFF7EBFC012210210348B0
:10118000FFF7E6FC0EBD000000200B4000400B40C6
:1011900010B5FFF7A9FF012210213D48FFF7AAFD76
:1011A0000122D1033B48FFF7A5FD1920400101F0C2
:1011B000C3F90021AE2000F03AF90021022000F02E
:1011C00036F90021102000F032F90021402000F013
:1011D0002EF90021B02000F02AF90021812000F032
:1011E00026F90021FF2000F022F90021A12000F0C3
:1011F0001EF90021A62000F01AF90021A82000F015
:1012000016F900213F2000F012F90021C82000F05B
:101210000EF90021D32000F00AF90021084600F061
:1012200006F90021D52000F002F90021802000F00D
:10123000FEF80021D82000F0FAF80021052000F087
:10124000F6F80021D92000F0F2F80021F12000F09A
:10125000EEF80021DA2000F0EAF80021122000F078
:10126000E6F80021DB2000F0E2F80021302000F059
:10127000DEF800218D2000F0DAF80021142000F0C3
:10128000D6F80021AF2000F0D2F8FFF70DFF10BD17
:1012900000400B4000200B4070B504460D46284628
:1012A000B030002100F0C3F8A11CF0221140091158
:1012B00008461030002100F0BAF8A11C0807000F02
:1012C000002100F0B4F870BDFFB581B007460D46AF
:1012D0000026002403982038C6B27F2F02DD0027A5
:1012E000A81CC5B20498102824D129463846FFF717
:1012F000D3FF002408E031010919184A505C01218C
:1013000000F095F8601CC4B2082CF4DB681CC1B274
:101310003846FFF7C1FF002409E0310109190831FF
:101320000E4A505C012100F082F8601CC4B2082C07
:10133000F3DB11E029463846FFF7AEFF002409E051
:1013400006217143064A8918085D012100F06FF8F3
:10135000601CC4B2062CF3DB05B0F0BD542A0000BB
:101360002C280000FFB583B01E460C9C0020029084
:1013700000253CE0701B401EC1B20A2001F024FA97
:10138000014600900598FEF7F7FE0A210190FEF74E
:10139000F3FE0F460298002815D1701EA84212DDF8
:1013A000002F0ED1E00F00194010684301940399FB
:1013B0004018C0B22346202200900499FFF784FF12
:1013C00013E001200290E00F0019401068430194DF
:1013D00003994018C0B2009038463030C2B223465C
:1013E00004990098FFF770FF00BF681CC5B2B542B2
:1013F000C0DB07B0F0BDFFB581B004460F4615460F
:1014000000260FE0AA5D39462046049BFFF75CFFEB
:1014100020460830C4B2782C02DD0024B81CC7B2C4
:10142000701CC6B2A85D0028ECD105B0F0BD70B547
:1014300004460D46002D03D0E0B200F08DFF02E01F
:10144000E0B200F073FF70BD704700001848194902
:10145000086080024860002088601748C86100204A
:1014600048630864154888631548C86310481549DF
:10147000086080024860002088600F48C861002032
:10148000486308640D4888630D48C8630E480F49D7
:101490000860002048607F20C00588600020C86187
:1014A000486308640A4888630A48C86370470000B4
:1014B00000005042A4000020000040410080BB44D6
:1014C0000080BBC4E80000200000A0412C010020E7
:1014D0000000FA440000FAC4F8B50446216AE06945
:1014E000FEF7B1FEE060E168606AFEF75BFE6062F5
:1014F0002169E068FEF7A7FEA062E16A606AFFF773
:10150000EBF801D2E06A6062216B606AFFF7DAF8FB
:1015100001D2206B6062A16AA068FEF79CFE009079
:10152000616A6068FEF797FE0646E1682068FEF78C
:1015300092FE07463146FEF735FE05460099FEF756
:1015400031FE6063E0682061606BF8BD01460029F0
:1015500002D0012910D107E00B4800680B4A106047
:101560000020094A10600BE009480068074A106033
:101570000020074A106003E00020044A106000BF0A
:1015800000BF0248006870472800002024000020A7
:101590002C00002010B5FF2101310D4800F092FA17
:1015A000002813D0FF210131094800F031FA094821
:1015B0000068401C0749086007480068401C06494D
:1015C000086006480068401C0449086010BD00001F
:1015D000004003405C000020600000206400002008
:1015E00070470000042806D1064909690422114306
:1015F000044A116105E00349096904229143014A43
:101600001161704700E000E0002803D10021094A81
:1016100091610EE0012806D10649096901221143B2
:10162000044A116105E00349096949084900014A72
:101630001161704700E000E0002806D00649096902
:1016400002221143044A116105E00349096902229B
:101650009143014A1161704700E000E0014948618F
:101660007047000000E000E010B504464B229201F4
:101670000221094800F0D7FAA2B20321064800F07F
:10168000D2FA01220221044800F0E8F801220321E5
:10169000014800F0E3F810BD00C0024010B5044658
:1016A0004B208001001B82B20021094800F0BBFAE8
:1016B00000220121064800F0B6FA01220021044868
:1016C00000F0CCF801221146014800F0C7F810BD27
:1016D00000C0024070B505460C462046FFF7FCFEF0
:1016E00070BD704710205849C860012057490860F4
:1016F0005748006B402108435549086300BF5548CF
:1017000080682728FBD103E001204002514948604E
:10171000504840680121490208408842F4D102E063
:1017200000204C4948604B4840680121490208406C
:101730000028F5D1454908604548406A03218902DF
:10174000884343494862084640680121C90208436A
:101750003F49486000BF3E4880680007C00F00282E
:10176000F9D03B484068C008C000C01C38494860F8
:1017700000BF3748406B4007400F0328F9D1364877
:101780000068C008C000401C334908600020304990
:10179000086208464068491588432D494860084654
:1017A0000068891508432A490860084640680915F9
:1017B00008432749486000BF254880684007C00F9C
:1017C0000028F9D02248006B402188432049086353
:1017D00008460068891588431D49086003200006F3
:1017E000886108464068491508431949486000BFA8
:1017F000174880688007C00F0028F9D01648006895
:10180000C008C000801C144908600020104908620C
:1018100008464068C008C000401C486000BF0C4833
:10182000406B4007400F0128F9D10B480068102198
:101830000843094908600846006801210903084374
:101840000549086070470000008108400083084097
:101850000080084000A106400002084030B5034661
:101860008D001C4640342819002A04D00468102535
:101870002C43046003E004681025AC43046030BDD1
:1018800030B503468D001C46203428190468032512
:10189000AD04AC43046004681443046030BD002907
:1018A00004D0026902231A43026103E002690223A1
:1018B0009A430261704700210170417001210904BF
:1018C0004160002181600173704700001FB5002056
:1018D0000190029003900121090401988843401867
:1018E000019089100298884340180290891103984A
:1018F000884340180390012301A807C8FFF7A4F804
:10190000012149020398884340180390012301A84C
:1019100007C8FFF799F8042240210020FEF7CCFF0A
:10192000042280210020FEF7C7FF04221146002078
:10193000FEF7C2FF042208210020FEF7BDFF0122AE
:10194000CC213048FFF704F91321684601800021BB
:10195000C94341800021017100200290FF21013123
:10196000684681816946284800F064F9694627483D
:1019700000F060F96846FFF79EFF0221684601709B
:10198000002141700120000401900020029068466F
:10199000017369461C4800F013F903216846017081
:1019A000002141706946184800F00AF90221684692
:1019B0000170002141706946144800F001F90321CB
:1019C00068460170002141706946104800F0F8F83F
:1019D000012204210C4800F085F8012208210B485F
:1019E00000F080F80C20FFF755FB0B20FFF752FBAF
:1019F0000121054800F016F80121044800F012F812
:101A00001FBD000000000B4000E0064000F0064053
:101A1000CA43C267BFF34F8F7047CA43C267BFF361
:101A20004F8F7047002904D0026901231A430261D5
:101A300003E0026952085200026170471FB500209E
:101A400001900290039001210907039888434018F0
:101A50000390012301A807C8FEF7F6FF002168469E
:101A600001807D21090114480068FEF785FB401EB6
:101A700081B2684641800021017100200290FF215F
:101A800001316846818169460C4800F0D3F8FF2196
:101A900001310A48FFF7BCFF0D2001218140084AAF
:101AA000116000BF01221102044800F01BF801215F
:101AB0000248FFF7B7FF1FBD7C0000200040034035
:101AC00000E100E010B50246D06F08400346506FB9
:101AD00008400446002B03D0002C01D0012010BD8B
:101AE0000020FCE7002A03D0436F0B43436702E06A
:101AF000436F8B4343677047FCB50D78AD000646D6
:101B00004036AF190D78AD005036AD1901950D78FE
:101B1000AD001036AD1900950D786D062A0E274DD3
:101B2000A84203D103259540EC4302E001259540EE
:101B3000EC43224DA84200D100BF056D254005654C
:101B4000436D23401D4DA84206D18D79CE79760094
:101B5000354395402B4302E08D7995402B434365F7
:101B6000164DA84209D1C56E25402B460D7A4E7AF6
:101B70007600354395402B43C3663D68FF26083603
:101B8000B5433D603D684E8835433D604E89019DBB
:101B90002E608E89009D2E60084DA84208D10D79D7
:101BA0004E79760035439540066D3543056504E072
:101BB000056D0E79964035430565FCBD00C00240B9
:101BC000F3B581B00C466078002801D1012500E012
:101BD0000025012109046068884201D1460001E026
:101BE000012636042078002801D1012700E00027D3
:101BF000207B0090627821786368019800F0C2FB36
:101C00002178A2680198FFF73BFE207B33462A46E5
:101C100039460090019800F0B5FB3946A26801985A
:101C2000FFF72EFEFEBD30B58D00044690342B1913
:101C30001A6030BD4B88882213500B8884221350C1
:101C4000026803231B049A430260026801231B06F7
:101C50009A43026002688B681A430260044A904209
:101C600002D10B798C2213508A8982677047000059
:101C700000C002400EB500200090019002900121AA
:101C8000890301988843401801900901009888430E
:101C90004018009089100098884340180090012354
:101CA000684607C8FEF7D0FE012216490220FEF75B
:101CB00003FE01221349891C0020FEF7FDFD0122CD
:101CC00010491148FEF7F2FF01220E49891C0F4806
:101CD000FEF7ECFF00220B490B48FEF7D5FE002271
:101CE0000849891C0948FEF7CFFE0122054906482C
:101CF000FEF72EFF01220349891C0448FEF728FF46
:101D00000EBD00000104000000400B4000000B402D
:101D100097480088FF21F531884211DA94480088FD
:101D200000280DD093489449086094490860002029
:101D30009149C8619149C86101209149087015E134
:101D40008B480088FF21F5318842F8DB8C48007809
:101D5000012811D18B48007800280DD18A48864986
:101D600008608649086089488349C8618349C86119
:101D70000020834908705CE081480078012814D174
:101D8000804900200856401C00280ED17E487A4920
:101D900008607A49086000207749C8617C48774923
:101DA000C86100207649087043E075480078012832
:101DB00011D17448007801280DD173486E4908602C
:101DC0006E49086072486C49C86100206B49C8615F
:101DD0006B4908702DE06A480078012814D16949E0
:101DE00000200856801C00280ED167486249086010
:101DF0006249086000206049C86165485F49C86160
:101E000000205F49087014E05D480078012810D177
:101E10005C48007802280CD15B4857490860574954
:101E200008605B485449C86100205449C86154495E
:101E300008705848007800281AD1574800780028C0
:101E400016D156480078012812D15548007800284C
:101E50000ED15448007800280AD1534846490860FA
:101E60004649086049484449C8614449C8617DE021
:101E70004848007800281BD147480078002817D12F
:101E800046480078002813D14548007801280FD132
:101E90004448007800280BD1434837490860374947
:101EA00008603B483449C86100203449C8615DE09E
:101EB0003848007801281BD137480078002817D10E
:101EC00036480078002813D13548007800280FD113
:101ED0003448007800280BD1334827490860274947
:101EE000086000202449C86129482449C8613DE0B0
:101EF0002848007800281AD127480078002816D1F1
:101F000026480078002812D12548007800280ED1F4
:101F10002448007801280AD1234817490860174946
:101F200008601549C86100201449C8611EE01948BD
:101F3000007800281AD118480078012816D11748CF
:101F40000078002812D11648007800280ED11548D4
:101F5000007800280AD1144807490860074908603A
:101F600000200549C86110480449C8617047000055
:101F70001E00002000008C42A4000020E800002089
:101F8000780000207A0000200000B44200004041A8
:101F900000007041720000207300002074000020D7
:101FA00070000020710000200000504210B5012197
:101FB00089022A48FEF793FE294908700121274823
:101FC000FEF78DFE27490870012189022648FEF799
:101FD00086FE2649087001212348FEF780FE244929
:101FE000087002212048FEF77AFE224908701C483A
:101FF0000078012803D1801E1F4908701CE01B488F
:102000000078012803D1801E1B49087014E0154890
:102010000078012803D10020174908700CE014480B
:102020000078012802D11449087005E011480078B1
:10203000012801D11049087010480088FF21F531AE
:1020400088420ADA0D480088002806D00A49002094
:1020500008560B490870FEF7D5FE10BD00400B4036
:10206000730000207400002000000B40720000206C
:102070007100002070000020790000201E00002068
:102080007A00002010B52021480600F05FF80028F3
:102090000CD00120800700F0B3F804460448027811
:1020A0000078401C024B18700248845410BD000098
:1020B0001C0000201900002000B587B0002001900E
:1020C00002900390012189030298884340180290EE
:1020D00089110298884340180290012301A807C87B
:1020E000FEF7B2FC0622FF2101310020FEF7E4FBDF
:1020F000062202210120FEF7DFFB4B20C0010490E5
:10210000FF210131684681820021C1820183418320
:1021100004A90120800700F023F801220021900784
:1021200000F074F801221146900700F06FF81720B4
:1021300001218140044A116000BF0122114690072D
:1021400000F054F807B000BD00E100E0024610695D
:102150000840002801D0012070470020FCE7000063
:1021600070B504460D4660681C490840E98808437C
:10217000A9880843298908436989084360600120C8
:102180008007844207D11820FEF742FC06462968E2
:10219000FDF7F2FF60621248844207D11A20FEF771
:1021A00037FC06462968FDF7E7FF60620D48844268
:1021B00007D11C20FEF72CFC06462968FDF7DCFF42
:1021C00060620948844207D11E20FEF721FC0646C2
:1021D0002968FDF7D1FF606270BD0000FCE0FFFFE1
:1021E000000004400010004000100440002A03D00A
:1021F000C3680B43C36002E0C3688B43C36070478E
:102200000146086880B270470160704710B5002A27
:1022100005D0436810248C402343436004E04368A6
:1022200010248C40A343436010BD000010B5184833
:102230000068C8280FD91748007800280BD1164825
:1022400001780120800700F02FF801201149087063
:1022500000200F4908600E480068C82817D90D48AB
:102260000078012813D100200A4908700849086045
:102270000A4800780002094949784018084908804E
:10228000064880782D380749087000F0D7F810BD4F
:102290006400002018000020200000201900002009
:1022A0001E0000201D00002070B504460D46294682
:1022B0002046FFF7A9FF00BF80212046FFF746FF19
:1022C0000028F9D070BD0000F8B505462C46002264
:1022D0000121C9031348FEF70DFD00261EE0274625
:1022E00080200740802F05D1012210210E48FEF7E3
:1022F00001FD04E0002210210B48FEF7FBFC600604
:10230000040E0122D1030748FEF7F4FC002201214C
:10231000C9030448FEF7EEFC701CC6B2082EDEDBD3
:10232000F8BD000000200B4000400B4010B50446F3
:10233000FEF726FD7820FFF7C7FFFEF753FD0020CC
:10234000FFF7C2FFFEF74EFD2046FFF7BDFFFEF789
:1023500049FDFEF731FD10BD10B50446FEF710FD36
:102360007820FFF7B1FFFEF73DFD4020FFF7ACFFFF
:10237000FEF738FD2046FFF7A7FFFEF733FDFEF717
:102380001BFD10BDFFB58E00054620357419056D87
:102390004F000126BE40B54305652268436D0C4DD4
:1023A0002A40099E039D35432A4322604E000125A1
:1023B000B5401E46AE4333464E00029DB5402B430A
:1023C0004365056D4F000126BE4035430565FFBDE1
:1023D000F0FFFCFF2021020C01D010211046020A60
:1023E00001D010460839020901D01046091F8208A1
:1023F00001D01046891E420801D0881E7047081A75
:10240000704730B47446641E2578641CAB4204D314
:10241000635D5B00E31830BC18471D46F8E702E037
:1024200008C8121F08C1002AFAD17047704700205F
:1024300001E001C1121F002AFBD17047002000BF3C
:1024400006E00021044A1154044A1170411CC8B22C
:102450000328F6DB70470000190000201C00002054
:1024600010B52D4800683C2854D92C48406B2B49A6
:1024700008642B48406B2A4908642A488068274929
:1024800008622848C068264908622449C869FFF7DD
:1024900021F92349C869FFF71DF92048416B2248FB
:1024A0000068FDF77FFE204908601D48416B1F480A
:1024B0000068FDF777FE1D4908601D491A4800684D
:1024C000FEF70AF902D21A48174908601949164856
:1024D0000068FEF7F7F802D216481349086014495D
:1024E00012480068FEF7F8F802D211480F49086058
:1024F00010490E480068FEF7E5F802D20D480B4976
:1025000008600A48016808480068FEF7A7FD002037
:102510000149086010BD00005C000020A4000020FC
:10252000E800002080000020080000200C000020AF
:1025300000A08C450000484310B5044603E07D2010
:10254000C00000F007F82046611E8CB20028F6D1CA
:1025500010BD000070B504460420C043FFF742F8E8
:1025600013490968C8081349FDF706FE0646FFF738
:1025700075F80020FFF760F80020FFF745F801200C
:10258000FFF742F8002508E000BF0B480069012171
:10259000090408400028F8D06D1CA542F4D301209E
:1025A000C043FFF731F80020FFF72EF870BD0000A0
:1025B0007C00002040420F0000E000E0F8B5164823
:1025C0008068154908610846C06848610846016886
:1025D0001248FEF77BFC10498860084641681048A5
:1025E000FEF774FC0C49C8600020086048600A4689
:1025F000D1689068FDF7D6FD0090FEF733F80446E9
:10260000002201239B07FDF77DFF0646FEF73EF8FB
:1026100001498861F8BD00008000002034000020DE
:102620004400002010B5064800683C2806D900F098
:1026300009F8FFF7C3FF00200149086010BD000042
:102640006000002010B50020FEF780FF00B21149A5
:1026500008800120FEF77AFF00B20F4908800D497B
:102660000020085EFDF7C6FF04460C4801682046BE
:10267000FDF798FD0949086007490020085EFDF74D
:10268000B9FF0446054841682046FDF78BFD034924
:10269000486010BD30000020320000208000002083
:1026A00008B5FEF753FCFEF757FBFFF705FDFFF7F4
:1026B0000DF9FEF785FAFEF76BFDFEF7B5FBFFF7A8
:1026C000D9FAFEF7C3FEFEF74DFA102330A200211F
:1026D0000846FEF790FE102330A202210020FEF7EC
:1026E0008AFE10232FA204210020FEF784FE10236F
:1026F0002EA206210020FEF77EFEFFF79FF945E09F
:1027000000F070F82B48007801280AD1FFF78EFD01
:10271000FFF74CFCFFF7FCFAFFF784FFFFF7A0FE82
:1027200008E000202449C8612449C861FFF77AFF06
:10273000FFF796FE10200423009021480288002114
:102740005820FEF70FFE102004230090194802784D
:1027500002214020FEF706FE1A498868FDF76EFF49
:102760000446102005232246042100904020FEF755
:10277000F9FD1449C868FDF761FF044610200523E0
:102780002246062100904020FEF7ECFDB8E700004D
:102790002064697374616E63653A0000207461722D
:1027A000523A000020454C3A000000002045523AC1
:1027B0000000000022000020A4000020E80000200B
:1027C0001E0000208000002010B50246012002E01B
:1027D0000346534318460B464C1EE1B2002BF7D17B
:1027E00010BD000010B50121C9020E48FEF777FAAE
:1027F000002815D100BF0121C9020A48FEF76FFA6F
:102800000028F8D00A20FFF797FE07480078002834
:1028100003D101200449087002E000200249087039
:1028200010BD000000000B4022000020000000004E
:1028300000000000002F0000000007000700001447
:102840007F147F1400242A7F2A1200626408132355
:1028500000364955225000000503000000001C22EC
:102860004100000041221C000014083E081400082A
:10287000083E0808000000A06000000808080808DA
:10288000000060600000002010080402003E514972
:10289000453E0000427F4000004261514946002110
:1028A00041454B31001814127F100027454545392A
:1028B000003C4A4949300001710905030036494985
:1028C000493600064949291E00003636000000003E
:1028D0005636000000081422410000141414141489
:1028E0000000412214080002015109060032495932
:1028F000513E007C1211127C007F49494936003E4E
:1029000041414122007F4141221C007F4949494108
:10291000007F09090901003E4149497A007F080802
:10292000087F0000417F4100002040413F01007FBF
:1029300008142241007F40404040007F020C027F8B
:10294000007F0408107F003E4141413E007F09099D
:102950000906003E4151215E007F091929460046C3
:10296000494949310001017F0101003F4040403F9A
:10297000001F2040201F003F4038403F00631408E4
:1029800014630007087008070061514945430000BF
:102990007F41410000552A552A55000041417F00E2
:1029A00000040201020400404040404000000102D7
:1029B0000400002054545478007F484444380038C0
:1029C0004444442000384444487F00385454541848
:1029D00000087E0901020018A4A4A47C007F08045A
:1029E00004780000447D4000004080847D00007F2A
:1029F000102844000000417F4000007C0418047847
:102A0000007C0804047800384444443800FC242442
:102A100024180018242418FC007C0804040800482A
:102A20005454542000043F444020003C4040207C4B
:102A3000001C2040201C003C4030403C004428103A
:102A40002844001CA0A0A07C004464544C441414EE
:102A50001414141400000000000000000000000026
:102A600000000000000000F800000000000000333B
:102A70003000000000100C06100C060000000000E2
:102A80000000000040C07840C0784000043F0404CB
:102A90003F040400007088FC08300000001820FF8C
:102AA000211E0000F008F000E018000000211C03C7
:102AB0001E211E0000F00888700000001E21232443
:102AC0001927211010160E00000000000000000061
:102AD00000000000000000E01804020000000007F1
:102AE0001820400000020418E000000000402018F8
:102AF00007000000404080F0804040000202010FCB
:102B000001020200000000F0000000000101011FAE
:102B100001010100000000000000000080B0700012
:102B200000000000000000000000000000010101A2
:102B30000101010100000000000000000030300031
:102B4000000000000000000080601804006018060B
:102B50000100000000E010080810E000000F102045
:102B600020100F00001010F8000000000020203F8F
:102B70002020000000700808088870000030282419
:102B800022213000003008888848300000182020BA
:102B900020110E000000C02010F8000000070424DF
:102BA000243F240000F80888880808000019212024
:102BB00020110E0000E0108888180000000F11207E
:102BC00020110E0000380808C83808000000003F37
:102BD000000000000070880808887000001C222196
:102BE00021221C0000E010080810E0000000312243
:102BF00022110F00000000C0C000000000000030E3
:102C00003000000000000080000000000000806034
:102C100000000000000080402010080000010204B5
:102C2000081020004040404040404000040404049C
:102C30000404040000081020408000000020100858
:102C400004020100007048080808F000000000308D
:102C500036010000C030C828E810E000071827241B
:102C600023140B000000C038E0000000203C2302C9
:102C70000227382008F8888888700000203F20202C
:102C800020110E00C030080808083800071820205E
:102C90002010080008F808080810E000203F202055
:102CA00020100F0008F88888E8081000203F202036
:102CB0002320180008F88888E8081000203F20002A
:102CC00003000000C0300808083800000718202062
:102CD000221E020008F808000008F808203F210121
:102CE00001213F20000808F8080800000020203FCC
:102CF0002020000000000808F8080800C08080803C
:102D00007F00000008F888C028180800203F200134
:102D10002638200008F8080000000000203F20208E
:102D20002020300008F8F800F8F80800203F003FA5
:102D3000003F200008F830C00008F808203F2000BD
:102D400007183F00E01008080810E0000F102020CE
:102D500020100F0008F808080808F000203F2101A3
:102D600001010000E01008080810E0000F182424FA
:102D700038504F0008F8888888887000203F20006D
:102D8000030C302000708808080838000038202123
:102D900021221C00180808F8080818000000203F2D
:102DA0002000000008F808000008F808001F202094
:102DB00020201F000878880000C838080000073865
:102DC0000E010000F80800F80008F800033C0700B6
:102DD000073C0300081868808068180820302C031E
:102DE000032C30200838C800C83808000000203FF5
:102DF0002000000010080808C838080020382621E4
:102E000020201800000000FE020202000000007FE7
:102E100040404000000C30C00000000000000001F5
:102E20000638C00000020202FE00000000404040E0
:102E30007F00000000000402020204000000000005
:102E40000000000000000000000000008080808082
:102E5000808080800002020400000000000000006A
:102E60000000000000008080808000000019242203
:102E700022223F2008F8008080000000003F11203F
:102E800020110E000000008080800000000E112044
:102E900020201100000000808088F800000E112022
:102EA00020103F200000808080800000001F222230
:102EB00022221300008080F0888888180020203F9C
:102EC000202000000000808080808000006B9494AF
:102ED0009493600008F8008080800000203F21006B
:102EE00000203F2000809898000000000020203F34
:102EF00020200000000000809898000000C0808022
:102F0000807F000008F8000080808000203F2402BD
:102F10002D302000000808F8000000000020203FAD
:102F2000202000008080808080808000203F200062
:102F30003F20003F8080008080800000203F2100F3
:102F400000203F200000808080800000001F2020A3
:102F500020201F00808000808000000080FFA120D2
:102F600020110E000000008080808000000E1120E3
:102F700020A0FF80808080008080800020203F2172
:102F80002000010000008080808080000033242425
:102F900024241900008080E0808000000000001FD1
:102FA000202000008080000000808000001F202082
:102FB00020103F20808080000080808000010E3043
:102FC0000806010080800080008080800F300C03A4
:102FD0000C300F0000808000808080000020312EA7
:102FE0000E312000808080000080808080818E7083
:102FF0001806010000808080808080000021302C35
:103000002221300000000000807C0202000000004D
:10301000003F404000000000FF00000000000000F2
:10302000FF0000000002027C800000000040403FE2
:10303000000000000006010102020404000000007C
:10304000000000006430000000000020800000004C
:103050001E240000E430000080000020F002000088
:103060002E2400000000000000000000000000000E
:103070000000000000000000000000000000000050
:10308000000000005550000000000000000000009B
:1030900000000000000000006666663F00000000BF
:1030A00000000000000000006666663F00000000AF
:1030B0000000000000000000000000000000000010
:1030C0000000000000000000000000000000000000
:1030D00000000000000000000000000000000000F0
:0430E000006CDC02A2
:040000050000016591
:00000001FF
