:020000040000FA
:1000000070030020C1000000691000006D0D0000A9
:10001000FFFFFFFFFFFFFFFFFFFFFFFFFFFFFFFFF0
:10002000FFFFFFFFFFFFFFFFFFFFFFFFCD150000FA
:10003000FFFFFFFFFFFFFFFF21140000DF1600009E
:1000400035010000350100003501000035010000D8
:1000500035010000350100003501000035010000C8
:1000600035010000FFFFFFFF35010000290D0000F2
:10007000FD0C00007515000035010000FFFFFFFFBB
:10008000FFFFFFFF350100003501000035010000D2
:10009000350100003501000035010000791E000027
:1000A0003501000035010000350100003501000078
:1000B0003501000035010000350100003501000068
:1000C0001D4880471D4880471D4800471D4801695D
:1000D000002908D14169002905D18169002902D18F
:1000E000C169002909D01848C1680901090D002912
:1000F0000ED005290CD006290AD0BFF34F8F134824
:100100001349016013491248C860BFF34F8FFEE7DF
:100110000E4801680E48884200D070470E480F49CB
:1001200001600A480E4901607047FEE7FEE7FEE7FE
:10013000FEE7FEE7FEE70000CD000000E11600004C
:100140006501000000030840800108400000002015
:100150000400FA0500ED00E0008108400100000005
:10016000000000000348854600F094FB004800476B
:100170001D2400007003002030B50B46014600200E
:100180002022012409E00D46D5409D4205D31D469D
:100190009540491B2546954040191546521E002D95
:1001A000F1DC30BDF8B502464A40D40F42004B00A6
:1001B00052085B089A4202D20246084611464A009B
:1001C00023D0C30D4A00DDB2120EAD1A202D35DA50
:1001D00049020126490AF6058A19002C00D052422C
:1001E00020214F1B1146B9402A411018C20D9A42D6
:1001F00021D0002C17D0012D08DCDA05801AD20F8F
:100200008019D207DBB200F0ADFAF8BDDA05801A2A
:10021000012340001B06C01880185A428018CA0FDC
:100220001043490007E04908C2071143DA05801A64
:1002300080194008801800F08DFAF8BD6100012295
:10024000511A001BF7E70122D2075140AAE7012209
:10025000D2075040A6E7024670B54A40D30FDB07ED
:1002600040002DD04A002AD0010E140E00021202C6
:100270000919400A520A8418E50104465443000A49
:10028000120A2E045043A4194219200CC543AA187F
:10029000120C0125AD03521C521912047F3924049B
:1002A00000D0521C104301D44000491EC2B20C06BB
:1002B000C0092018401C4008802A02D003E000201A
:1002C00070BD40084000002900DA0020184370BDCE
:1002D000F0B507460846584087B0C00F0490480064
:1002E0000E46590040084908BC1A884105D23846D4
:1002F00031461E4617460B4602465800400810433A
:100300004CD0300D039040055900400D490D05902B
:10031000401A0290402872DA18030121000B0905E7
:100320000843019004980092002805D00199524298
:100330000020884100920190029840210A1A0199F8
:10034000009800F0D3F905460C466B4607CB00F049
:10035000EEF9C0197141039A0E0D0023D7175640CC
:100360001A467A40164344D0049A002A2DD0029AA5
:10037000012A039A15DC1205C01A9141012636059F
:10038000001C7141D20F059ED20700930192029684
:100390002A46234600F02CFA07B0F0BD3846314615
:1003A000FAE71605224A0F46B218C01AB7410121D2
:1003B0000905001C4F4100187F411146181879416A
:1003C000E20F10436D19644113E0E2076D08154315
:1003D0006408C2071443039A01261205C01A91410A
:1003E0003605001C7141CE07400830434908C0184B
:1003F00051412A46234600F0EEF9CDE7FFE7049885
:1004000001224000C117121A00238B410498314683
:10041000C417381AA141EEE730B40124E407634061
:1004200030BC55E730B40124E407614030BC4FE7ED
:100430000000E0FFF0B51FB488B00B9909980024C4
:1004400048400999C00F490049080991C0070B9914
:100450000090490049080B9109990898A64608435D
:100460001CD00B990A98084318D009980124400021
:10047000420D4800410D099824050003000B20435C
:1004800009900B980003000B20430B9050181C4957
:100490004018002201901446104605E00020014655
:1004A0000DB0F0BD032801DA034600E003239C46AB
:1004B000C11A0AAE0AE05F0008ADED5B4F00F75BC2
:1004C0007D430027AA187C41491C5B1E6145F2DD73
:1004D000410004AB5A522104120C0A43240C401C64
:1004E0000828DFDB01980290009970460191009086
:1004F000059B049A0799069800F07AF9D0E7000066
:100500000DFCFFFFF0B50C465C4085B0E40FE4073E
:1005100003944C000026640859009446490802469A
:100520000296224321D062460A431ED06200570D34
:100530004A000E032303550D012402462C492405CD
:10054000781B1B0B360B4018234326436146009053
:100550001C46501AB44103D30098401C009002E09E
:10056000921800985B41002803DA0020014605B08C
:10057000F0BD0020012109050746864611E06446CA
:100580001D46141BB54106D36546521BB341744644
:1005900007430C43A646CD07400849082843921854
:1005A0005B4105460D43EAD11046184313D060461F
:1005B000194650407140084306D06046101AB341B6
:1005C00006D20122002306E000220123DB0702E01D
:1005D0000122D2435310009874460105381C614132
:1005E000029C039D0019694100F0F5F8BFE7000087
:1005F000FD030000C217C10F504010B54018CA07D4
:100600009623002100F0AEF810BDC20F4100400259
:100610000123400ADB05D207090EC0187F2901DA41
:1006200000207047962903DC9623591AC84001E040
:1006300096398840002AF4D0404270474100400279
:100640000122400AD205090E80187F2901DA002014
:100650007047962903DC9622511AC8407047963994
:1006600088407047C20FD207400040080BD0C10D30
:100670000723DB01C91840020905400A1143C208DB
:10068000400711437047002001467047CB0FDB073E
:10069000490010B5490802460A4307D00A0D07244D
:1006A0000903E401090B121B002A01DC002010BD24
:1006B000C900440F0C43C100E018D205801800F0B7
:1006C00049F810BD0122D207002800DB101A0029CA
:1006D00000DB511A814270470122D207002800DB5B
:1006E000101A002900DB511A8842704710B5202AE1
:1006F00004DB0146203A9140002010BD91402023A8
:100700009C1A0346E3401943904010BD10B5202ABF
:1007100004DB0846203AD040002110BD0B46D340F0
:10072000D0402024A21A91400843194610BD10B5AC
:10073000202A06DBCB170846203A1041C1170B438D
:1007400006E00B461341D0402024A21A91400843F2
:10075000194610BD002904DA401C490001D14008A7
:100760004000704770B40024050C05D1102400042B
:1007700002D1002921D01124050E01D10002083434
:10078000050F01D10001241D850F01D18000A41C9B
:10079000002801DB4000641C002908D020252E1B06
:1007A0000D46F540A14000D0012129430843010630
:1007B0001B1B000ADB1D02D5002070BC7047DB0547
:1007C000181880180029F8DA401C4900F5D170BCCF
:1007D00040084000704710B5002B08DA0024401C88
:1007E000614192185B411A4301D14008400010BD9D
:1007F000F0B51FB482B005460C0003D0084601F0E6
:1008000093FC02E001F090FC20300246009021466B
:100810002846FFF76BFF049B059A04460F461843D2
:100820001143084314D0184610431BD000984021B0
:100830000A1A18460599FFF769FF05460E46009A01
:1008400005990498FFF752FF084305D0012004E002
:100850002046394607B0F0BD0020C11705430E43BE
:100860002C43374300990E986305401A7905E40A32
:1008700000220C43FD0A0A3002D500200146E9E7B8
:100880000105101969410C9C0D9D00196941FFF784
:10089000A2FFDFE7064C0125064E05E0E36807CC22
:1008A0002B430C3C98471034B442F7D3FFF75EFC5F
:1008B0003C2E00005C2E0000F7B50B46009DED00BD
:1008C000154EAA19002000240027002120E0002452
:1008D0000027FF258D401D40002D17D000200FE080
:1008E0001D46C54001268E403540002D07D08600AC
:1008F0000F25B5402C438600029DB5402F43401C78
:100900000828EDD31568A5433D431560121D083135
:100910000829DCDDFEBD00002020024070B5044641
:100920001F48406B4607760F00F03EF8206033000A
:1009300001F011FC081605080B16160E1216206899
:10094000606010E0174860600DE0164860600AE0E3
:100950000120C003606006E07D200002606002E0CC
:100960000020606000BF00BF0D48056A052D02D35E
:100970006068400901E06068E840A0600848806A5B
:10098000072109040840050C072D04D10321A068A4
:10099000FFF7F2FB01E0A068E840E06070BD0000F6
:1009A0000080084000127A00F0B517480068FF2761
:1009B00001373840040A1448C069C50F124840681E
:1009C0007F003840460A002E01D10020F0BD002CE7
:1009D00001D10E4800E00D480346012D01D1184613
:1009E000F4E7094880690F27FF053840C10D002949
:1009F00000D110210448806903277F053840420D4B
:100A000018464843D040E1E70080084000127A00D1
:100A10007FB50446601180000A49461800252E2C37
:100A200000D10225E406E40E0321A140306808400D
:100A3000E04045196846FFF771FF0298E84004B0AE
:100A400070BD0000388008403FB50E4C606AE16A16
:100A5000226B0446009DAC4320460C46019DAC43EE
:100A600021461446029DAC432246002B05D0009C33
:100A70002043019C2143029C2243024C6062E162BC
:100A800022633FBD0080084070B505460C462046F5
:100A900000F012FD70BD002A03D003680B43036011
:100AA00002E003688B430360704700000EB500202E
:100AB0000090019002900121890301988843401819
:100AC000019049010098884340180090012368462E
:100AD00007C8FFF7B9FF012202210320FFF7ECFE50
:100AE00001220221064800F0BBF80022022104483E
:100AF000FFF7D1FF01220221014800F031F80EBDBD
:100B000000600B400EB50020009001900290012182
:100B1000890301988843401801900901009888438F
:100B2000401800900123684607C8FFF78DFF012297
:100B3000D1020220FFF7C0FE0122D102074800F0D7
:100B40008FF800220121C902044800F0D1F80122E7
:100B5000D1020248FFF79FFF0EBD000000400B408E
:100B6000002A03D043680B43436002E043688B4391
:100B7000436070470EB50020009001900290012163
:100B800089030198884340180190890000988843A0
:100B90004018009049000098884340180090490090
:100BA00000988843401800900123684607C8FFF763
:100BB0004BFF0122D1030020FFF77EFE0122A82176
:100BC0001046FFF779FE012221490220FFF774FE4B
:100BD00000220121C9031F4800F042F80022A82189
:100BE0001D4800F03DF8002219491C4800F038F873
:100BF00000220121C9031748FFF74DFF0022A82159
:100C00001548FFF748FF002211491448FFF743FF3A
:100C10000122D1030F48FFF73EFF0122A8210E4811
:100C2000FFF739FF01220A490C48FFF734FF012280
:100C3000D1030848FFF794FF0122A8210648FFF7D7
:100C40008FFF012202490548FFF78AFF0EBD000011
:100C50000883000000000B4000200B4000400B40C8
:100C6000002A06D183680B438360C3688B43C3604B
:100C70000EE0012A06D1C3680B43C36083688B432F
:100C8000836005E083688B438360C3688B43C360E4
:100C9000704700000EB500200090019002900121E5
:100CA00089030198884340180190090100988843FE
:100CB000401800900123684607C8FFF7C5FE0122CF
:100CC00022210220FFF7F8FD012222210648FFF72A
:100CD000C7FF00222221044800F00AF80122222145
:100CE0000148FFF7D8FE0EBD00400B40416270473F
:100CF000002A01D0416200E08162704710B50421F2
:100D0000074800F0DDFE002808D00421044800F068
:100D100082FE04480068401C0249086010BD0000C3
:100D200000E006402800002010B50421074800F02C
:100D3000C7FE002808D00421044800F06CFE0448D7
:100D40000068401C0249086010BD000000F0064029
:100D50002C00002010B5FFF7D5FEFFF7A7FE0221FB
:100D60000148FFF7C3FF10BD00600B4000BF024801
:100D700000680028FBD070470000002010B5012259
:100D8000D1030A48FFF7B4FF012210210848FFF7FA
:100D9000AFFF002210210648FFF7AAFF0022012121
:100DA000C9030248FFF7A4FF10BD000000200B405C
:100DB00000400B4010B50122D1030748FFF798FF10
:100DC000002210210548FFF793FF0122102103485C
:100DD000FFF78EFF10BD000000200B4000400B40CD
:100DE00010B50122D1030548FFF782FF002201213F
:100DF000C9030248FFF77CFF10BD000000200B4034
:100E00000EB5002000900190029001218903019805
:100E1000884340180190C90000988843401800900A
:100E2000890000988843401800900123684607C84D
:100E3000FFF70AFE0122FF2141311046FFF73CFD7A
:100E4000012205210320FFF737FD0122FF21413157
:100E50001148FFF705FF012205211048FFF700FFA9
:100E60000122FF2141310C48FFF715FE0122052127
:100E70000B48FFF710FE0122FF2141310648FFF722
:100E80006FFE012205210648FFF76AFE002240217D
:100E90000148FFF72DFF0EBD00200B4000400B4026
:100EA00000600B40F0B58BB004460F466760A06849
:100EB000E060E068FFF7D6FB039102902068FFF73F
:100EC000D1FB05460022104BFFF7ACFA01910090D0
:100ED000039B029AFFF7AEFA0791069061682068BB
:100EE000FFF7B9F90546FFF7BDFB05910490079B95
:100EF000069AFFF7EDF909910890FFF7C7FBA0608C
:100F0000A0680BB0F0BD00000000F03F002904D045
:100F1000026F10231A43026703E0026F10239A4303
:100F20000267704700B58BB00020009001900290DE
:100F300001218903019888434018019002984008D4
:100F40004000401C02900123684607C8FFF77CFD63
:100F5000042211030020FFF7AFFC04220121084600
:100F6000FFF7AAFC042211460120FFF7A5FC04228A
:100F700008210320FFF7A0FC012222210220FFF715
:100F80009BFC2A496846C1830021818308A801701F
:100F900000200990FF2101316846018507A92448F6
:100FA00000F046FE0121224800F077FC002168464F
:100FB00001730621C1810121017400218174017531
:100FC0004B218901C1820021018303A9184800F047
:100FD00091FD0121684601730021C18201218174C4
:100FE00003A9134800F086FD0221684601734B21D6
:100FF0008901C1820021817403A90D4800F07AFDA6
:101000000321684601730021C1820121817403A973
:10101000074800F06FFD0121054800F001FD0121A6
:101020000348FFF773FF0BB000BD0000BF120000C4
:1010300000C0024070B504460D46094804600948E6
:10104000056007480068FFF7E0FA064600F00AFB73
:1010500004480068FFF7D9FA064600F01DFB70BD92
:10106000540000205800002070470000C206D20E35
:1010700001219140014A11607047000000E100E049
:1010800070B5002418E02046B030002100F0BBF914
:101090000021022000F0B7F90021102000F0B3F980
:1010A000002505E00121002000F0ADF9681CC5B263
:1010B000802DF7DB601CC4B2082CE4DB70BD00009F
:1010C0000EB5002000900190029001218903019843
:1010D000884340180190C900009888434018009048
:1010E000490000988843401800900123684607C8CB
:1010F000FFF7AAFC0122D1031046FFF7DDFB012216
:1011000010210220FFF7D8FB00220121C903144857
:10111000FFF7A6FD002210211248FFF7A1FD0022D3
:101120000121C9030E48FFF7B6FC002210210D482B
:10113000FFF7B1FC0122D1030948FFF7ACFC012203
:1011400010210848FFF7A7FC0122D1030448FFF74C
:1011500007FD012210210348FFF702FD0EBD00002C
:1011600000200B4000400B4010B5FFF7A9FF012203
:1011700010213D48FFF7BCFD0122D1033B48FFF79A
:10118000B7FD1920400101F087F80021AE2000F0E2
:101190003AF90021022000F036F90021102000F079
:1011A00032F90021402000F02EF90021B02000F09B
:1011B0002AF90021812000F026F90021FF2000F00B
:1011C00022F90021A12000F01EF90021A62000F044
:1011D0001AF90021A82000F016F900213F2000F0A4
:1011E00012F90021C82000F00EF90021D32000F0F0
:1011F0000AF90021084600F006F90021D52000F088
:1012000002F90021802000F0FEF80021D82000F033
:10121000FAF80021052000F0F6F80021D92000F0AE
:10122000F2F80021F12000F0EEF80021DA2000F0C1
:10123000EAF80021122000F0E6F80021DB2000F09F
:10124000E2F80021302000F0DEF800218D2000F0CF
:10125000DAF80021142000F0D6F80021AF2000F0C9
:10126000D2F8FFF70DFF10BD00400B4000200B40EF
:1012700070B504460D462846B030002100F0C3F892
:10128000A11CF0221140091108461030002100F085
:10129000BAF8A11C0807000F002100F0B4F870BDD7
:1012A000FFB581B007460D4600260024039820387C
:1012B000C6B27F2F02DD0027A81CC5B204981028F3
:1012C00024D129463846FFF7D3FF002408E0310136
:1012D0000919184A505C012100F095F8601CC4B24D
:1012E000082CF4DB681CC1B23846FFF7C1FF0024AC
:1012F00009E03101091908310E4A505C012100F062
:1013000082F8601CC4B2082CF3DB11E02946384691
:10131000FFF7AEFF002409E006217143064A891851
:10132000085D012100F06FF8601CC4B2062CF3DBED
:1013300005B0F0BD4C28000024260000FFB583B0A6
:101340001E460C9C0020029000253CE0701B401EB5
:10135000C1B20A2001F0BCF8014600900598FEF7E2
:101360000BFF0A210190FEF707FF0F4602980028A5
:1013700015D1701EA84212DD002F0ED1E00F00190A
:1013800040106843019403994018C0B223462022BC
:1013900000900499FFF784FF13E001200290E00F12
:1013A000001940106843019403994018C0B200909E
:1013B00038463030C2B2234604990098FFF770FFD8
:1013C00000BF681CC5B2B542C0DB07B0F0BDFFB5B9
:1013D00081B004460F46154600260FE0AA5D394647
:1013E0002046049BFFF75CFF20460830C4B2782CEF
:1013F00002DD0024B81CC7B2701CC6B2A85D00286C
:10140000ECD105B0F0BD70B504460D46002D03D0FB
:10141000E0B200F04BFE02E0E0B200F031FE70BD41
:10142000704700001848194908607F20C0054860CF
:1014300088601748C86100204863086415488863BD
:101440001548C8638120C005144908607F20C00585
:10145000486088601248C8610020486308640D48ED
:1014600088630D48C8630F480F4908600020486032
:101470000E4888600020C861486308640C4888638F
:101480000C48C863704700000000B040A400002072
:101490000000504200A08C4500A08CC5E800002050
:1014A000000048420000A0402C0100200000C04085
:1014B00000007041000070C1F8B50446216AE0697F
:1014C000FEF7C1FEE060E168606AFEF76BFE6062F5
:1014D0002169E068FEF7B7FEA062E16A606AFFF783
:1014E000FBF801D2E06A6062216B606AFFF7EAF8FC
:1014F00001D2206B6062A16AA068FEF7ACFE00908A
:10150000616A6068FEF7A7FE0646E1682068FEF79C
:10151000A2FE07463146FEF745FE05460099FEF756
:1015200041FE6063E0682061606BF8BD0146002900
:1015300002D0012910D107E00B4800680B4A106067
:101540000020094A10600BE009480068074A106053
:101550000020074A106003E00020044A106000BF2A
:1015600000BF0248006870472800002024000020C7
:101570002C00002010B5FF2101310F4800F0A0FA27
:10158000002818D0FF2101310B4800F03FFA0B482A
:101590000068401C0949086009480068401C084967
:1015A000086008480068401C064908600648006852
:1015B000401C0549086010BD004003406C0000203D
:1015C000700000205C0000206000002070470000D8
:1015D000042806D10649096904221143044A11610D
:1015E00005E00349096904229143014A11617047EA
:1015F00000E000E0002803D10021094A91610EE0DB
:10160000012806D10649096901221143044A1161E2
:1016100005E00349096949084900014A1161704719
:1016200000E000E0002806D00649096902221143C3
:10163000044A116105E00349096902229143014A04
:101640001161704700E000E0014948617047000007
:1016500000E000E010B52D2000F048FF2D2000F044
:1016600093FF10BD10B504464B2292010221094898
:1016700000F0D7FAA2B20321064800F0D2FA012204
:101680000221044800F0E8F801220321014800F09B
:10169000E3F810BD00C0024010B504464B208001A5
:1016A000001B82B20021094800F0BBFA0022012190
:1016B000064800F0B6FA01220021044800F0CCF8F8
:1016C00001221146014800F0C7F810BD00C00240D9
:1016D00070B505460C462046FFF7EEFE70BD70471C
:1016E00010205849C8600120574908605748006BCE
:1016F000402108435549086300BF554880682728A2
:10170000FBD103E001204002514948605048406845
:101710000121490208408842F4D102E000204C49EE
:1017200048604B4840680121490208400028F5D133
:10173000454908604548406A032189028843434976
:101740004862084640680121C90208433F49486091
:1017500000BF3E4880680007C00F0028F9D03B4812
:101760004068C008C000C01C3849486000BF374806
:10177000406B4007400F0328F9D136480068C00885
:10178000C000401C33490860002030490862084608
:101790004068491588432D49486008460068891506
:1017A00008432A4908600846406809150843274944
:1017B000486000BF254880684007C00F0028F9D066
:1017C0002248006B4021884320490863084600688E
:1017D000891588431D490860032000068861084672
:1017E0004068491508431949486000BF1748806898
:1017F0008007C00F0028F9D016480068C008C00054
:10180000801C14490860002010490862084640689E
:10181000C008C000401C486000BF0C48406B400737
:10182000400F0128F9D10B480068102108430949ED
:10183000086008460068012109030843054908605B
:101840007047000000810840008308400080084085
:1018500000A106400002084030B503468D001C463A
:1018600040342819002A04D0046810252C43046051
:1018700003E004681025AC43046030BD30B5034676
:101880008D001C462034281904680325AD04AC43A0
:10189000046004681443046030BD002904D0026968
:1018A00002231A43026103E0026902239A430261A0
:1018B000704700210170417001210904416000213D
:1018C00081600173704700001FB5002001900290F5
:1018D0000390012109040198884340180190891060
:1018E0000298884340180290891103988843401851
:1018F0000390012301A807C8FFF7A6F801214902B8
:101900000398884340180390012301A807C8FFF7F4
:101910009BF8042240210020FEF7CEFF0422802104
:101920000020FEF7C9FF042211460020FEF7C4FF85
:10193000042208210020FEF7BFFF0122CC213048FD
:10194000FFF70EF91321684601800021C943418049
:101950000021017100200290FF2101316846818140
:101960006946284800F064F96946274800F060F9A4
:101970006846FFF79EFF0221684601700021417012
:10198000012000040190002002906846017369461E
:101990001C4800F013F903216846017000214170D2
:1019A0006946184800F00AF90221684601700021D2
:1019B00041706946144800F001F90321684601703E
:1019C000002141706946104800F0F8F80122042116
:1019D0000C4800F085F8012204210B4800F080F843
:1019E0000C20FFF743FB0B20FFF740FB01210548CC
:1019F00000F016F80121044800F012F81FBD0000A5
:101A000000000B4000E0064000F00640CA43C267F9
:101A1000BFF34F8F7047CA43C267BFF34F8F704702
:101A2000002904D0026901231A43026103E002691C
:101A300052085200026170471FB5002001900290C9
:101A4000039001210907039888434018039001235C
:101A500001A807C8FEF7F8FF0021684601807D2134
:101A6000090114480068FEF787FB401E81B26846F2
:101A700041800021017100200290FF210131684660
:101A8000818169460C4800F0D3F8FF2101310A48F2
:101A9000FFF7BCFF0D2001218140084A116000BF03
:101AA00001221102044800F01BF801210248FFF74F
:101AB000B7FF1FBD7C0000200040034000E100E0B4
:101AC00010B50246D06F08400346506F08400446E8
:101AD000002B03D0002C01D0012010BD0020FCE71A
:101AE000002A03D0436F0B43436702E0436F8B43ED
:101AF00043677047FCB50D78AD0006464036AF1918
:101B00000D78AD005036AD1901950D78AD00103649
:101B1000AD1900950D786D062A0E274DA84203D108
:101B200003259540EC4302E001259540EC43224D0E
:101B3000A84200D100BF056D25400565436D2340D7
:101B40001D4DA84206D18D79CE797600354395405A
:101B50002B4302E08D7995402B434365164DA842F7
:101B600009D1C56E25402B460D7A4E7A7600354355
:101B700095402B43C3663D68FF260836B5433D605C
:101B80003D684E8835433D604E89019D2E608E89AB
:101B9000009D2E60084DA84208D10D794E7976003F
:101BA00035439540066D3543056504E0056D0E79B6
:101BB000964035430565FCBD00C00240F3B581B0D9
:101BC0000C466078002801D1012500E000250121A4
:101BD00009046068884201D1460001E0012636040C
:101BE0002078002801D1012700E00027207B009009
:101BF000627821786368019800F06EFA2178A26813
:101C00000198FFF73BFE207B33462A463946009079
:101C1000019800F061FA3946A2680198FFF72EFE9C
:101C2000FEBD30B58D00044690342B191A6030BDCE
:101C30004B88882213500B88842213500268032398
:101C40001B049A430260026801231B069A43026048
:101C500002688B681A430260044A904202D10B79F1
:101C60008C2213508A8982677047000000C00240AE
:101C70000EB5002000900190029001218903019887
:101C8000884340180190090100988843401800904B
:101C9000891000988843401800900123684607C8BF
:101CA000FEF7D2FE012216490220FEF705FE0122B0
:101CB0001349891C0020FEF7FFFD0122104911483D
:101CC000FEF7CEFF01220E49891C0F48FEF7C8FF20
:101CD00000220B490B48FEF7DEFE00220849891C52
:101CE0000948FEF7D8FE012205490648FEF738FFED
:101CF00001220349891C0448FEF732FF0EBD000093
:101D00000104000000400B4000000B4010B551489A
:101D10000078002812D15048007800280ED14F4892
:101D2000007801280AD14E480078002806D14D4895
:101D30000078002802D14C49086289E045480078C3
:101D4000002814D144480078002810D14348007876
:101D500000280CD142480078012808D14148007879
:101D6000002804D17F20C0053F49086270E039484F
:101D70000078012813D13848007800280FD137485F
:101D8000007800280BD136480078002807D1354864
:101D90000078002803D135483349086258E02D48BF
:101DA0000078002813D12C48007800280FD12B4848
:101DB000007800280BD12A480078002807D129484C
:101DC0000078012803D180072749086240E02148B4
:101DD0000078002814D120480078012810D11F482D
:101DE000007800280CD11E480078002808D11D4832
:101DF0000078002804D1032080071B49086227E0EF
:101E000014480078002823D11348007800281FD1F7
:101E10001248007800281BD111480078002817D1FB
:101E200010480078002813D10F49086A012189075A
:101E3000FEF748FC02D10E480B4908620A49086ABD
:101E400003218907FEF73EFC02D10A4806490862D1
:101E500010BD0000760000207700002078000020F0
:101E600074000020750000202C010020000080BFBD
:101E700000004040000040C010B52021480600F09E
:101E80005FF800280CD00120800700F0B3F804466A
:101E9000044802780078401C024B187002488454B1
:101EA00010BD00001C0000201900002000B587B004
:101EB0000020019002900390012189030298884339
:101EC000401802908911029888434018029001231B
:101ED00001A807C8FEF7B8FD0622FF210131002046
:101EE000FEF7EAFC062202210120FEF7E5FC4B206A
:101EF000C0010490FF210131684681820021C18226
:101F00000183418304A90120800700F023F8012206
:101F10000021900700F072F801221146900700F0AE
:101F20006DF8172001218140044A116000BF012291
:101F30001146900700F054F807B000BD00E100E042
:101F4000024610690840002801D001207047002097
:101F5000FCE7000070B504460D4660681C49084067
:101F6000E9880843A98808432989084369890843FF
:101F7000606001208007844207D11820FEF748FDE9
:101F800006462968FEF7F8F860621248844207D1D5
:101F90001A20FEF73DFD06462968FEF7EDF860625F
:101FA0000D48844207D11C20FEF732FD0646296801
:101FB000FEF7E2F860620948844207D11E20FEF76E
:101FC00027FD06462968FEF7D7F8606270BD00005D
:101FD000FCE0FFFF0000044000100040001004403F
:101FE000002A03D0C3680B43C36002E0C3688B437D
:101FF000C36070470146086880B2704710B5002A78
:1020000005D0436810248C402343436004E04368B8
:1020100010248C40A343436010BD0000F8B5054672
:102020002C4600220121C9031348FEF761FE002659
:102030001EE0274680200740802F05D10122102175
:102040000E48FEF755FE04E0002210210B48FEF773
:102050004FFE6006040E0122D1030748FEF748FE3A
:1020600000220121C9030448FEF742FE701CC6B2DB
:10207000082EDEDBF8BD000000200B4000400B40C6
:1020800010B50446FEF77AFE7820FFF7C7FFFEF78B
:10209000A7FE0020FFF7C2FFFEF7A2FE2046FFF7D3
:1020A000BDFFFEF79DFEFEF785FE10BD10B5044690
:1020B000FEF764FE7820FFF7B1FFFEF791FE4020A7
:1020C000FFF7ACFFFEF78CFE2046FFF7A7FFFEF7F9
:1020D00087FEFEF76FFE10BDFFB58E00054620356A
:1020E0007419056D4F000126BE40B5430565226891
:1020F000436D0C4D2A40099E039D35432A432260BF
:102100004E000125B5401E46AE4333464E00029DAB
:10211000B5402B434365056D4F000126BE40354356
:102120000565FFBDF0FFFCFF2021020C01D010214E
:102130001046020A01D010460839020901D01046A3
:10214000091F820801D01046891E420801D0881E4E
:102150007047081A704730B47446641E2578641CB2
:10216000AB4204D3635D5B00E31830BC18471D46E7
:10217000F8E702E008C8121F08C1002AFAD1704728
:102180007047002001E001C1121F002AFBD17047F7
:1021900010B538480068C8286AD9FFF7B7FD364837
:1021A000406B354908643548406B3449086434480D
:1021B0008068314908623248C06830490862314954
:1021C000C869FEF761FC2F4A516B2B4AD069FDF7B5
:1021D000E9FF2949C8612B4A516B274AD069FEF7AC
:1021E00032F82649C8612449C869FFF771FA2349C2
:1021F000C869FFF76DFA2048416B23480068FDF776
:10220000D1FF214908601D48416B20480068FDF757
:10221000C9FF1E4908601E491B480068FEF75CFAAA
:1022200002D21B48184908601A4917480068FEF78F
:1022300049FA02D217481449086015491348006842
:10224000FEF74AFA02D212481049086011490F48B5
:102250000068FEF737FA02D20E480C4908600B48B6
:10226000016809480068FEF7E5FE002001490860A2
:1022700010BD00005C000020A4000020E800002049
:10228000800000202C010020080000200C0000200D
:1022900000007A450000C84210B5044603E07D20E6
:1022A000C00000F007F82046611E8CB20028F6D16D
:1022B00010BD000070B504460420C043FFF788F944
:1022C00013490968C8081349FDF756FF0646FFF78A
:1022D000BBF90020FFF7A6F90020FFF78BF90120DA
:1022E000FFF788F9002508E000BF0B4800690121CD
:1022F000090408400028F8D06D1CA542F4D3012041
:10230000C043FFF777F90020FFF774F970BD0000B4
:102310007C00002040420F0000E000E0F8B51648C5
:102320008068154908610846C06848610846016828
:102330001248FEF7B7FD104988600846416810480A
:10234000FEF7B0FD0C49C8600020086048600A46EE
:10235000D1689068FDF726FF0090FEF783F90446E8
:10236000002201239B07FEF7CDF80646FEF78EF903
:1023700001498861F8BD0000800000203400002081
:102380004400002038B50C480068C82813D900F074
:1023900017F8FFF7C3FF09498868FEF74FF90446AD
:1023A000102005232246062100904820FEF7C6FF94
:1023B00000200149086038BD600000208000002036
:1023C00010B50020FFF7B2F800B2114908800120D3
:1023D000FFF7ACF800B20F4908800D490020085EF5
:1023E000FEF708F904460C4801682046FDF7DAFEBE
:1023F0000949086007490020085EFEF7FBF804461B
:10240000054841682046FDF7CDFE0349486010BDF0
:10241000300000203200002080000020FEF782FD06
:10242000FEF798FCFFF742FDFFF74EFAFEF7A2FB1E
:10243000FEF730FCFEF798FEFEF7E2FCFEF772FDB9
:10244000FEF788FCFFF732FDFFF73EFAFEF792FB3E
:10245000FEF78AFEFEF7D4FCFFF70AFCFEF7E2FF68
:10246000102310A200210846FEF7B1FF10230FA28F
:1024700002210020FEF7ABFF10230FA20421002051
:10248000FEF7A5FF10230FA206210020FEF79FFFF5
:10249000FFF7D2FA05E0FFF775FFFFF779FEFFF7C8
:1024A000D9F8F8E7204B65793A00000020576569B4
:1024B0006768743A000000002044697374616E63B9
:1024C000653A000020456E636F6465723A00000053
:1024D00010B50246012002E00346534318460B465E
:1024E0004C1EE1B2002BF7D110BD000070B50546BF
:1024F0000024002D04D02D2D04D05A2D06D103E048
:10250000022404E0032402E0042400E000BF00BF32
:102510001A480078012817D12820001B184909689B
:10252000884211D80020164908600122022115486E
:10253000FEF7DEFB11480078002801D1012000E001
:1025400000200E49087018E00C480078002814D1CB
:102550000B480068A04210D30020094908600022FF
:1025600002210848FEF7C4FB04480078002801D186
:10257000012000E000200149087070BD210000200A
:102580006C00002000400B4070B505460024002D73
:1025900004D02D2D04D05A2D06D103E0022404E0EE
:1025A000032402E0042400E000BF00BF1A480078C2
:1025B000012817D12820001B18490968884211D822
:1025C000002016490860012220211548FEF790FBE3
:1025D00011480078002801D1012000E000200E49B8
:1025E000087018E00C480078002814D10B480068E7
:1025F000A04210D300200949086000222021084889
:10260000FEF776FB04480078002801D1012000E0A5
:1026100000200149087070BD2200002070000020D9
:1026200000400B400000000000000000002F0000F0
:1026300000000700070000147F147F1400242A7F85
:102640002A12006264081323003649552250000004
:102650000503000000001C224100000041221C0074
:102660000014083E08140008083E0808000000A0F6
:1026700060000008080808080000606000000020F2
:1026800010080402003E5149453E0000427F4000D0
:10269000004261514946002141454B310018141256
:1026A0007F10002745454539003C4A494930000123
:1026B0007109050300364949493600064949291E72
:1026C00000003636000000005636000000081422D4
:1026D00041000014141414140000412214080002D4
:1026E0000151090600324959513E007C1211127CF9
:1026F000007F49494936003E41414122007F414126
:10270000221C007F49494941007F09090901003E17
:102710004149497A007F0808087F0000417F410055
:10272000002040413F01007F08142241007F4040CB
:102730004040007F020C027F007F0408107F003EB3
:102740004141413E007F09090906003E4151215E99
:10275000007F091929460046494949310001017F96
:102760000101003F4040403F001F2040201F003F2C
:102770004038403F006314081463000708700807DE
:1027800000615149454300007F41410000552A55F1
:102790002A55000041417F0000040201020400406C
:1027A000404040400000010204000020545454788E
:1027B000007F4844443800384444442000384444AE
:1027C000487F00385454541800087E09010200184C
:1027D000A4A4A47C007F080404780000447D400089
:1027E000004080847D00007F102844000000417F6D
:1027F0004000007C04180478007C08040478003849
:102800004444443800FC242424180018242418FCD0
:10281000007C0804040800485454542000043F4439
:102820004020003C4040207C001C2040201C003CFC
:102830004030403C004428102844001CA0A0A07C4C
:10284000004464544C441414141414140000000084
:10285000000000000000000000000000000000F880
:1028600000000000000000333000000000100C06E3
:10287000100C0600000000000000000040C078407E
:10288000C0784000043F04043F040400007088FC4A
:1028900008300000001820FF211E0000F008F000A2
:1028A000E018000000211C031E211E0000F0088813
:1028B000700000001E2123241927211010160E007D
:1028C000000000000000000000000000000000E028
:1028D000180402000000000718204000000204183D
:1028E000E00000000040201807000000404080F099
:1028F000804040000202010F01020200000000F0CF
:10290000000000000101011F0101010000000000A2
:102910000000000080B07000000000000000000017
:1029200000000000000101010101010100000000A0
:102930000000000000303000000000000000000037
:1029400080601804006018060100000000E0100814
:102950000810E000000F102020100F00001010F8E9
:10296000000000000020203F202000000070080828
:1029700008887000003028242221300000300888A8
:10298000884830000018202020110E000000C020D0
:1029900010F8000000070424243F240000F80888F1
:1029A000880808000019212020110E0000E010887E
:1029B00088180000000F112020110E0000380808B0
:1029C000C83808000000003F0000000000708808C0
:1029D00008887000001C222121221C0000E0100841
:1029E0000810E0000000312222110F00000000C09A
:1029F000C000000000000030300000000000008037
:102A00000000000000008060000000000000804026
:102A1000201008000001020408102000404040403F
:102A20004040400004040404040404000008102092
:102A300040800000002010080402010000704808D7
:102A40000808F0000000003036010000C030C8283F
:102A5000E810E0000718272423140B000000C038FA
:102A6000E0000000203C23020227382008F8888874
:102A700088700000203F202020110E00C030080880
:102A800008083800071820202010080008F8080857
:102A90000810E000203F202020100F0008F8888850
:102AA000E8081000203F20202320180008F888881C
:102AB000E8081000203F200003000000C030080894
:102AC0000838000007182020221E020008F808001D
:102AD0000008F808203F210101213F20000808F8E4
:102AE000080800000020203F202000000000080807
:102AF000F8080800C08080807F00000008F888C0C7
:102B000028180800203F20012638200008F8080077
:102B100000000000203F20202020300008F8F800AE
:102B2000F8F80800203F003F003F200008F830C0C0
:102B30000008F808203F200007183F00E0100808B0
:102B40000810E0000F10202020100F0008F80808DF
:102B50000808F000203F210101010000E0100808F2
:102B60000810E0000F18242438504F0008F8888817
:102B700088887000203F2000030C302000708808F7
:102B8000080838000038202121221C00180808F805
:102B9000080818000000203F2000000008F8080086
:102BA0000008F808001F202020201F000878880057
:102BB00000C83808000007380E010000F80800F8C7
:102BC0000008F800033C0700073C03000818688071
:102BD0008068180820302C03032C30200838C800E7
:102BE000C83808000000203F200000001008080836
:102BF000C83808002038262120201800000000FED8
:102C0000020202000000007F40404000000C30C083
:102C100000000000000000010638C00000020202AF
:102C2000FE000000004040407F0000000000040261
:102C3000020204000000000000000000000000008C
:102C4000000000008080808080808080000202047C
:102C50000000000000000000000000000000808074
:102C6000808000000019242222223F2008F80080E2
:102C700080000000003F112020110E0000000080A5
:102C800080800000000E1120202011000000008034
:102C90008088F800000E112020103F200000808066
:102CA00080800000001F222222221300008080F07A
:102CB000888888180020203F2020000000008080A5
:102CC00080808000006B94949493600008F80080EA
:102CD00080800000203F210000203F200080989845
:102CE000000000000020203F2020000000000080A5
:102CF0009898000000C08080807F000008F80000E5
:102D000080808000203F24022D302000000808F839
:102D1000000000000020203F2020000080808080F4
:102D200080808000203F20003F20003F8080008086
:102D300080800000203F210000203F200000808094
:102D400080800000001F202020201F008080008045
:102D50008000000080FFA12020110E0000000080F4
:102D600080808000000E112020A0FF8080808000E5
:102D70008080800020203F21200001000000808012
:102D8000808080000033242424241900008080E007
:102D9000808000000000001F2020000080800000D4
:102DA00000808000001F202020103F2080808000B5
:102DB0000080808000010E300806010080800080C5
:102DC000008080800F300C030C300F0000808000EA
:102DD000808080000020312E0E3120008080800015
:102DE0000080808080818E701806010000808080C5
:102DF000808080000021302C222130000000000063
:102E0000807C020200000000003F40400000000003
:102E1000FF00000000000000FF0000000002027C34
:102E2000800000000040403F00000000000601015B
:102E30000202040400000000000000005C2E0000FC
:102E4000000000208000000072210000DC2E000045
:102E500080000020F002000082210000000000003D
:102E60000000000000000000000000000000000062
:102E70000000000000000000000000000200000050
:102E80000000000000000000000000000000000042
:102E90006666663F000000000000000000000000C1
:102EA0006666663F000000000000000000000000B1
:102EB0000000000000000000000000000000000012
:102EC0000000000000000000000000000000000002
:0C2ED0000000000000000000006CDC02AC
:040000050000016591
:00000001FF
