:020000040000FA
:10000000083F0020C1000000552100003D190000FC
:10001000FFFFFFFFFFFFFFFFFFFFFFFFFFFFFFFFF0
:10002000FFFFFFFFFFFFFFFFFFFFFFFF8127000034
:10003000FFFFFFFFFFFFFFFFCF240000452A000066
:1000400035010000350100003501000035010000D8
:1000500035010000350100003501000035010000C8
:1000600035010000FFFFFFFF3501000061160000B1
:1000700035160000DD25000035010000FFFFFFFF01
:10008000FFFFFFFF350100003501000035010000D2
:10009000350100003501000035010000CD320000BF
:1000A000350100003501000071320000350100000B
:1000B0003501000035010000350100003501000068
:1000C0001D4880471D4880471D4800471D4801695D
:1000D000002908D14169002905D18169002902D18F
:1000E000C169002909D01848C1680901090D002912
:1000F0000ED005290CD006290AD0BFF34F8F134824
:100100001349016013491248C860BFF34F8FFEE7DF
:100110000E4801680E48884200D070470E480F49CB
:1001200001600A480E4901607047FEE7FEE7FEE7FE
:10013000FEE7FEE7FEE70000CD000000492A0000D0
:100140006501000000030840800108400000002015
:100150000400FA0500ED00E0008108400100000005
:10016000000000000348854600F042FD00480047BB
:10017000A5400000083F002030B50B460146002096
:100180002022012409E00D46D5409D4205D31D469D
:100190009540491B2546954040191546521E002D95
:1001A000F1DC30BD03460B439B0703D009E008C9CF
:1001B000121F08C0042AFAD203E00B780370401C17
:1001C000491C521EF9D2704730B505462A460B46E7
:1001D00010781C78521C5B1C002801D0A042F7D07C
:1001E000002C03D0002802D06D1CEFE7284630BD5C
:1001F000421C0178401C0029FBD1801A7047000086
:100200000FB400B58DB009900B9010A9002000919B
:10021000C0430A9000200C900648069006480790BC
:100220006A4609A80F9900F0DDFB0DB008BC04B0C8
:1002300018470000050A0000250A0000FFB5002746
:10024000FF4383B000205C6801909E681D46A96949
:100250007F1C049888470090296A88470028F6D1B7
:100260000098401C0CD0032040028443002E19DD6E
:10027000600614D500982B2809D02D280FD103E053
:100280000020C04307B0F0BD012080020443A969EB
:100290007F1C04988847761E0090002E02DD00988F
:1002A000302803D00598002825D035E001204002F1
:1002B0000443A969761E7F1C049888470090002E8D
:1002C00003DD782805D0582803D00598002810D0E1
:1002D00022E00598002801D010281DD101204002FD
:1002E0008443A969761E7F1C0498884700901020DB
:1002F00002E0082000E00A2005900DE001214902FB
:100300000C43059A0199761E514308180190A9697A
:100310007F1C049888470090002E05DD0599009801
:1003200000F04AFB0028E9DAE96904988847A0054B
:1003300002D40120C043A5E7E00722D1600611D511
:100340006005019800D5404229680A1D2A600968A5
:10035000220501D5087014E0220701D5088010E0BD
:1003600008600EE02868011D29600068210502D59B
:100370000199017005E02107019901D5018000E094
:10038000016038467EE7F8B502464A40D40F420085
:100390004B0052085B089A4202D2024608461146B8
:1003A0004A0023D0C30D4A00DDB2120EAD1A202D33
:1003B00035DA49020126490AF6058A19002C00D0CF
:1003C000524220214F1B1146B9402A411018C20D3C
:1003D0009A4221D0002C17D0012D08DCDA05801AB2
:1003E000D20F8019D207DBB200F036FBF8BDDA0578
:1003F000801A012340001B06C01880185A4280183A
:10040000CA0F1043490007E04908C2071143DA0543
:10041000801A80194008801800F016FBF8BD6100B2
:100420000122511A001BF7E70122D2075140AAE727
:100430000122D2075040A6E7024670B54A40D30FCA
:10044000DB0740002DD04A002AD0010E140E000216
:1004500012020919400A520A8418E501044654435D
:10046000000A120A2E045043A4194219200CC54355
:10047000AA18120C0125AD03521C521912047F391F
:10048000240400D0521C104301D44000491EC2B2C3
:100490000C06C0092018401C4008802A02D003E046
:1004A000002070BD40084000002900DA00201843F9
:1004B00070BD0000F0B507460846584087B0C00F31
:1004C000049048000E46590040084908BC1A88416B
:1004D00005D2384631461E4617460B46024658009E
:1004E000400810434CD0300D039040055900400D9A
:1004F000490D0590401A0290402872DA1803012134
:10050000000B09050843019004980092002805D0CB
:1005100001995242002088410092019002984021A6
:100520000A1A0199009800F013FA05460C466B462A
:1005300007CB00F02EFAC0197141039A0E0D00236B
:10054000D71756401A467A40164344D0049A002AD8
:100550002DD0029A012A039A15DC1205C01A914186
:1005600001263605001C7141D20F059ED20700936B
:10057000019202962A46234600F0B4FA07B0F0BD75
:1005800038463146FAE71605224A0F46B218C01A15
:10059000B74101210905001C4F4100187F41114658
:1005A00018187941E20F10436D19644113E0E20716
:1005B0006D0815436408C2071443039A0126120507
:1005C000C01A91413605001C7141CE0740083043E6
:1005D0004908C01851412A46234600F076FACDE773
:1005E000FFE7049801224000C117121A00238B4133
:1005F00004983146C417381AA141EEE730B40124FB
:10060000E407634030BC55E730B40124E40761409F
:1006100030BC4FE70000E0FFF0B51FB488B00B9985
:100620000998002448400999C00F490049080991D8
:10063000C0070B990090490049080B910999089847
:10064000A64608431CD00B990A98084318D009986D
:1006500001244000420D4800410D09982405000383
:10066000000B204309900B980003000B20430B90D4
:1006700050181C494018002201901446104605E00D
:10068000002001460DB0F0BD032801DA034600E06A
:1006900003239C46C11A0AAE0AE05F0008ADED5B79
:1006A0004F00F75B7D430027AA187C41491C5B1E65
:1006B0006145F2DD410004AB5A522104120C0A4399
:1006C000240C401C0828DFDB01980290009970463A
:1006D00001910090059B049A0799069800F002FA90
:1006E000D0E700000DFCFFFFF0B50C465C4085B084
:1006F000E40FE40703944C00002664085900944674
:10070000490802460296224321D062460A431ED07F
:100710006200570D4A000E032303550D01240246C3
:100720002C492405781B1B0B360B4018234326430A
:10073000614600901C46501AB44103D30098401CF7
:10074000009002E0921800985B41002803DA002034
:10075000014605B0F0BD0020012109050746864687
:1007600011E064461D46141BB54106D36546521B75
:10077000B341744607430C43A646CD0740084908D9
:10078000284392185B4105460D43EAD110461843B1
:1007900013D06046194650407140084306D0604669
:1007A000101AB34106D20122002306E000220123E1
:1007B000DB0702E00122D243531000987446010582
:1007C000381C6141029C039D0019694100F07DF9CC
:1007D000BFE70000FD030000C217C10F504010B575
:1007E0004018CA079623002100F036F910BDC20F49
:1007F000410040020123400ADB05D207090EC01860
:100800007F2901DA00207047962903DC9623591AC4
:10081000C84001E096398840002AF4D04042704731
:1008200070B5CD0F4A0009030123090B1B051943BD
:100830000B4BED070024520D9A4201DA002070BDE7
:10084000074B34339A4203DC9A1A00F091F802E025
:100850000449511888402C43F1D0404270BD00003B
:10086000FF030000CDFBFFFFC20FD207400040088E
:100870000BD0C10D0723DB01C91840020905400A4E
:100880001143C208400711437047002001467047DA
:10089000CB0FDB07490010B5490802460A4307D0D1
:1008A0000A0D07240903E401090B121B002A01DCCD
:1008B000002010BDC900440F0C43C100E018D20550
:1008C000801800F0C1F810BD0122D207002800DB1B
:1008D000101A002900DB511A814270470122D20709
:1008E000002800DB101A002900DB511A88427047EB
:1008F000F0B51FB40646002082B0054640240191A1
:1009000000901BE0019922460F46304600F030F877
:10091000049A059B801A994110D310461946224625
:1009200000F016F8361A8F41019722460120002167
:10093000009F00F00DF838184D4100902046641ECD
:100940000028DFDC019B00982946324607B0F0BD45
:1009500010B5202A04DB0146203A9140002010BD4A
:10096000914020239C1A0346E3401943904010BD58
:1009700010B5202A04DB0846203AD040002110BDE3
:100980000B46D340D0402024A21A91400843194678
:1009900010BD10B5202A06DBCB170846203A1041BF
:1009A000C1170B4306E00B461341D0402024A21A86
:1009B00091400843194610BD3A2800D23038202310
:1009C00002469A43412A01D310463738884201D360
:1009D0000020C0437047000002681378511801607E
:1009E0001846704710B5D16004495161044911623D
:1009F00000211161114600F015F910BDD909000060
:100A0000150C00004268002A08D001680B78491CC8
:100A1000002B03D0521E06C0184670470121C1604A
:100A2000881E70474268002A0BD0C3680168002BFB
:100A300007D183688B4204D0491E521C06C0002097
:100A400070470020C0437047002904DA401C490069
:100A500001D140084000704770B40024050C05D156
:100A60001024000402D1002921D01124050E01D147
:100A700000020834050F01D10001241D850F01D1AA
:100A80008000A41C002801DB4000641C002908D061
:100A900020252E1B0D46F540A14000D00121294301
:100AA000084301061B1B000ADB1D02D5002070BC99
:100AB0007047DB05181880180029F8DA401C490037
:100AC000F5D170BC40084000704710B5002B08DA23
:100AD0000024401C614192185B411A4301D1400837
:100AE000400010BDF0B51FB482B005460C0003D025
:100AF000084602F069FD02E002F066FD2030024681
:100B0000009021462846FFF723FF049B059A0446E0
:100B10000F4618431143084314D0184610431BD006
:100B2000009840210A1A18460599FFF721FF05464B
:100B30000E46009A05990498FFF70AFF084305D06E
:100B4000012004E02046394607B0F0BD0020C1175F
:100B500005430E432C43374300990E986305401A12
:100B60007905E40A00220C43FD0A0A3002D5002070
:100B70000146E9E70105101969410C9C0D9D00191A
:100B80006941FFF7A2FFDFE74A0009030123090BD0
:100B90001B0519430A4B10B5520D9A4202DA002088
:100BA000014610BD064B34339A4203DC9A1AFFF714
:100BB000DFFE10BD034BD218FFF7CAFE10BD0000C8
:100BC000FF030000CDFBFFFF10B5002904DB01246B
:100BD000E40740428C412146002B04DB1C460123E4
:100BE000DB075242A341994200D1904210BD000060
:100BF000064C0125064E05E0E36807CC2B430C3C70
:100C000098471034B442F7D3FFF7B0FA5C4C0000B9
:100C10007C4C000010B50F21C0B2490200F09EF9D3
:100C200010BD0000F3B58DB000200A9001200B909C
:100C3000002608460C300C4609906269012109988B
:100C40009047051E2ED0252D2DD0216A88470028DB
:100C500018D06269012109989047216A88470028C5
:100C6000F7D1411E62690998904700E0761CA1699E
:100C70000D988847216A88470028F7D1E1690D98C7
:100C80008847DAE7A1690D9888470746A84201D14D
:100C9000761CD2E7E1690D9888477F1C02D10A983B
:100CA000002877D049E1002762693D463946099816
:100CB00090472A280CD162690121099890470125A3
:100CC00006E00A214F433F18303FEBD41020054384
:100CD0006269012109989047014630390A2903D2F7
:100CE0009B498F42DEDCECE7E90600D4994F6C2883
:100CF0000AD04C2810D0682824D06A282ED0742816
:100D00000CD07A280AD00DE0626901210998904739
:100D10006C2823D004211CE02020054362690121B6
:100D200009989047A760656065284FD026DC582851
:100D300039D01ADC452849D012DC252834D0412886
:100D4000B0D143E06269012109989047682802D038
:100D500008210D43E6E70120C002DEE70220DCE7C0
:100D6000462833D047282CD130E05B2870D061284A
:100D70002CD063286CD0642823D161E06F284FD039
:100D800009DC662822D0672820D0692826D06E2862
:100D900017D12EE0CDE070284DD073286FD0752884
:100DA0004ED078280DD154E0A1690D9888470546AA
:100DB000252800D16CE7E1690D9888476D1C00D1AA
:100DC0006DE7BAE00A224CE00A2252E001202346F5
:100DD0006A46C0430D99C046C046A3E0284640215C
:100DE00008436060A807234601D5002239E00022AD
:100DF0003FE0E80700D020E72068011D216000687F
:100E0000290501D5067018E7290701D5068014E7E2
:100E1000A90703D5F117066041600EE706600CE7ED
:100E20002846402108436060A807234601D50822D0
:100E300017E008221DE0484928460840606016E097
:100E40002846402108436060A8072346BCD5B9E77F
:100E500015E02846402108436060A80707D52346CF
:100E600010220120C0430D99C046C0465AE02346D7
:100E700010220120C0430D99FFF7E0F952E0002154
:100E80000C910B460091632802D05B2807D043E009
:100E9000E80601D40120A060012000903CE06269D6
:100EA0000121099890475E2805D101200C90014648
:100EB0006269099890472169002906D10B4601AA69
:100EC0008F00491CD3510829FADB002835D021694D
:100ED00000290ED1C117C90E09184A11930001AAA1
:100EE0009A1849094901411A0120136888400343AF
:100EF000136062690121099890475D28E5D10C983B
:100F0000002808D0002001AB81005A58401CD24371
:100F10005A500828F8DB01AB01202246C0430D9946
:100F2000C046C04600280ADA401C06D10B980028AB
:100F300003D00020C0430FB0F0BD0A98FBE7E907DB
:100F400002D10A99491C0A91361800200B9074E6C8
:100F5000CCCCCC0CFFFFFF7FF1F7FFFF7F2801D93E
:100F6000002207E0054B42089A5CC00700D1120935
:100F70001207120F0120904008407047444A0000B9
:100F8000F0B596460A461349C000461800230025CE
:100F9000FF2098402C46104216D000200121994095
:100FA0008C461146C1406746394206D087000F2162
:100FB000B9400D437146B9400C43401C0828F0D39A
:100FC0003068A843204330600833361D082BDEDD2F
:100FD000F0BD00002020024070B5184D0446686B3B
:100FE0004607760F00F02EF815492060330002F016
:100FF00002FB081405070714140E1114606000E0CA
:101000006160296A6068052909D3400908E0012068
:10101000C003F3E77D200002F0E70020EEE7C840C0
:10102000A060A96A4903490F072902D0C840E060BF
:1010300070BD0321FFF7A0F8F9E700000080084029
:1010400000127A000C490868C869C20F4868400A53
:10105000C007C00F0ED00948002A0BD18869C00D07
:101060000007000F00D110208969044A4902890F46
:101070005043C840704700000080084000127A00CA
:101080001FB541090A4A89008A1800212E2800D17B
:101090000221C006C00E1268032383401A40C240DA
:1010A00054186846FFF798FF029804B0E04010BD5E
:1010B00038800840F0B5084F7C6AFD6A3E6B844377
:1010C0008D439643002B02D004430D4316437C62AC
:1010D000FD623E63F0BD00000080084070B50D4623
:1010E0000A46094C0146E069FFF75CF8E069002117
:1010F0004155FF30FF300230E061616A884201D122
:101100000248E06170BD0000CC000020082B0020E8
:1011100030B51348C5B0C27901461031002A02D15A
:10112000CA79002A19D00022C271CA710C790379D8
:101130004A888568019202AA38C2098800914388CA
:101140000288084905A802F019FA05A8FFF750F827
:10115000024605A904A000F03FFE45B030BD0000E6
:10116000E80A0020844A00002F7379732F61316CE4
:101170005259746264717A612F4C414F4C414F2F28
:101180007468696E672F6576656E742F70726F7004
:10119000657274792F706F7374000000F0B54D485C
:1011A000C1B046A10068FFF70FF8012500264A4F9D
:1011B000002809D049487D710078002802D101201B
:1011C00001F01BFBFD7152E0424C45A12068FEF787
:1011D000FBFF002801D0BE71F4E73E4846A100683D
:1011E000FEF7F2FF3C4C1034002804D0657101205A
:1011F00001F0F8FA0EE0374845A10068FEF7E4FF79
:10120000002806D1334848A10068FEF7DDFF00281A
:1012100002D0A671E57127E02E484AA10068FEF7CA
:10122000D3FF00280BD0A5712C48E57105704C4800
:1012300005702571FFF76CFF02F0D4FF14E0264B18
:10124000244818331A1D47490068FEF7D9FF0228C1
:101250000AD1A2684448643202601020009004233E
:101260000021302001F0D8F8F879002806D0FE716E
:101270007A793E4901A802F081F909E0E079002875
:101280000ED0E671A3796279394901A802F076F9A6
:1012900001A8FEF7ADFF024601A936A000F09CFDB3
:1012A0000C49414A0868FF30FF300230086012687C
:1012B000904201D13D48086041B0F0BD227061729A
:1012C000616D73223A7B225049434B555030223A8C
:1012D000317D0000EC000020E80A00203D000020E5
:1012E00022706172616D73223A7B225049434B55E3
:1012F0005030223A307D000022706172616D73229D
:101300003A7B225049434B555031223A317D0000FF
:1013100022706172616D73223A7B225049434B55B2
:101320005031223A307D000022706172616D73226B
:101330003A7B2253454C4C5F43414C4C223A307D22
:101340000000000022706172616D73223A7B2253AB
:10135000454C4C5F43414C4C223A317D000000002B
:101360003C0000208C4B00004C000020284B00006B
:10137000E84B00002F7379732F61316C52597462FE
:1013800064717A612F4C414F4C414F2F7468696EE4
:10139000672F6576656E742F70726F7065727479E1
:1013A0002F706F7374000000F0000020082B0020E5
:1013B0000FB410B503AA0D48029902F0F3F80B48D8
:1013C000FEF716FF0A4A11690906FCD50021074CF1
:1013D00005E0635C136013691B06FCD5491C814260
:1013E000F7D310BC08BC04B018470000F805002073
:1013F0000010044081627047002A026801D00A434D
:1014000000E08A4302607047012110B58903002281
:1014100048010123FFF74EFE012202210320FFF7BE
:10142000AFFD084C01220221204600F0BBF800224B
:1014300002212046FFF7E0FF01220221204600F0B2
:1014400025F810BD00600B4070B501218903002212
:1014500008010123FFF72EFE0122D40221460220BB
:10146000FFF78EFD084D01222146284600F09AF82C
:1014700000222146284600F0D7F8012221462846BE
:10148000FFF7BAFF70BD000000400B40002A426821
:1014900001D00A4300E08A434260704770B50121E1
:1014A0008903002288000123FFF704FE0122D402F1
:1014B00021460020FFF764FD084D00222146284602
:1014C00000F070F8002221462846FFF795FF012220
:1014D00021462846FFF7DAFF70BD000000000B40F0
:1014E000F8B5012107200022890300040123FFF73A
:1014F000E1FD0122D40321460020FFF741FD012236
:10150000A8211046FFF73CFD224D0122294602206A
:10151000FFF736FD204E00222146304600F042F80B
:101520001E4F0022A821384600F03CF80022294630
:101530001B4800F037F8002221463046FFF75CFFD9
:101540000022A8213846FFF757FF002229461448F9
:10155000FFF752FF012221463046FFF74DFF0122DF
:10156000A8213846FFF748FF012229460C48FFF71B
:1015700043FF012221463046FFF788FF0122A821C0
:101580003846FFF783FF012229460548FFF77EFF13
:10159000F8BD00000883000000000B4000200B4055
:1015A00000400B40002A08D0012A09D082688A43F3
:1015B0008260C2688A43C260704782680A43F7E764
:1015C000C2680A43C26082688A4382607047C06909
:1015D000084000D001207047012110B58903002286
:1015E00008010123FFF766FD012222210220FFF7F7
:1015F000C7FC0B4C012222212046FFF7D3FF00221B
:101600002221204600F010F8012222212046FFF777
:10161000F3FE002001F0E6F8002001F0EEF810BD26
:1016200000400B4041627047002A01D04162704780
:101630008162704710B5084C0421204601F078FB08
:10164000002807D00421204601F02FFB0348416801
:10165000491C416010BD000000E006405000002021
:1016600010B5084C0821204601F062FB002807D085
:101670000821204601F019FB03488168491C81605C
:1016800010BD000000F006405000002010B500F032
:10169000B1F80149886010BD24000020F8B5464C1F
:1016A0002069606100F0A6F86060A16800258842AA
:1016B00010D9E060E068401AE060E068FFF78CF85D
:1016C000FFF7D2F800223D4BFFF70EF8FFF7A8F81E
:1016D000E06000E0E560E2681020226100900423F1
:1016E0000621182000F098FE21696069421A00D591
:1016F0005242334E3078022840D1324801270378D5
:10170000002B05D0012B39D10F2A1BDD27701CE0DF
:101710000F2A01DD277002E0217801292ED16770A0
:101720002948A57001682948814227D3002001F08B
:1017300064F83770A77024486570056024482570E8
:10174000477115E02278012A18D167701E48A570EC
:101750000068204A904212D3002001F043F837700D
:10176000A7701948657005601B48257047711848B7
:10177000C7710771FFF7CCFC02F034FDF8BD134AC6
:101780005242821811488242F8D208465B38092832
:1017900001D2052003E06039092902D20A20E07055
:1017A00000E0E570102000900223E278062160201E
:1017B00000F032FEF8BD00002400002000A05A40D6
:1017C0003C0000203D000020A800002088130000FD
:1017D000E80A0020F82A0000F80A002010B5FFF7F8
:1017E00033FEFFF711FE02210148FFF71BFF10BD7A
:1017F00000600B40F8B5214E02213046FFF712FF82
:10180000012002F0CBFB0127FF0239461C48FFF7FD
:10181000F1FD002402213046FFF7D9FE0028F9D15E
:101820003E46174F002531463846FFF7FBFE640061
:10183000012002F0B3FB31463846FFF7DBFD022101
:101840000E48FFF7C4FE002800D0641C012002F0FF
:10185000A5FB6D1CEDB2182DE5D331463846FFF7D8
:10186000E1FE0120C0054440012002F097FB314613
:101870003846FFF7BFFD2046F8BD000000600B4072
:1018800000400B4010B51F480078012801D001200E
:1018900010BD1D4C1D4821680068814212D01C48B3
:1018A000007801280ED11BA0891CFFF781FD20685C
:1018B0001A49FF30FF30023020600968884201D1A8
:1018C00017482060174C18492068096888420FD0D3
:1018D00081787B2901D100F06BFA20681349FF3031
:1018E000FF30023020600968884201D11048206032
:1018F0001048114900680968884201D0FFF74EFC82
:10190000002010BDCC000020E0000020DC00002002
:10191000CD00002025730D0A00000000E400002027
:10192000081B0020D4000020D0000020D800002098
:10193000080B0020EC000020E800002002480168AD
:101940000029FCD0704700000000002070B5012283
:101950000B4DD40321462846FFF766FE094E0122AF
:1019600010213046FFF760FE002210213046FFF7BD
:101970005BFE002221462846FFF756FE70BD0000A0
:1019800000200B4000400B4010B50122D103074856
:10199000FFF74AFE064C002210212046FFF744FEC6
:1019A000012210212046FFF73FFE10BD00200B4012
:1019B00000400B4070B50122054DD4032146284656
:1019C000FFF732FE002221462846FFF72DFE70BDAC
:1019D00000200B4010B5074C012240212046FFF7A4
:1019E00023FE642002F0DAFA002240212046FFF7AD
:1019F0001BFE10BD00200B4070B501210520002208
:101A0000890340040123FFF755FBFF2401224134E1
:101A100021461046FFF7B4FA012205210320FFF703
:101A2000AFFA134D012221462846FFF7BBFD0122E4
:101A300005211048FFF7B6FD012221462846FFF791
:101A4000DBFC0D4E012205213046FFF7D5FC0122BB
:101A500021462846FFF71AFD012205213046FFF7EF
:101A600015FD002240212846FFF7DEFD70BD000075
:101A700000200B4000400B4000600B40F8B55B4E6F
:101A800004460A2815D8F768032F0AD20A203569B8
:101A9000014645432046FEF76FFB48197F1CF7605F
:101AA000306110200090042300213020326900F0C2
:101AB000B3FC012700250B2C0FD00C2C50D00D2C83
:101AC0007ED00E2C7DD00F2C06D149480068B06026
:101AD0007770377002F086FBF8BD3069652831D029
:101AE00066282FD067282DD068282BD0102341A23C
:101AF0000221002000F0C6FC35611020F560009046
:101B00002A4604230021302000F086FC307800288B
:101B100024D0357002F066FB3848057038480570EF
:101B2000334800687060757036493069364A88609D
:101B30001278801A4880820080180880CF71FFF7E1
:101B4000E7FAF8BD102331A20221002000F09AFC30
:101B50003048F560057030480570D7E73770D9E731
:101B6000356110232DA202210020F56000F08AFCCF
:101B700010240094042300213020326900F04CFC32
:101B80002548357005702348264E05701D4935706F
:101B900025480D710571C771CF71FFF7B9FA02F0D1
:101BA00021FB0094032332780621502000F034FCFE
:101BB000154864220270032304214820009401E0A8
:101BC00003E005E000F028FCF8BD12480770F8BDFE
:101BD0007078012805D00028F9D1012000F00DFE11
:101BE000F8BD012000F0FEFDF8BD00003C00002023
:101BF000300000206572726F72000000BE0000208D
:101C0000BF000020E80A0020BC000020726967685D
:101C1000740000002600002025000020696E707509
:101C20007400000027000020F80A0020F8B50446E0
:101C3000416080680D46E060FEF716FE06462068AB
:101C40000F460090FEF710FE00220B4BFEF7DCFC67
:101C500032463B46FEF7E0FC06460F462946009812
:101C6000FEF7EAFBFEF700FE32463B46FEF722FC9B
:101C7000FEF70EFEA060F8BD0000F03F1022002924
:101C8000016F01D0114300E09143016770470000EC
:101C9000F0B5012601250024B60389B02B462A465B
:101CA00031462046FFF706FA042231460020FFF7AE
:101CB00067F9012104220846FFF762F90422114660
:101CC0000120FFF75DF9042208210320FFF758F9EE
:101CD000012222210220FFF753F92249684641825E
:101CE000048204752902069481831F4F04A9384693
:101CF00001F0B4F80121384600F03BFF684604705B
:101D000006214180057184714B260472B60146811B
:101D100084816946384601F01FF8684605704481A1
:101D200085716946384601F017F80221684601704E
:101D3000468184716946384601F00EF803216846F1
:101D40000170448185716946384601F005F801212A
:101D5000384600F0AFFF01213846FFF78FFF09B08A
:101D6000F0BD0000BF12000000C002400A4809494F
:101D7000416081600949C1600949016141610949C6
:101D800081610949C1610162084941620121017013
:101D900041707047080B0020CC000020081900207B
:101DA000081B002008290020082B002008390020EB
:101DB00010B50178427809028C18FFB081B0811CFF
:101DC00022466846FEF7EEF921466846FFF786F997
:101DD0007FB001B010BD000010B514460348FEF7F7
:101DE000E1F92146014801F0E9F910BD083B002066
:101DF000F8B50122C54ED503002429463046FFF729
:101E000013FCC34F0122A8213846FFF70DFC012225
:101E1000C049C148FFF708FC002280213846FFF77F
:101E200003FC29463046FFF7D2FB00280CD10A20DC
:101E300002F0A6F829463046FFF7C9FB0028F9D082
:101E40000A2002F09DF8012408213846FFF7BFFB65
:101E500000280CD10A2002F093F808213846FFF739
:101E6000B6FB0028F9D00A2002F08AF802242021CB
:101E70003846FFF7ACFB00280CD10A2002F080F8AE
:101E800020213846FFF7A3FB0028F9D00A2002F0F2
:101E900077F803242946A048FFF799FB00280DD1C5
:101EA0000A2002F06DF89C4C29462046FFF78FFB74
:101EB0000028F9D00A2002F063F804240122294600
:101EC0003046FFF7B1FB0122A8213846FFF7ACFBF3
:101ED000012290499048FFF7A7FBFF210022013122
:101EE0008D48FFF7A1FB29463046FFF770FB00281D
:101EF0000CD10A2002F044F829463046FFF767FB70
:101F00000028F9D00A2002F03BF8052408213846C1
:101F1000FFF75DFB00280CD10A2002F031F8082100
:101F20003846FFF754FB0028F9D00A2002F028F8C1
:101F3000062420213846FFF74AFB00280CD10A204E
:101F400002F01EF820213846FFF741FB0028F9D0A7
:101F50000A2002F015F8072429466F48FFF737FBDF
:101F600000280DD10A2002F00BF86B4C29462046C0
:101F7000FFF72DFB0028F9D00A2002F001F8082411
:101F8000012229463046FFF74FFB0122A82138469F
:101F9000FFF74AFB01225F495F48FFF745FB01213C
:101FA000002249025C48FFF73FFB29463046FFF715
:101FB0000EFB00280CD10A2001F0E2FF2946304632
:101FC000FFF705FB0028F9D00A2001F0D9FF09240A
:101FD00008213846FFF7FBFA00280CD10A2001F04F
:101FE000CFFF08213846FFF7F2FA0028F9D00A207F
:101FF00001F0C6FF0A2420214548FFF7E8FA00282F
:102000000DD10A2001F0BCFF414C20212046FFF7F2
:10201000DEFA0028F9D00A2001F0B2FF0B243E4F6F
:1020200029463846FFF7D3FA00280CD10A2001F0E0
:10203000A7FF29463846FFF7CAFA0028F9D00A2038
:1020400001F09EFF0C24012229463046FFF7ECFAEE
:102050000122A8212E48FFF7E7FA01222D49384630
:10206000FFF7E2FA002208213846FFF7DDFA294699
:102070003046FFF7ACFA00280CD10A2001F080FFAF
:1020800029463046FFF7A3FA0028F9D00A2001F0CC
:1020900077FF0D241E4E08213046FFF798FA0028DE
:1020A0000CD10A2001F06CFF08213046FFF78FFAAF
:1020B0000028F9D00A2001F063FF0E2420213046C9
:1020C000FFF785FA00280CD10A2001F059FF2021E2
:1020D0003046FFF77CFA0028F9D00A2001F050FFC3
:1020E0000F2429463846FFF772FA00280CD10A203F
:1020F00001F046FF29463846FFF769FA0028F9D073
:102100000A2001F03DFF10242046F8BD00000B40DE
:1021100000200B400883000000400B4010B5FFF783
:1021200067FE03490028087001D0FFF7A7FC10BD27
:102130000400002010B5064C03C4083CFEF757FB12
:1021400000F066FB6068FEF752FB00F07DFB10BDFF
:1021500080000020704700008307FF22DB0E9A40BA
:102160008907090E994000280BDA0007000F08388C
:10217000830808489B001818C36993430B43C36145
:102180007047830804489B001818036893430B4367
:102190000360704700ED00E000E400E070B500254A
:1021A00028460021B03000F087F90021022000F01D
:1021B00083F90021102000F07FF900240121002084
:1021C00000F07AF9641CE4B2802CF7D36D1CEDB2F8
:1021D000082DE5D370BD000070B501210320002259
:1021E000890340040123FEF765FF0122D403214641
:1021F0001046FEF7C5FE012210210220FEF7C0FEA8
:10220000154D002221462846FFF7CCF9134E002237
:1022100010213046FFF7C6F9002221462846FFF775
:10222000EBF8002210213046FFF7E6F801222146A4
:102230002846FFF7E1F8012210213046FFF7DCF8CD
:10224000012221462846FFF721F9012210213046BC
:10225000FFF71CF970BD000000200B4000400B4050
:1022600010B5FFF7B9FF012210213D48FFF7DCF957
:102270000122D1033B48FFF7D7F91920400101F0B3
:102280007FFE0021AE2000F017F90021022000F0AF
:1022900013F90021102000F00FF90021402000F078
:1022A0000BF90021B02000F007F90021812000F097
:1022B00003F90021FF2000F0FFF80021A12000F029
:1022C000FBF80021A62000F0F7F80021A82000F07C
:1022D000F3F800213F2000F0EFF80021C82000F0C3
:1022E000EBF80021D32000F0E7F80021084600F0C9
:1022F000E3F80021D52000F0DFF80021802000F075
:10230000DBF80021D82000F0D7F80021052000F0EC
:10231000D3F80021D92000F0CFF80021F12000F0FF
:10232000CBF80021DA2000F0C7F80021122000F0DD
:10233000C3F80021DB2000F0BFF80021302000F0BE
:10234000BBF800218D2000F0B7F80021142000F028
:10235000B3F80021AF2000F0AFF8FFF71FFF10BD6A
:1023600000400B4000200B4010B50A4604461046C2
:102370000021B03000F0A0F8A41C2006000F0021BE
:10238000103000F099F82007000F002100F094F8B9
:1023900010BD0000FFB581B0203A019800240F461F
:1023A000D5B27F2803D900208F1CFFB20190102BDB
:1023B00039460FD0FFF7D8FF0620454314482D18A3
:1023C000285D012100F078F8641CE4B2062CF7D3F4
:1023D00005B0F0BDFFF7C8FF0E4E2D012819305C87
:1023E000012100F069F8641CE4B2082CF6D37F1CCC
:1023F000F9B20198FFF7B8FF002428198019007A74
:10240000012100F059F8641CE4B2082CF5D3DFE791
:102410002C42000054440000FFB581B000270A9808
:102420001D463C46460829E0281B401EC1B20A2032
:1024300001F0AEFE01460398FDF79EFE0A21FDF76E
:102440009BFE002F05D1681E844202DA002909D0C4
:1024500001273031CAB23046019960434018C0B2FA
:102460000A9B06E030460199604340180A9BC0B2BF
:1024700020220299FFF78EFF641CE4B2AC42D3D352
:1024800005B0F0BDFFB581B017460E4604460025E5
:102490000DE031462046049BFFF77CFF0834E4B290
:1024A000782C02D90024B61CF6B26D1CEDB27A5D10
:1024B000002AEED105B0F0BD10B5002903D0C0B29E
:1024C00001F028F810BDC0B201F00EF810BD704741
:1024D00070B51449124E0E60B3024B600020886044
:1024E000114CCC6148630864104D8D63104ACA6377
:1024F00044310E604B608860CC61486308648D6332
:10250000CA630C4A44310A6048607F22C861D20520
:1025100048638A600864084888630848C86370BDD7
:10252000000050421C0A0020000040410080BB44D3
:102530000080BBC40000A0410000FA440000FAC4BF
:10254000F8B50446016AC069FDF76EFF0546E06014
:102550002946606AFDF717FF606206462846216932
:10256000FDF762FFA0623046E16AFEF7B7F901D2DB
:10257000E06A6062216B606AFEF7A6F901D2206B07
:102580006062A16AA068FDF757FF0746616A60684C
:10259000FDF752FFE568064629462068FDF74CFF27
:1025A0003146FDF7F0FE3946FDF7EDFE256160632B
:1025B000F8BD000000220849002804D0012806D0F8
:1025C000CA60C868704748684A60C860F9E78868A8
:1025D0008A60C860F5E7000050000020F8B5FF24CD
:1025E000584D01342146284600F0A2FB002874D043
:1025F0002146284600F054FB534C00256068401CDF
:102600006060A068401CA060E068401CE0606069F9
:10261000401C6061A069401CA061E069401CE06151
:10262000A06A401CA062E16A491CE16228281FD30D
:102630004648007800281BD0474F454E386845492A
:102640003268801CFDF7AEFD3088010A38680170E1
:1026500031784170FF30FF300230404938600968FE
:10266000884201D13E48386035603848A56205701F
:102670003C480078012802D1206B401C20633A4876
:102680000078012802D1206A401C20623749226963
:102690000878012801D1521C2261FF2391339A420C
:1026A00003D3012801D125610D703148007802283B
:1026B00002D1606A401C606260782E4928262E4F45
:1026C000012802D0002822D00CE00878A169301A35
:1026D000884207D80122A5611FE02FE0012000E019
:1026E000002060702078254901281ED0002825D1BF
:1026F00009786069884221D3002265610221384649
:10270000FEF792FF2078002819D0002015E0097804
:10271000A0698842E6D30022A56120213846FEF751
:1027200083FF60780028DBD1D8E708786169301A28
:10273000884203D801226561E0E72070F8BD0120DE
:10274000FBE700000040034088000020100000204C
:102750001C000020F8000020D0000020D80000203D
:10276000080B0020C500002025000020C900002023
:102770003C0000202100002000400B4020000020F1
:1027800070470000042204490428086902D09043DD
:10279000086170471043FBE700E000E007490028AC
:1027A00006D00128086906D040084000086170473B
:1027B00000208861704701221043F7E700E000E045
:1027C000044902220028086901D0104300E0904328
:1027D0000861704700E000E001494861704700006F
:1027E00000E000E000B5002805D0012802D12D202E
:1027F00001F0D8FC00BD5A20FAE700B5002805D04A
:10280000012802D15A2001F0DDFC00BD2D20FAE79D
:1028100070B50C4D04464B2292010221284600F06F
:1028200018FBA2B20321284600F013FB012202216B
:10283000284600F087F901220321284600F082F99A
:1028400070BD000000C002404B2110B58901081A7C
:102850000A4C82B20021204600F0FBFA002201213E
:10286000204600F0F6FA01220021204600F06AF925
:1028700001221146204600F065F910BD00C002405B
:1028800010B50846FFF75CFE10BD0000F8B5204CFF
:10289000204825782049214A0023692D19D3204D4D
:1028A0000D601560CB61D3610121E170037064207C
:1028B00020701C488371C171FEF72AFC1020009023
:1028C0000323227804214820FFF7A6FD01F08AFCAB
:1028D000F8BD00780128FBD1E0780128F8D1124832
:1028E0000860106005202056002805D00F4E451CBA
:1028F00007D0012808D009E00D48C8610D48D06113
:1029000004E0CB61D66101E0CE61D361E370F8BD34
:10291000BC0000203C0000201C0A0020600A0020AF
:102920000000B442E80A00200000C8410000004155
:102930000000C0400000A040F8B53348314B0668A5
:1029400034481C783149324A00780025B44201D11C
:10295000002803D09C78012C2DD02EE02E48086052
:102960001060CD61D56101262C489E700227C6718A
:102970000771458005800024142001F001FB641CD0
:10298000032CF9DBFEF7C4FB2548077025480078C7
:1029900001280DD124480024C671077145800580A7
:1029A000142001F0EDFA641C062CF9DBFEF7B0FBF5
:1029B00001F018FCF8BD012804D01C481C4C00682C
:1029C000A042F7D3052018561A4C002805D01A4EFD
:1029D000471C09D001280CD00FE00C601460174888
:1029E000C8611748D06108E00C601460CD61D66101
:1029F00003E00C601460CE61D5610C489D700560E9
:102A0000F8BD0000BC0000204C0000201C0A002083
:102A1000600A0020260000200000B442E80A0020DE
:102A20003C0000203D000020F80A0020AC000020FF
:102A3000204E00000000C841000000410000C040DE
:102A40000000A04070470000F0B539491020C86070
:102A5000384A012010603849086B40252843086334
:102A60003648002344158668272EFCD100E04460D8
:102A70004668B605FBD500E043604668B605FBD462
:102A80001360486A03229202904348624868012218
:102A9000D202104348608868C008C007FBD048686D
:102AA000C008C000C01C4860486B4007400F0328A6
:102AB000FAD1234A1068C008C000401C10600B62A5
:102AC0004868A04348600868961530430860486825
:102AD00017153843486088688008C007FBD0086B2A
:102AE000A84308630868B0430860032000068861B3
:102AF00048682043486088684008C007FBD01068D9
:102B0000C008C000801C10600B624868C008C0008C
:102B1000401C4860486B4007400F0128FAD11068FC
:102B20001021084310601068090208431060F0BDCE
:102B300000810840008308400080084000A1064052
:102B4000000208408900081810214030002A02685D
:102B500001D00A4300E08A430260704789000818E8
:102B6000016A03239B0499430162016A11430162D4
:102B7000704702220029016901D0114300E091430E
:102B8000016170470021017001224170120442600E
:102B90008160017370470000F0B501263604B7105C
:102BA000351285B0002401232A4639463046FEF707
:102BB00081FA03221202012339463046FEF77AFADF
:102BC000042240210020FEF7DBF9042280210020AE
:102BD000FEF7D6F9042211460020FEF7D1F90422AF
:102BE00008210020FEF7CCF90122CC212848FEF76D
:102BF0004DFC132168460180611E418004710294DE
:102C00008581244D6946284600F028F96946224806
:102C100000F024F96846FFF7B5FF02276846077001
:102C200044700196029404736946284600F0E4F863
:102C300003266846067044706946284600F0DCF8B2
:102C40006846077044706946134800F0D5F8684636
:102C5000067044706946104800F0CEF80122042145
:102C6000284600F071F8012208210B4800F06CF8AA
:102C70000A49F8020860401008600121284600F067
:102C800019F80121044800F015F805B0F0BD000066
:102C900000000B4000E0064000F0064000E100E0CC
:102CA000C943C167BFF34F8F7047C943C167BFF3C3
:102CB0004F8F70470029016902D00122114301E0C2
:102CC00049084900016170477FB50024012221466F
:102CD000120701230846FEF7EDF969460C801148FA
:102CE0007D2109010068FDF747FA6946401E4880CA
:102CF0000C710294FF240C4D01348C81284600F0A5
:102D0000ADF821462846FFF7CBFF084B62011A6059
:102D100001222146284600F017F801212846FFF736
:102D2000C9FF7FBDF40000200040034000E100E047
:102D3000C26F406F0A400840002A03D0002801D02B
:102D40000120704700207047002A426F01D00A43DB
:102D500000E08A4342677047F0B50C78A200121871
:102D6000154613469035A032AE4694466206214D74
:102D70004033120EA84201D1032400E00124944004
:102D80001C4E056DE44325400565456D2540B04268
:102D90008E7902D1CF797F003E4396402E4346651F
:102DA000144FB84208D1C66E4D7A26400C7A6D0099
:102DB0002C4394403443C4661C68FF250835AC435B
:102DC0001C601C684D882C431C604C8973461C6039
:102DD0008C8963461C60B84206D10B794979490059
:102DE0000B439340016D02E0036D097991400B4361
:102DF0000365F0BD00C00240F3B54A7881B00C46CF
:102E0000002A22D00027012563682D04AB4200D19F
:102E10005D00217800291AD00026207B00900198BF
:102E200000F08EFB2178A2680198FFF797FE207BC7
:102E300000902B463A463146019800F081FB31461E
:102E4000A2680198FFF78AFEFEBD0127DBE7012695
:102E5000E3E78900081890300260704710B5024619
:102E60004B88803293600B885360036803242404EA
:102E7000A3430360036801242406A343036003689B
:102E80008C6823430360044B984201D10B79D360D3
:102E90008989816710BD000000C00240F8B501219A
:102EA00005200022890300040123FEF703F9164CD4
:102EB000012221460220FEF763F8A51C01222946C3
:102EC0000020FEF75DF8114E012221463046FEF744
:102ED00069FB0F4F012229463846FEF763FB0022AB
:102EE00021463046FEF788FA002229463846FEF78A
:102EF00083FA012221463046FEF7C8FA012229460C
:102F00003846FEF7C3FAF8BD0104000000400B404C
:102F100000000B40FEB55B48FF220088F5325A4D99
:102F20005A4E00245A4990420BD2002808D05948E2
:102F300028603060EC61F46101204870FEF74AFDC2
:102F4000FEBD9042FCD35248412740783F060128FD
:102F500017D15148286030604D4A0520105600288E
:102F600004D0411C07D0012808D009E04B48E86193
:102F70004B48F06104E0EC61F76101E0EF61F4615E
:102F80005470FFF7D9FCFFF781FC41498B78C87872
:102F90000343087A9E46034300930190487A84468F
:102FA0000343404808D18A7A012A05D18A79002A48
:102FB00002D1CA79002A04D03549897A0B4307D057
:102FC0000EE03949296031603449E96134494FE004
:102FD0002F4A9279012A03D12D4AD279002A03D0AF
:102FE0007246002A07D016E0304929603160EF614F
:102FF000F4610460FEBD019A012A0CD16246002AE8
:1030000009D1002907D1224A9279002A03D1204A06
:10301000D279002A04D01E4A9279134306D009E0DF
:10302000224929603160EC61F761E2E7184BDB79F6
:10303000012B17D0009B002BDCD16346012BD9D18B
:10304000134B0029D6D1002AD4D1D9790029D1D166
:103050000068174988420DD9144828603060EC6137
:10306000F761FEBD1049296031601249E9611249DA
:10307000F161BEE71148286030600F48E8610D48F3
:10308000F061FEBD160000201C0A0020600A00202E
:10309000BC0000200000B4420000C8410000C04055
:1030A0000000A040B800002000000C4200002042B8
:1030B000B80B00000000F041000020C100003442C5
:1030C000F8B50125364EAD0229463046FEF77FFAA7
:1030D000344C012160723046FEF779FA2946324DB0
:1030E000A0722846FEF773FA207201212846FEF7E7
:1030F0006EFAE07102212846FEF769FAA071237A80
:10310000657AA27A5919E67989180918B446891995
:10311000CEB200270121E672012D09D0012B07D084
:10312000012A09D06246012A08D0012806D006E00B
:103130000020C043207102E0277100E02171207956
:103140006071032E26D3207B002822D12173E772E1
:103150002078164A401CC0B2207061731278144B5C
:10316000002A02D0012A02D00BE0124A00E0124AE3
:10317000D1711988081A5080810040181080FDF71D
:10318000C7FF102000900323227804214820FFF776
:1031900043F9F8BD607B0028FBD12773F8BD000020
:1031A00000400B40BC00002000000B403D00002010
:1031B0004C000020E80A0020F80A002070B50C46F8
:1031C0000A460C4D01462869801CFCF7EBFFE0170E
:1031D000000E01190A122869214602704170FF3061
:1031E000FF3002302861A969884201D10248286174
:1031F00070BD0000CC000020081B00203EB500245C
:1032000009212246C90201231046FDF753FF01217F
:10321000062209030220FDF7B3FE0121062249031D
:103220000220FDF7ADFEE12040020090FF200130BA
:1032300069468880CC800C814C810B4C204600F084
:1032400099F801220021204600F0E3F801221146FE
:10325000204600F0DEF8054AA10311600122114664
:10326000204600F0C9F83EBD0010044000E100E037
:1032700010B5114C2021204600F076F800280FD020
:103280000E480F4A00780F4900280AD02368C86802
:10329000135400280CD00C4B00221A60401CC8604C
:1032A00010BD20680028FBD02368C8681354F5E7D8
:1032B00001220A70F2E7000000100440CC00002058
:1032C000F800002010000020B000002010B52021E0
:1032D0004C06204600F048F8002809D0204600F0AF
:1032E00093F8044B1A46083A91785854491C917047
:1032F00010BD0000180000203EB50024FF2541212C
:1033000022460135090201231046FDF7D3FE0622AD
:1033100029460020FDF734FE062202210120FDF798
:103320002FFE4B20C001009068468580C480048138
:103330004481AC056946204600F01CF801220021BA
:10334000204600F066F801221146204600F061F8A0
:10335000044AE111116001221146204600F04CF8A8
:103360003EBD000000E100E00069084000D00120FF
:103370007047000070B504460D46C88889886268A9
:1033800008432989184B1A401143084369890843A7
:10339000606001208007844206D11820FDF770FE8E
:1033A0002968FCF7E9FE60621048844206D11A20C1
:1033B000FDF766FE2968FCF7DFFE60620C48844278
:1033C00006D11C20FDF75CFE2968FCF7D5FE606283
:1033D0000848844206D11E20FDF752FE2968FCF7FA
:1033E000CBFE606270BD0000FCE0FFFF0000044007
:1033F0000010004000100440002AC26801D00A43B7
:1034000000E08A43C2607047006880B27047016084
:10341000704710238B404168002A01D0194300E017
:10342000994341607047000070B5114D2868C82865
:1034300014D9104C00266078002810D001280DD136
:103440006670204608302E6001784278090289189B
:10345000E18080782D38E07000F038FD70BD0120EB
:103460002179800700F008F8012060702E6070BD9F
:10347000940000201000002010B50446FFF7C7FF9D
:1034800080212046FFF770FF0028F9D010BD000012
:10349000F8B50126124F0446F6030022314638469D
:1034A000FEF7C2F80025E009C001802815D00022EF
:1034B00010210C48FEF7B8F86006040E01223146D0
:1034C0003846FEF7B1F8002231463846FEF7ACF830
:1034D0006D1CEDB2082DE6D3F8BD0122E8E700002F
:1034E00000200B4000400B4010B50446FEF72EFABA
:1034F0007820FFF7CDFFFEF75DFA0020FFF7C8FF49
:10350000FEF758FA2046FFF7C3FFFEF753FAFEF71F
:103510003BFA10BD10B50446FEF718FA7820FFF705
:10352000B7FFFEF747FA4020FFF7B2FFFEF742FA77
:103530002046FFF7ADFFFEF73DFAFEF725FA10BD76
:10354000F0B594468A001418026D4F000121B9406D
:103550008A430265256A466D074A1540059A13435A
:103560002B43236262468E43BA4032434265026D6A
:103570000A430265F0BD0000F0FFFCFF0FB410B578
:1035800004A9074B02AA039800F0FEF8044602A91A
:10359000002000F095FC204610BC08BC04B0184781
:1035A000C13E000037B514460846064B6A46214620
:1035B00000F0EAF804466946002000F081FC20464D
:1035C0003EBD0000C13E00002021020C01D01021B0
:1035D0001046020A01D010460839020901D01046EF
:1035E000091F820801D01046891E420801D0881E9A
:1035F0007047081A704730B47446641E2578641CFE
:10360000AB4200D21D46635D5B00E31830BC184737
:1036100002E008C8121F08C1002AFAD1704770479B
:10362000002001E001C1121F002AFBD170470000F9
:10363000F0B51FB484B007980699020D014314D069
:103640004A484B491018484305140F9801280E9812
:103650001CD0281A401C0024464E47490094019172
:103660000290002814DA474227E00F98012443A370
:10367000012808D0002104980F9A84600360C2607A
:10368000416009B0F0BD0E98C143F4E74042E2E763
:10369000074612E0F80707D0224633460199009802
:1036A000FCF7BAFF019100902246334610461946B6
:1036B000FCF7B2FF04460E467F10002FEAD10298B5
:1036C000019B0028009A0799069802DAFCF7A4FFEC
:1036D00001E0FDF709F804460E460022284BFDF7ED
:1036E00073FA03D80020C043014607E00022254BAF
:1036F00020463146FCF7DEFEFDF746FA102409E0CD
:10370000002C0ADB0A220023FDF7F2F8059B303279
:103710001A55641E02460A43F2D11122641C059B0D
:10372000121B1C190F9B012B03D0012308430ED140
:103730000AE0084304D011200E9000200F9084E787
:103740000E98151A6D1E0BE00E98824202DD0023C2
:103750006D1C03E0824201DA00236D1E002BEED0C7
:1037600004980F998260C16030C08AE701FCFFFFB6
:10377000104D0000000024400000F03F3000000029
:103780000000F0430000E03FFFB597B0064600257B
:1037900018E2252877D100242746FD49049400E04B
:1037A0000443761C32780120203A90400842F7D139
:1037B00030782A280ED00222307801463039092983
:1037C00016D804990A235943303940181443761CFB
:1037D0000490F1E7189802C804911890002904DABF
:1037E0000120400304434842049002200443761C15
:1037F00030782E2814D1042004437078761C2A28AF
:1038000009D11898761C80C8189009E00A214F4306
:10381000303FC719761C3078014630390929F5D96F
:1038200030786C2810D006DC4C281AD068280ED0CE
:103830006A2817D104E0742813D07A2812D110E036
:103840000120400504430CE00121090501E00321AA
:1038500009050C437178814203D101200005241829
:10386000761C761C3078119066280BD013DC582813
:103870007DD009DC00287BD04528F6D04628F4D03E
:1038800047281AD1A5E118E0632835D0642870D004
:10389000652812D19DE170286CD008DC6728F1D032
:1038A00069287BD06E280DD06F2806D1BAE0732826
:1038B0002ED0752871D0782859D01A9A1999904726
:1038C0006D1C7EE16002400F022809D003280DD054
:1038D0000428189801680DD00D60001D189070E143
:1038E0001898EA1701680D604A60F6E718980168B1
:1038F0000D80F2E70D70F0E718986A4601781172B2
:10390000001D18900020507202A80090012005E0D0
:10391000189802C8189000200091C04361070DD587
:10392000002101E00199491C0191B94212DA81425A
:10393000F8DB009A515C0029F4D10BE0002101E092
:103940000199491C01918142FADB019A0099895C35
:103950000029F5D1019904981A9B471A2146384647
:10396000199A00F097FA0199401945180BE04FE0B9
:103970002CE113E04EE0009800990078491C00917A
:103980001A9A199990470198401E0190401CF2D153
:10399000214638461A9B199A10E137E00A20002187
:1039A000009001916002410F022907D0189A01CAC4
:1039B0001892C2179446032908D00AE01898C01D2F
:1039C000C108C90005C91891944607E000B2C217A2
:1039D0009446042902D140B2C1178C4600226146A8
:1039E000944506DA0A460021404291418C462D2139
:1039F00002E0210504D52B216A461173012103E061
:103A0000E10701D02021F7E7029155E00A200AE002
:103A1000102008E0102000900021042004430191B0
:103A2000082703E008200021019100906002410F67
:103A3000022907D0189A01CA189200229446032935
:103A400008D008E01898C01DC108C90005C9189120
:103A5000944603E080B2042900D1C0B20021029153
:103A6000210729D51199702906D0009A1021019BB0
:103A70004A401A4305D00EE040216A4611730121E5
:103A800008E06146014306D030216A46117311995E
:103A9000517302210291009A0821019B4A401A4366
:103AA0000AD16146014301D1610705D530216A463B
:103AB000117301217F1E02911199582904D035A15B
:103AC0000E910DA90D910DE037A1F9E76146019B1B
:103AD000009AFCF70DFF0E9B8C469B5C0D9A521EC4
:103AE0000D92137061460143F0D10D9805A9081A93
:103AF00020300190600703D501200004844300E0DA
:103B000001270198874201DD381A00E00020019961
:103B100000904118029809180498401A0490E00394
:103B200006D421461A9B199A049800F0B3F9451956
:103B3000002706E003A81A9AC05D199990476D1CEA
:103B40007F1C02988742F5DBE0030CD521461A9BC7
:103B5000199A049800F09EF9451904E01A9A302049
:103B6000199990476D1C0099481E00900029F5DCBA
:103B700008E00D980D990078491C0D911A9A199931
:103B800090476D1C0199481E01900029F1DC63E10A
:103B90000928010030313233343536373839616223
:103BA00063646566000000003031323334353637E7
:103BB00038394142434445460000000000F05AF9BC
:103BC0004519761C3078002800D0E2E528461BB065
:103BD000F0BD600700D406271898C01DC108C900B1
:103BE00048680A680831C30FDB071891190001D033
:103BF0009CA108E0210501D59BA104E0E10701D0CB
:103C00009AA100E09AA1430011985B0810916528E1
:103C10000CD006DC452809D046281DD0472841D1C4
:103C200041E0662818D067283CD13CE00021112FE4
:103C300001DB112000E0781C0191009008A911A877
:103C4000FFF7F6FC139905910021119A15927F1C3C
:103C500012980197009150E00120C00703900120C5
:103C6000019008A9009711A8FFF7E2FC139A149994
:103C700005920022119B009212981593059A0192C9
:103C8000002901D0104602E0791C40180190381A32
:103C900001D5019804E04042401E0090781C01903C
:103CA000C01B029043E0012F00DA01270021112FF1
:103CB00001DD112000E038460191009008A911A80B
:103CC000FFF7B6FC13990591119A002112981592ED
:103CD0000091019721070CD40599B94201DB0199A4
:103CE00000E00191012904DD159A491E515C30293B
:103CF00006D0B84201DA011D05DA0121029115E072
:103D00000199491EEDE7002805DC00994118009152
:103D10000199091A03E0019A411C914200DD0191C9
:103D20000099401A401C02900120C0070390200710
:103D300006D402990198814202DB0020C043029020
:103D400000206946C87707AF012103980337C907E8
:103D5000884224D0022011902B2012900398002832
:103D60000CDA404203902D20129007E00A210398BC
:103D7000FCF702FA30317F1E039039701199481E0A
:103D800011900029F2DC03980028EFD1791E1298D7
:103D900008703078202108404530BF1E387006A8D2
:103DA000C01BC01D039010980078002800D001208F
:103DB000019941180298C017091803980918049826
:103DC000401A401E0490E00306D421461A9B199A1B
:103DD000049800F05FF8451910980078002803D087
:103DE0001A9A199990476D1CE00324D521461A9B15
:103DF000199A049800F04EF845191CE00098002824
:103E000007DB00990598884203DD1598405C1999F5
:103E100001E0199930201A9A904700986D1C401CB7
:103E200000900298401E0290002804D11A9A2E2079
:103E3000199990476D1C0199481E01900029DDDCFD
:103E400005E038781A9A7F1C199990476D1C0399E0
:103E5000481E03900029F4DC21461A9B199A049805
:103E6000ACE600002D0000002B0000002000000048
:103E700000000000F8B5044600251E4617468804D9
:103E800004D405E039462020B0476D1C641EF9D5E6
:103E90002846F8BDFFB50446002581B01E46C8037C
:103EA00001D5302700E02027880404D505E03846F6
:103EB0000399B0476D1C641EF9D5284605B0F0BDC6
:103EC0000A68531C0B60107070470000054B0020FF
:103ED0001A460146083A1954401CC0B29170032892
:103EE000F9D3704718000020F8B51D4F3868142822
:103EF00035D91C4D686B28641B4C606B20641B48D3
:103F000081682962C0682062E8692946FEF7B8FC2A
:103F1000E0692146FEF7B4FC696B154D6868FCF753
:103F200032FA6860616B0646A868FCF72CFA114902
:103F3000114A124BA8608E4201DD696002E0964290
:103F400000DA6B60884201DDA96002E0904200DA8D
:103F5000AB60A9686868FEF7EDF800203860F8BD2E
:103F60008C0000201C0A0020600A0020F8090020B4
:103F70000400002000E09245000048430000C842D1
:103F800070B57D250446ED0002E0284600F006F8F5
:103F90002046641EA4B20028F7D170BD10B50446B7
:103FA0000420C043FEF7EEFB114810490068FCF7FF
:103FB000E3F8FEF711FC0020FEF702FC0020FEF7FC
:103FC000EDFB0120FEF7EAFB00210A4A03E013693A
:103FD000D803FCD5491CA142F9D30120C043FEF708
:103FE000DDFB0020FEF7DAFB10BD000000127A00B6
:103FF000F400002000E000E010B50A4CA068206149
:10400000E068606121680848FDF710FEA060616803
:1040100005481030FDF70AFEE06000202060606077
:1040200010BD0000F80900206000002010B5054C0C
:1040300020683C2805D900F007F8FFF7DDFF0020D5
:10404000206010BD9000002070B50020FEF7B2FA8D
:104050000B4B18800120FEF7ADFA04B25C80002003
:10406000185EFCF7B9FB074D2968FCF78CF928604E
:104070002046FCF7B1FB6968FCF785F9686070BD04
:1040800050000020F809002010B5054C7D21206863
:104090000901884203D9FDF701FB0020206010BD13
:1040A000A400002003211A20FEF756F802210D205B
:1040B000FEF752F8FDF7ECFDFDF790FBFFF71CF95A
:1040C000FFF79CF8FEF768FDFDF70AFAFEF7C8F85F
:1040D000FDF792FCFEF7E2FEFEF7FAF9FDF7DEF9D6
:1040E000FDF77AFAFDF742FE10231FA204210020FB
:1040F000FEF7C8F9002110231EA20846FEF7C2F9F8
:1041000010231EA206210020FEF7BCF910231CA2DA
:1041100006214020FEF7B6F9FDF7B8FAFEF7D4FD08
:10412000184D0024184E194FFFF7AEFFFDF7F6FFAC
:10413000FEF7C6FF2878012804D000280BD00228FB
:1041400009D00EE0FEF7E6FEFFF7CEFEFFF76CF9B2
:10415000FFF76CFF05E0F461FC61FFF767FFFFF715
:10416000C3FEFDF78FFBDFE7206E6F77726F6F6D19
:104170003A00000020726F6F6D3A000020573A003D
:1041800020243A003C0000201C0A0020600A002085
:104190000346012000E058430A46491EC9B2002ADE
:1041A000F9D170470649002805D02D2805D05A2896
:1041B00005D1042002E0022000E0032008707047CF
:1041C000200000200649002805D02D2805D05A28B7
:1041D00005D1042002E0022000E00320487070476F
:1041E0002000002010B50A480078002806D00128D9
:1041F00007D002280BD1102306A204E0102307A247
:1042000001E0102307A202213820FEF73BF910BD80
:104210003C0000206E6F74616B65200073706172EA
:104220006520200072756E6E696E670000000000E8
:1042300000000000002F000000000700070000142D
:104240007F147F1400242A7F2A120062640813233B
:1042500000364955225000000503000000001C22D2
:104260004100000041221C000014083E0814000810
:10427000083E0808000000A06000000808080808C0
:10428000000060600000002010080402003E514958
:10429000453E0000427F40000042615149460021F6
:1042A00041454B31001814127F1000274545453910
:1042B000003C4A494930000171090503003649496B
:1042C000493600064949291E000036360000000024
:1042D000563600000008142241000014141414146F
:1042E0000000412214080002015109060032495918
:1042F000513E007C1211127C007F49494936003E34
:1043000041414122007F4141221C007F49494941EE
:10431000007F09090901003E4149497A007F0808E8
:10432000087F0000417F4100002040413F01007FA5
:1043300008142241007F40404040007F020C027F71
:10434000007F0408107F003E4141413E007F090983
:104350000906003E4151215E007F091929460046A9
:10436000494949310001017F0101003F4040403F80
:10437000001F2040201F003F4038403F00631408CA
:1043800014630007087008070061514945430000A5
:104390007F41410000552A552A55000041417F00C8
:1043A00000040201020400404040404000000102BD
:1043B0000400002054545478007F484444380038A6
:1043C0004444442000384444487F0038545454182E
:1043D00000087E0901020018A4A4A47C007F080440
:1043E00004780000447D4000004080847D00007F10
:1043F000102844000000417F4000007C041804782D
:10440000007C0804047800384444443800FC242428
:1044100024180018242418FC007C08040408004810
:104420005454542000043F444020003C4040207C31
:10443000001C2040201C003C4030403C0044281020
:104440002844001CA0A0A07C004464544C441414D4
:10445000141414140000000000000000000000000C
:1044600000000000000000F8000000000000003321
:104470003000000000100C06100C060000000000C8
:104480000000000040C07840C0784000043F0404B1
:104490003F040400007088FC08300000001820FF72
:1044A000211E0000F008F000E018000000211C03AD
:1044B0001E211E0000F00888700000001E21232429
:1044C0001927211010160E00000000000000000047
:1044D00000000000000000E01804020000000007D7
:1044E0001820400000020418E000000000402018DE
:1044F00007000000404080F0804040000202010FB1
:1045000001020200000000F0000000000101011F94
:1045100001010100000000000000000080B07000F8
:104520000000000000000000000000000001010188
:104530000101010100000000000000000030300017
:1045400000000000000000008060180400601806F1
:104550000100000000E010080810E000000F10202B
:1045600020100F00001010F8000000000020203F75
:1045700020200000007008080888700000302824FF
:1045800022213000003008888848300000182020A0
:1045900020110E000000C02010F8000000070424C5
:1045A000243F240000F8088888080800001921200A
:1045B00020110E0000E0108888180000000F112064
:1045C00020110E0000380808C83808000000003F1D
:1045D000000000000070880808887000001C22217C
:1045E00021221C0000E010080810E0000000312229
:1045F00022110F00000000C0C000000000000030C9
:10460000300000000000008000000000000080601A
:10461000000000000000804020100800000102049B
:104620000810200040404040404040000404040482
:10463000040404000008102040800000002010083E
:1046400004020100007048080808F0000000003073
:1046500036010000C030C828E810E0000718272401
:1046600023140B000000C038E0000000203C2302AF
:104670000227382008F8888888700000203F202012
:1046800020110E00C0300808080838000718202044
:104690002010080008F808080810E000203F20203B
:1046A00020100F0008F88888E8081000203F20201C
:1046B0002320180008F88888E8081000203F200010
:1046C00003000000C0300808083800000718202048
:1046D000221E020008F808000008F808203F210107
:1046E00001213F20000808F8080800000020203FB2
:1046F0002020000000000808F8080800C080808022
:104700007F00000008F888C028180800203F20011A
:104710002638200008F8080000000000203F202074
:104720002020300008F8F800F8F80800203F003F8B
:10473000003F200008F830C00008F808203F2000A3
:1047400007183F00E01008080810E0000F102020B4
:1047500020100F0008F808080808F000203F210189
:1047600001010000E01008080810E0000F182424E0
:1047700038504F0008F8888888887000203F200053
:10478000030C302000708808080838000038202109
:1047900021221C00180808F8080818000000203F13
:1047A0002000000008F808000008F808001F20207A
:1047B00020201F000878880000C83808000007384B
:1047C0000E010000F80800F80008F800033C07009C
:1047D000073C0300081868808068180820302C0304
:1047E000032C30200838C800C83808000000203FDB
:1047F0002000000010080808C838080020382621CA
:1048000020201800000000FE020202000000007FCD
:1048100040404000000C30C00000000000000001DB
:104820000638C00000020202FE00000000404040C6
:104830007F000000000004020202040000000000EB
:104840000000000000000000000000008080808068
:104850008080808000020204000000000000000050
:1048600000000000000080808080000000192422E9
:1048700022223F2008F8008080000000003F112025
:1048800020110E000000008080800000000E11202A
:1048900020201100000000808088F800000E112008
:1048A00020103F200000808080800000001F222216
:1048B00022221300008080F0888888180020203F82
:1048C000202000000000808080808000006B949495
:1048D0009493600008F8008080800000203F210051
:1048E00000203F2000809898000000000020203F1A
:1048F00020200000000000809898000000C0808008
:10490000807F000008F8000080808000203F2402A3
:104910002D302000000808F8000000000020203F93
:10492000202000008080808080808000203F200048
:104930003F20003F8080008080800000203F2100D9
:1049400000203F200000808080800000001F202089
:1049500020201F00808000808000000080FFA120B8
:1049600020110E000000008080808000000E1120C9
:1049700020A0FF80808080008080800020203F2158
:10498000200001000000808080808000003324240B
:1049900024241900008080E0808000000000001FB7
:1049A000202000008080000000808000001F202068
:1049B00020103F20808080000080808000010E3029
:1049C0000806010080800080008080800F300C038A
:1049D0000C300F0000808000808080000020312E8D
:1049E0000E312000808080000080808080818E7069
:1049F0001806010000808080808080000021302C1B
:104A00002221300000000000807C02020000000033
:104A1000003F404000000000FF00000000000000D8
:104A2000FF0000000002027C800000000040403FC8
:104A30000000000000060101020204040000000062
:104A400000000000DDDDDDDDDCBBBBDDDDDDDDDD4F
:104A5000DDDDDDDD988888888888888877777777B6
:104A60007788888885555556666666666666666682
:104A7000666888888333333222222222222222222D
:104A80002228888D7B226D6574686F64223A2274B7
:104A900068696E672E6576656E742E70726F7065CC
:104AA0007274792E706F7374222C226964223A22F8
:104AB0003133353037303735222C22706172616DD9
:104AC00073223A7B2254494D4530223A25642C22E8
:104AD00044495330223A25642C2254494D45312211
:104AE0003A25642C2244495331223A25642C22531E
:104AF0005441544530223A25642C225354415445A4
:104B000031223A25642C22524F4F4D30223A2564EF
:104B10007D2C2276657273696F6E223A22312E30B7
:104B20002E30227D000000007B226D6574686F646A
:104B3000223A227468696E672E6576656E742E70EF
:104B4000726F70657274792E706F7374222C226983
:104B500064223A223133353037303735222C2270F7
:104B60006172616D73223A7B225049434B5F55500D
:104B700030223A25647D2C2276657273696F6E222D
:104B80003A22312E302E30227D0000007B226D65CE
:104B900074686F64223A227468696E672E73657256
:104BA000766963652E70726F70657274792E7365A5
:104BB00074222C226964223A222564222C227061FC
:104BC00072616D73223A7B22524F4F4D31223A254A
:104BD000647D2C2276657273696F6E223A22312EC3
:104BE000302E30227D0000007B226D6574686F647A
:104BF000223A227468696E672E6576656E742E702F
:104C0000726F70657274792E706F7374222C2269C2
:104C100064223A223133353037303735222C227036
:104C20006172616D73223A7B225049434B5F55504C
:104C300031223A25642C2253454C4C5F43414C4C65
:104C4000223A25647D2C2276657273696F6E223A52
:104C500022312E302E30227D000000007C4C0000DE
:104C600000000020F800000010360000744D000025
:104C7000F8000020103E0000203600000000000078
:104C80000000000000000000000000000000000024
:104C900055000000000000000000000000000000BF
:104CA0000000000000000000000000000000000004
:104CB000000000000000000000000000E803000009
:104CC000E8030000000000000000000000000000F9
:104CD0000000000000000000000000006666663F63
:104CE0000000000000000000000000006666663F53
:104CF00000000000000000000000000000000000B4
:104D000000000000000000000000000000000000A3
:104D10000000000000000000000000000000000093
:104D20000000000000000000000000000000000083
:104D3000000000000000000064000000000000000F
:104D40000000000000000000000000000000000063
:104D50000000000000000000000000000000000053
:104D60000000000000000000000000000000000043
:044D7000006CDC02F5
:040000050000016591
:00000001FF
