:020000040000FA
:1000000090030020C100000079150000710D000070
:10001000FFFFFFFFFFFFFFFFFFFFFFFFFFFFFFFFF0
:10002000FFFFFFFFFFFFFFFFFFFFFFFF011B0000C0
:10003000FFFFFFFFFFFFFFFF31190000B91D0000A8
:1000400035010000350100003501000035010000D8
:1000500035010000350100003501000035010000C8
:1000600035010000FFFFFFFF350100002D0D0000EE
:10007000010D00007D1A000035010000FFFFFFFFA9
:10008000FFFFFFFF350100003501000035010000D2
:10009000350100003501000035010000A1270000F6
:1000A0003501000035010000350100003501000078
:1000B0003501000035010000350100003501000068
:1000C0001D4880471D4880471D4800471D4801695D
:1000D000002908D14169002905D18169002902D18F
:1000E000C169002909D01848C1680901090D002912
:1000F0000ED005290CD006290AD0BFF34F8F134824
:100100001349016013491248C860BFF34F8FFEE7DF
:100110000E4801680E48884200D070470E480F49CB
:1001200001600A480E4901607047FEE7FEE7FEE7FE
:10013000FEE7FEE7FEE70000CD000000BD1D000069
:100140006501000000030840800108400000002015
:100150000400FA0500ED00E0008108400100000005
:10016000000000000348854600F094FB004800476B
:10017000BD2D00009003002030B50B460146002045
:100180002022012409E00D46D5409D4205D31D469D
:100190009540491B2546954040191546521E002D95
:1001A000F1DC30BD70B500242546002801DA0124B9
:1001B0004042002901DA01254942FFF7DDFFAC4248
:1001C00000D04042002C00D0494270BDF8B5024634
:1001D0004A40D40F42004B0052085B089A4202D2B8
:1001E0000246084611464A0023D0C30D4A00DDB23C
:1001F000120EAD1A202D35DA49020126490AF605FC
:100200008A19002C00D0524220214F1B1146B940C0
:100210002A411018C20D9A4221D0002C17D0012D6E
:1002200008DCDA05801AD20F8019D207DBB200F0A1
:1002300099FAF8BDDA05801A012340001B06C018A0
:1002400080185A428018CA0F1043490007E0490835
:10025000C2071143DA05801A80194008801800F09F
:1002600079FAF8BD61000122511A001BF7E701225B
:10027000D2075140AAE70122D2075040A6E7024622
:1002800070B54A40D30FDB0740002DD04A002AD07A
:10029000010E140E000212020919400A520A8418B3
:1002A000E50104465443000A120A2E045043A419DF
:1002B0004219200CC543AA18120C0125AD03521C8B
:1002C000521912047F39240400D0521C104301D467
:1002D0004000491EC2B20C06C0092018401C40084C
:1002E000802A02D003E0002070BD400840000029B1
:1002F00000DA0020184370BDF0B5074608465840A4
:1003000087B0C00F049048000E46590040084908C5
:10031000BC1A884105D2384631461E4617460B4660
:1003200002465800400810434CD0300D0390400561
:100330005900400D490D0590401A0290402872DA8C
:1003400018030121000B090508430190049800924D
:10035000002805D001995242002088410092019066
:10036000029840210A1A0199009800F0BFF9054649
:100370000C466B4607CB00F0DAF9C0197141039ABD
:100380000E0D0023D71756401A467A40164344D024
:10039000049A002A2DD0029A012A039A15DC12052C
:1003A000C01A914101263605001C7141D20F059EED
:1003B000D2070093019202962A46234600F018FACB
:1003C00007B0F0BD38463146FAE71605224A0F4617
:1003D000B218C01AB74101210905001C4F4100188D
:1003E0007F41114618187941E20F10436D1964419D
:1003F00013E0E2076D0815436408C2071443039A2B
:1004000001261205C01A91413605001C7141CE0724
:10041000400830434908C01851412A46234600F09D
:10042000DAF9CDE7FFE7049801224000C117121A5C
:1004300000238B4104983146C417381AA141EEE7D6
:1004400030B40124E407634030BC55E730B40124E4
:10045000E407614030BC4FE70000E0FFF0B51FB497
:1004600088B00B990998002448400999C00F4900A9
:1004700049080991C0070B990090490049080B9160
:1004800009990898A64608431CD00B990A98084376
:1004900018D0099801244000420D4800410D0998E8
:1004A00024050003000B204309900B980003000B68
:1004B00020430B9050181C4940180022019014460C
:1004C000104605E0002001460DB0F0BD032801DA1A
:1004D000034600E003239C46C11A0AAE0AE05F000F
:1004E00008ADED5B4F00F75B7D430027AA187C4108
:1004F000491C5B1E6145F2DD410004AB5A522104E8
:10050000120C0A43240C401C0828DFDB01980290DF
:100510000099704601910090059B049A07990698EE
:1005200000F066F9D0E700000DFCFFFFF0B50C46C7
:100530005C4085B0E40FE40703944C000026640897
:1005400059009446490802460296224321D0624649
:100550000A431ED06200570D4A000E032303550DB7
:10056000012402462C492405781B1B0B360B40182E
:1005700023432643614600901C46501AB44103D3DE
:100580000098401C009002E0921800985B410028FF
:1005900003DA0020014605B0F0BD00200121090565
:1005A0000746864611E064461D46141BB54106D336
:1005B0006546521BB341744607430C43A646CD071C
:1005C00040084908284392185B4105460D43EAD18B
:1005D0001046184313D060461946504071400843F6
:1005E00006D06046101AB34106D20122002306E06D
:1005F00000220123DB0702E00122D24353100098BE
:1006000074460105381C6141029C039D0019694133
:1006100000F0E1F8BFE70000FD030000C217C10FC2
:10062000504010B54018CA079623002100F09AF8F0
:1006300010BDC20F410040020123400ADB05D20772
:10064000090EC0187F2901DA00207047962903DCC3
:100650009623591AC84001E096398840002AF4D000
:1006600040427047C20FD207400040080BD0C10D76
:100670000723DB01C91840020905400A1143C208DB
:10068000400711437047002001467047CB0FDB073E
:10069000490010B5490802460A4307D00A0D07244D
:1006A0000903E401090B121B002A01DC002010BD24
:1006B000C900440F0C43C100E018D205801800F0B7
:1006C00049F810BD0122D207002800DB101A0029CA
:1006D00000DB511A814270470122D207002800DB5B
:1006E000101A002900DB511A8842704710B5202AE1
:1006F00004DB0146203A9140002010BD91402023A8
:100700009C1A0346E3401943904010BD10B5202ABF
:1007100004DB0846203AD040002110BD0B46D340F0
:10072000D0402024A21A91400843194610BD10B5AC
:10073000202A06DBCB170846203A1041C1170B438D
:1007400006E00B461341D0402024A21A91400843F2
:10075000194610BD002904DA401C490001D14008A7
:100760004000704770B40024050C05D1102400042B
:1007700002D1002921D01124050E01D10002083434
:10078000050F01D10001241D850F01D18000A41C9B
:10079000002801DB4000641C002908D020252E1B06
:1007A0000D46F540A14000D0012129430843010630
:1007B0001B1B000ADB1D02D5002070BC7047DB0547
:1007C000181880180029F8DA401C4900F5D170BCCF
:1007D00040084000704710B5002B08DA0024401C88
:1007E000614192185B411A4301D14008400010BD9D
:1007F000F0B51FB482B005460C0003D0084602F0E5
:1008000077F902E002F074F92030024600902146A8
:100810002846FFF76BFF049B059A04460F461843D2
:100820001143084314D0184610431BD000984021B0
:100830000A1A18460599FFF769FF05460E46009A01
:1008400005990498FFF752FF084305D0012004E002
:100850002046394607B0F0BD0020C11705430E43BE
:100860002C43374300990E986305401A7905E40A32
:1008700000220C43FD0A0A3002D500200146E9E7B8
:100880000105101969410C9C0D9D00196941FFF784
:10089000A2FFDFE7064C0125064E05E0E36807CC22
:1008A0002B430C3C98471034B442F7D3FFF75EFC5F
:1008B0000437000024370000F7B50B46009DED001B
:1008C000154EAA19002000240027002120E0002452
:1008D0000027FF258D401D40002D17D000200FE080
:1008E0001D46C54001268E403540002D07D08600AC
:1008F0000F25B5402C438600029DB5402F43401C78
:100900000828EDD31568A5433D431560121D083135
:100910000829DCDDFEBD00002020024070B5044641
:100920001F48406B4607760F00F03EF8206033000A
:1009300002F0F5F8081605080B16160E12162068B8
:10094000606010E0174860600DE0164860600AE0E3
:100950000120C003606006E07D200002606002E0CC
:100960000020606000BF00BF0D48056A052D02D35E
:100970006068400901E06068E840A0600848806A5B
:10098000072109040840050C072D04D10321A068A4
:10099000FFF7F2FB01E0A068E840E06070BD0000F6
:1009A0000080084000127A00F0B517480068FF2761
:1009B00001373840040A1448C069C50F124840681E
:1009C0007F003840460A002E01D10020F0BD002CE7
:1009D00001D10E4800E00D480346012D01D1184613
:1009E000F4E7094880690F27FF053840C10D002949
:1009F00000D110210448806903277F053840420D4B
:100A000018464843D040E1E70080084000127A00D1
:100A10007FB50446601180000A49461800252E2C37
:100A200000D10225E406E40E0321A140306808400D
:100A3000E04045196846FFF771FF0298E84004B0AE
:100A400070BD0000388008403FB50E4C606AE16A16
:100A5000226B0446009DAC4320460C46019DAC43EE
:100A600021461446029DAC432246002B05D0009C33
:100A70002043019C2143029C2243024C6062E162BC
:100A800022633FBD00800840002A03D003680B4367
:100A9000036002E003688B43036070470EB50020DB
:100AA0000090019002900121890301988843401829
:100AB000019049010098884340180090012368463E
:100AC00007C8FFF7C1FF012202210320FFF7F4FE50
:100AD00001220221064800F0E9F800220221044820
:100AE000FFF7D2FF01220221014800F031F80EBDCC
:100AF00000600B400EB50020009001900290012193
:100B0000890301988843401801900901009888439F
:100B1000401800900123684607C8FFF795FF01229F
:100B2000D1020220FFF7C8FE0122D102074800F0DF
:100B3000BDF800220121C902044800F0DBF80122BF
:100B4000D1020248FFF7A0FF0EBD000000400B409D
:100B5000002A03D043680B43436002E043688B43A1
:100B6000436070470EB50020009001900290012173
:100B700089030198884340180190890000988843B0
:100B8000401800900123684607C8FFF75DFF012267
:100B9000D1020020FFF790FE00220121C902074880
:100BA00000F084F800220121C9020448FFF76CFF1D
:100BB0000122D1020148FFF7CBFF0EBD00000B4020
:100BC0000EB5002000900190029001218903019848
:100BD000884340180190890000988843401800908D
:100BE00049000098884340180090490000988843C5
:100BF000401800900123684607C8FFF725FF01222F
:100C0000D1030020FFF758FE0122A8211046FFF76C
:100C100053FE012221490220FFF74EFE002201214E
:100C2000C9031F4800F042F80022A8211D4800F027
:100C30003DF8002219491C4800F038F80022012133
:100C4000C9031748FFF720FF0022A8211548FFF726
:100C50001BFF002211491448FFF716FF0122D103A0
:100C60000F48FFF711FF0122A8210E48FFF70CFFE4
:100C700001220A490C48FFF707FF0122D103084867
:100C8000FFF766FF0122A8210648FFF761FF012256
:100C900002490548FFF75CFF0EBD00000883000015
:100CA00000000B4000200B4000400B40002A06D102
:100CB00083680B438360C3688B43C3600EE0012AE3
:100CC00006D1C3680B43C36083688B43836005E030
:100CD00083688B438360C3688B43C360704702465D
:100CE000D3690B40002B01D0012000E000207047A9
:100CF00041627047002A01D0416200E08162704782
:100D000010B50421074801F049FA002808D0042151
:100D1000044801F0EEF904480068401C02490860EC
:100D200010BD000000E006404400002010B508217E
:100D3000074801F033FA002808D00821044801F0E0
:100D4000D8F904480068401C0249086010BD000042
:100D500000F006404800002010B5FFF7CBFEFFF77B
:100D60009DFE02210148FFF7C3FF10BD00600B404C
:100D700000BF024800680028FBD070470000002038
:100D800010B50122D1030A48FFF7B4FF0122102158
:100D90000848FFF7AFFF002210210648FFF7AAFF1F
:100DA00000220121C9030248FFF7A4FF10BD000083
:100DB00000200B4000400B4010B50122D103074832
:100DC000FFF798FF002210210548FFF793FF01224B
:100DD00010210348FFF78EFF10BD000000200B40DC
:100DE00000400B4010B50122D1030548FFF782FFF8
:100DF00000220121C9030248FFF77CFF10BD00005B
:100E000000200B4010B5012240210648FFF772FF79
:100E1000642001F02DFF002240210248FFF76AFF05
:100E200010BD000000200B400EB500200090019086
:100E30000290012189030198884340180190C9005C
:100E40000098884340180090890000988843401813
:100E500000900123684607C8FFF7F6FD0122FF2135
:100E600041311046FFF728FD012205210320FFF73D
:100E700023FD0122FF2141311148FFF717FF012215
:100E800005211048FFF712FF0122FF2141310C48D4
:100E9000FFF7FAFD012205210B48FFF7F5FD0122BE
:100EA000FF2141310648FFF753FE01220521064884
:100EB000FFF74EFE002240210148FFF71BFF0EBD49
:100EC00000200B4000400B4000600B4038B504464A
:100ED0000A2C20DC4D480068032813D24C480068D7
:100EE0000A2148434A4908600A212046FFF75AF977
:100EF0004748006808184649086044480068401C94
:100F000042490860102004230090414800210268F3
:100F1000302000F09BFC0B2C41D13D480068652837
:100F20000BD03B480068662807D03948006867281E
:100F300003D037480068682809D1102335A2022160
:100F4000302000F0CCFC00203049086013E0102372
:100F500032A20221302000F0C2FC00202C4908609F
:100F60002A490860102004230090294800210268C3
:100F7000302000F06BFC2B480078002803D10120C2
:100F80002849087002E00020264908701020042338
:100F90000090244802780621302000F057FC0C2CE9
:100FA0002DD100201A4908601849086010231EA29C
:100FB0000221302000F093FC1020042300901448FC
:100FC00000210268302000F041FC00201549087023
:100FD0001749087010200423009012480278062157
:100FE000302000F033FC64201249087010200423E4
:100FF0000090084602781946402000F027FC0D2C8E
:1010000002D101200A49087038BD000038000020D4
:101010003C00002072696768740000006572726F9E
:101020007200000034000020616761696E000000FA
:101030003000002094000020F0B58BB004460F462D
:101040006760A068E060E068FFF70CFB0391029026
:101050002068FFF707FB05460022104BFFF7F6F963
:1010600001910090039B029AFFF7F8F9079106900F
:1010700061682068FFF703F90546FFF7F3FA059169
:101080000490079B069AFFF737F909910890FFF73C
:10109000FDFAA060A0680BB0F0BD00000000F03FBA
:1010A000002904D0026F10231A43026703E0026F85
:1010B00010239A430267704700B58BB00020009060
:1010C0000190029001218903019888434018019002
:1010D000029840084000401C02900123684607C85F
:1010E000FFF7B2FC042211030020FFF7E5FB042206
:1010F00001210846FFF7E0FB042211460120FFF71B
:10110000DBFB042208210320FFF7D6FB012222216A
:101110000220FFF7D1FB2A496846C1830021818361
:1011200008A8017000200990FF210131684601855F
:1011300007A9244801F0EAF80121224800F01BFF2A
:101140000021684601730621C1810121017400213B
:10115000817401754B218901C1820021018303A99A
:10116000184801F035F80121684601730021C18259
:101170000121817403A9134801F02AF8022168466D
:1011800001734B218901C1820021817403A90D489B
:1011900001F01EF80321684601730021C18201217C
:1011A000817403A9074801F013F80121054800F0F4
:1011B000A5FF01210348FFF773FF0BB000BD00003E
:1011C000BF12000000C0024010B500240122D1036C
:1011D000D048FFF78FFD0122A821CF48FFF78AFDF5
:1011E0000122CE49CE48FFF785FD00228021CA4862
:1011F000FFF780FD0121C903C648FFF770FD0028F5
:101200000ED10A2001F026FD00BF0121C903C1480B
:10121000FFF765FD0028F8D00A2001F01BFD01242E
:101220000821BD48FFF75BFD00280DD10A2001F021
:1012300011FD00BF0821B848FFF751FD0028F9D083
:101240000A2001F007FD02242021B348FFF747FDE3
:1012500000280DD10A2001F0FDFC00BF2021AE487E
:10126000FFF73DFD0028F9D00A2001F0F3FC03242C
:101270000121C903AA48FFF732FD00280ED10A2038
:1012800001F0E8FC00BF0121C903A548FFF727FDD5
:101290000028F8D00A2001F0DDFC04240122D1034B
:1012A0009C48FFF727FD0122A8219B48FFF722FD5C
:1012B00001229A499A48FFF71DFD0022FF210131C2
:1012C0009748FFF717FD0121C9039248FFF707FD73
:1012D00000280ED10A2001F0BDFC00BF0121C90386
:1012E0008C48FFF7FCFC0028F8D00A2001F0B2FC83
:1012F000052408218848FFF7F2FC00280DD10A20B8
:1013000001F0A8FC00BF08218348FFF7E8FC002893
:10131000F9D00A2001F09EFC062420217E48FFF728
:10132000DEFC00280DD10A2001F094FC00BF202132
:101330007948FFF7D4FC0028F9D00A2001F08AFC94
:1013400007240121C9037648FFF7C9FC00280ED104
:101350000A2001F07FFC00BF0121C9037048FFF79C
:10136000BEFC0028F8D00A2001F074FC08240122F9
:10137000D1036848FFF7BEFC0122A8216648FFF7A9
:10138000B9FC012265496648FFF7B4FC002201213F
:1013900049026348FFF7AEFC0121C9035D48FFF72E
:1013A0009EFC00280ED10A2001F054FC00BF012150
:1013B000C9035848FFF793FC0028F8D00A2001F031
:1013C00049FC092408215448FFF789FC00280DD165
:1013D0000A2001F03FFC00BF08214F48FFF77FFCC7
:1013E0000028F9D00A2001F035FC0A2420214A48BF
:1013F000FFF775FC00280DD10A2001F02BFC00BF7F
:1014000020214548FFF76BFC0028F9D00A2001F0A5
:1014100021FC0B240121C9034148FFF760FC00288F
:101420000ED10A2001F016FC00BF0121C9033C487F
:10143000FFF755FC0028F8D00A2001F00BFC0C2423
:101440000122D1033348FFF755FC0122A82132487D
:10145000FFF750FC012231493148FFF74BFC0022D5
:1014600008212F48FFF746FC0121C9032948FFF74F
:1014700036FC00280ED10A2001F0ECFB00BF012150
:10148000C9032448FFF72BFC0028F8D00A2001F0FC
:10149000E1FB0D2408212048FFF721FC00280DD195
:1014A0000A2001F0D7FB00BF08211B48FFF717FCFB
:1014B0000028F9D00A2001F0CDFB0E242021164887
:1014C000FFF70DFC00280DD10A2001F0C3FB00BF7F
:1014D00020211148FFF703FC0028F9D00A2001F071
:1014E000B9FB0F240121C9030D48FFF7F8FB0028C1
:1014F0000ED10A2001F0AEFB00BF0121C90308484C
:10150000FFF7EDFB0028F8D00A2001F0A3FB102420
:10151000204610BD00000B4000200B400883000057
:1015200000400B4010B5FFF74FFE05490870084614
:101530000078002803D008460078FFF7C7FC10BDEC
:101540000400002070B504460D46094804600948AF
:10155000056007480068FFF76CF8064600F014FBCA
:1015600004480068FFF765F8064600F027FB70BDE9
:10157000700000207400002070470000C206D20EE8
:1015800001219140014A11607047000000E100E034
:1015900070B5002418E02046B030002100F0BBF9FF
:1015A0000021022000F0B7F90021102000F0B3F96B
:1015B000002505E00121002000F0ADF9681CC5B24E
:1015C000802DF7DB601CC4B2082CE4DB70BD00008A
:1015D0000EB500200090019002900121890301982E
:1015E000884340180190C900009888434018009033
:1015F000490000988843401800900123684607C8B6
:10160000FFF722FA0122D1031046FFF755F9012214
:1016100010210220FFF750F900220121C9031448CC
:10162000FFF744FB002210211248FFF73FFB002286
:101630000121C9030E48FFF727FA002210210D48A7
:10164000FFF722FA0122D1030948FFF71DFA012210
:1016500010210848FFF718FA0122D1030448FFF7C8
:1016600077FA012210210348FFF772FA0EBD00003D
:1016700000200B4000400B4010B5FFF7A9FF0122EE
:1016800010213D48FFF736FB0122D1033B48FFF70D
:1016900031FB1920400101F0DDFA0021AE2000F0FD
:1016A0003AF90021022000F036F90021102000F064
:1016B00032F90021402000F02EF90021B02000F086
:1016C0002AF90021812000F026F90021FF2000F0F6
:1016D00022F90021A12000F01EF90021A62000F02F
:1016E0001AF90021A82000F016F900213F2000F08F
:1016F00012F90021C82000F00EF90021D32000F0DB
:101700000AF90021084600F006F90021D52000F072
:1017100002F90021802000F0FEF80021D82000F01E
:10172000FAF80021052000F0F6F80021D92000F099
:10173000F2F80021F12000F0EEF80021DA2000F0AC
:10174000EAF80021122000F0E6F80021DB2000F08A
:10175000E2F80021302000F0DEF800218D2000F0BA
:10176000DAF80021142000F0D6F80021AF2000F0B4
:10177000D2F8FFF70DFF10BD00400B4000200B40DA
:1017800070B504460D462846B030002100F0C3F87D
:10179000A11CF0221140091108461030002100F070
:1017A000BAF8A11C0807000F002100F0B4F870BDC2
:1017B000FFB581B007460D46002600240398203867
:1017C000C6B27F2F02DD0027A81CC5B204981028DE
:1017D00024D129463846FFF7D3FF002408E0310121
:1017E0000919184A505C012100F095F8601CC4B238
:1017F000082CF4DB681CC1B23846FFF7C1FF002497
:1018000009E03101091908310E4A505C012100F04C
:1018100082F8601CC4B2082CF3DB11E0294638467C
:10182000FFF7AEFF002409E006217143064A89183C
:10183000085D012100F06FF8601CC4B2062CF3DBD8
:1018400005B0F0BD14310000EC2E0000FFB583B0F0
:101850001E460C9C0020029000253CE0701B401EA0
:10186000C1B20A2001F010FB014600900598FEF776
:1018700083FC0A210190FEF77FFC0F4602980028A6
:1018800015D1701EA84212DD002F0ED1E00F0019F5
:1018900040106843019403994018C0B223462022A7
:1018A00000900499FFF784FF13E001200290E00FFD
:1018B000001940106843019403994018C0B2009089
:1018C00038463030C2B2234604990098FFF770FFC3
:1018D00000BF681CC5B2B542C0DB07B0F0BDFFB5A4
:1018E00081B004460F46154600260FE0AA5D394632
:1018F0002046049BFFF75CFF20460830C4B2782CDA
:1019000002DD0024B81CC7B2701CC6B2A85D002856
:10191000ECD105B0F0BD70B504460D46002D03D0E6
:10192000E0B201F0A7F802E0E0B201F08DF870BD7E
:10193000704700001848194908608002486000207C
:1019400088601748C86100204863086415488863A8
:101950001548C86310481549086080024860002097
:1019600088600F48C8610020486308640D48886398
:101970000D48C8630E480F490860002048607F206A
:10198000C00588600020C861486308640A4888630D
:101990000A48C8637047000000005042C40000209D
:1019A000000040410080BB440080BBC4080100200F
:1019B0000000A0414C0100200000FA440000FAC4DD
:1019C000F8B50446216AE069FEF751FCE060E16881
:1019D000606AFEF7FBFB60622169E068FEF747FC86
:1019E000A062E16A606AFEF777FE01D2E06A606297
:1019F000216B606AFEF766FE01D2206B6062A16A0D
:101A0000A068FEF73CFC0090616A6068FEF737FC56
:101A10000646E1682068FEF732FC07463146FEF7CD
:101A2000D5FB05460099FEF7D1FB6063E0682061B5
:101A3000606BF8BD0146002902D0012910D107E0F2
:101A40000B4800680B4A10600020094A10600BE048
:101A500009480068074A10600020074A106003E048
:101A60000020044A106000BF00BF024800687047B1
:101A700044000020400000204800002010B5FF2155
:101A80000131194800F08AFB00282BD0FF210131D9
:101A9000154800F029FB15480068401C13490860F0
:101AA00013480068401C1249086012480068401C36
:101AB0001049086010480078012804D10F480068D8
:101AC000401C0E4908600D480068FF219131884292
:101AD00008D309480078012804D10020074908608C
:101AE0000549087010BD0000004003407800002048
:101AF0007C00002080000020930000208400002053
:101B000070470000042806D10649096904221143E0
:101B1000044A116105E00349096904229143014A1D
:101B20001161704700E000E0002803D10021094A5C
:101B300091610EE0012806D106490969012211438D
:101B4000044A116105E00349096949084900014A4D
:101B50001161704700E000E0002806D006490969DD
:101B600002221143044A116105E003490969022276
:101B70009143014A1161704700E000E0014948616A
:101B80007047000000E000E010B504464B229201CF
:101B90000221094800F0B3FBA2B20321064800F07D
:101BA000AEFB01220221044800F0C4F90122032106
:101BB000014800F0BFF910BD00C0024010B5044656
:101BC0004B208001001B82B20021094800F097FBE6
:101BD00000220121064800F092FB01220021044866
:101BE00000F0A8F901221146014800F0A3F910BD48
:101BF00000C0024070B505460C462046FFF7E0FEE7
:101C000070BD000008B532480078692825DB3148EE
:101C1000314908603149086000202F49C8612F49C7
:101C2000C86101202E49087000202E4908706420E8
:101C3000274908701020042300902A4802780621C2
:101C40003020FFF703FE1020042300902048027884
:101C500019464020FFF7FAFD38E0224800780128B5
:101C600034D11F480078012830D11F481A49086034
:101C70001A4908601D480078002805D11C481649FB
:101C8000C8611649C86115E0184900200856401C73
:101C9000002805D11049C86116481049C86109E0FB
:101CA00012480078012805D112480B49C86100206C
:101CB0000A49C86100200A490870102004230090D6
:101CC0000848027806213020FFF7C0FD08BD00005B
:101CD0009400002000008C42C40000200801002075
:101CE00097000020340000200000B442990000203A
:101CF0000000404100002041244800782449096840
:101D0000884211D12348007800280DD12248234968
:101D100008602349086000202049C8612049C86143
:101D20000120204908702FE01E48007801282BD19F
:101D300018480078012827D11B481849086018491D
:101D400008601A480078002805D119481349C8616D
:101D50001349C86115E0154900200856401C0028A9
:101D600005D10E49C86113480D49C86109E00F4803
:101D70000078012805D10F480849C86100200849AA
:101D8000C8610020074908707047000094000020D7
:101D90003C0000203000002000008C42C4000020E5
:101DA00008010020960000200000B44299000020A5
:101DB0000000404100007041704700001020584969
:101DC000C8600120574908605748006B402108430C
:101DD0005549086300BF554880682728FBD103E0B8
:101DE00001204002514948605048406801214902A1
:101DF00008408842F4D102E000204C4948604B483A
:101E000040680121490208400028F5D14549086091
:101E10004548406A0321890288434349486208468D
:101E200040680121C90208433F49486000BF3E485D
:101E300080680007C00F0028F9D03B484068C00800
:101E4000C000C01C3849486000BF3748406B40079D
:101E5000400F0328F9D136480068C008C000401C74
:101E60003349086000203049086208464068491537
:101E700088432D49486008460068891508432A4967
:101E8000086008464068091508432749486000BFB4
:101E9000254880684007C00F0028F9D02248006B11
:101EA0004021884320490863084600688915884313
:101EB0001D490860032000068861084640684915EE
:101EC00008431949486000BF174880688007C00F61
:101ED0000028F9D016480068C008C000801C1449CA
:101EE000086000201049086208464068C008C00029
:101EF000401C486000BF0C48406B4007400F012861
:101F0000F9D10B48006810210843094908600846C8
:101F10000068012109030843054908607047000073
:101F200000810840008308400080084000A106406E
:101F30000002084030B503468D001C464034281985
:101F4000002A04D0046810252C43046003E00468D0
:101F50001025AC43046030BD30B503468D001C46EF
:101F60002034281904680325AD04AC4304600468D8
:101F70001443046030BD002904D0026902231A43CF
:101F8000026103E0026902239A4302617047002163
:101F900001704170012109044160002181600173D9
:101FA000704700001FB500200190029003900121AE
:101FB00009040198884340180190891002988843C9
:101FC0004018029089110398884340180390012318
:101FD00001A807C8FEF738FD01214902039888438C
:101FE00040180390012301A807C8FEF72DFD042225
:101FF00040210020FEF760FC042280210020FEF733
:102000005BFC042211460020FEF756FC0422082146
:102010000020FEF751FC0122CC213048FEF798FD4C
:102020001321684601800021C943418000210171CC
:1020300000200290FF2101316846818169462848CD
:1020400000F064F96946274800F060F96846FFF738
:102050009EFF0221684601700021417001200004AA
:102060000190002002906846017369461C4800F008
:1020700013F9032168460170002141706946184830
:1020800000F00AF90221684601700021417069469A
:10209000144800F001F903216846017000214170E5
:1020A0006946104800F0F8F8012204210C4800F0BD
:1020B00085F8012208210B4800F080F80C20FFF77A
:1020C0005DFA0B20FFF75AFA0121054800F016F8D7
:1020D0000121044800F012F81FBD000000000B4071
:1020E00000E0064000F00640CA43C267BFF34F8FCE
:1020F0007047CA43C267BFF34F8F7047002904D0AF
:10210000026901231A43026103E002695208520086
:10211000026170471FB500200190029003900121D9
:1021200009070398884340180390012301A807C8B2
:10213000FEF78AFC0021684601807D2109011448D0
:102140000068FEF719F8401E81B268464180002100
:10215000017100200290FF210131684681816946AA
:102160000C4800F0D3F8FF2101310A48FFF7BCFF0B
:102170000D2001218140084A116000BF0122110297
:10218000044800F01BF801210248FFF7B7FF1FBD0C
:102190009C0000200040034000E100E010B5024632
:1021A000D06F08400346506F08400446002B03D010
:1021B000002C01D0012010BD0020FCE7002A03D034
:1021C000436F0B43436702E0436F8B4343677047A2
:1021D000FCB50D78AD0006464036AF190D78AD0060
:1021E0005036AD1901950D78AD001036AD1900953A
:1021F0000D786D062A0E274DA84203D10325954080
:10220000EC4302E001259540EC43224DA84200D169
:1022100000BF056D25400565436D23401D4DA84257
:1022200006D18D79CE797600354395402B4302E077
:102230008D7995402B434365164DA84209D1C56E53
:1022400025402B460D7A4E7A7600354395402B4338
:10225000C3663D68FF260836B5433D603D684E883D
:1022600035433D604E89019D2E608E89009D2E6014
:10227000084DA84208D10D794E7976003543954036
:10228000066D3543056504E0056D0E7996403543CE
:102290000565FCBD00C00240F3B581B00C46607816
:1022A000002801D1012500E0002501210904606812
:1022B000884201D1460001E001263604207800283A
:1022C00001D1012700E00027207B0090627821786F
:1022D0006368019800F0E4FB2178A2680198FFF799
:1022E0003BFE207B33462A4639460090019800F099
:1022F000D7FB3946A2680198FFF72EFEFEBD30B528
:102300008D00044690342B191A6030BD4B8888220A
:1023100013500B8884221350026803231B049A4332
:102320000260026801231B069A43026002688B6800
:102330001A430260044A904202D10B798C22135056
:102340008A8982677047000000C002400EB50020F5
:102350000090019002900121890301988843401860
:102360000190090100988843401800908910009856
:102370008843401800900123684607C8FEF764FBB5
:10238000012216490220FEF797FA01221349891CFF
:102390000020FEF791FA012210491148FEF786FC51
:1023A00001220E49891C0F48FEF780FC00220B49D0
:1023B0000B48FEF769FB00220849891C0948FEF713
:1023C00063FB012205490648FEF7C2FB01220349CF
:1023D000891C0448FEF7BCFB0EBD00000104000090
:1023E00000400B4000000B4010B58B480088FF21D7
:1023F000F531884213DA8848008800280FD08748D2
:10240000874908608749086000208549C861854977
:10241000C861012084490870FEF7F4FCFAE07E48A8
:102420000088FF21F5318842F8DB7F4800780128D9
:1024300027D17E487A4908607A4908607C4800784C
:10244000002805D17B487649C8617649C86115E006
:10245000774900200856401C002805D17049C86102
:1024600075487049C86109E071480078012805D1B4
:1024700071486B49C86100206A49C86100206A49F7
:102480000870FFF739FCFFF7BDFB6C4800780028A7
:1024900022D16B48007800281ED16A4800780028B5
:1024A0001AD169480078002816D1684800780128B8
:1024B00012D16748007800280ED1664800780028BD
:1024C0000AD1654856490860564908605948544938
:1024D000C8615449C8619DE058480078002823D15C
:1024E0005748007800281FD15648007800281BD193
:1024F00055480078002817D154480078002813D197
:102500005348007801280FD15248007800280BD199
:102510005148434908604349086047484049C861F9
:1025200000204049C86175E044480078002823D164
:102530004348007800281FD14248007801281BD169
:1025400041480078002817D140480078002813D16E
:102550003F48007800280FD13E48007800280BD172
:102560003D482F4908602F49086000202C49C86168
:1025700031482C49C8614DE030480078002822D10C
:102580002F48007800281ED12E48007800281AD144
:102590002D480078002816D12C480078002812D148
:1025A0002B48007800280ED12A48007801280AD14B
:1025B00029481B4908601B4908601949C861002067
:1025C0001849C86126E01D480078002822D11C481F
:1025D000007800281ED11B48007800281AD11A481C
:1025E0000078012816D119480078002812D118481F
:1025F000007800280ED11748007800280AD1164824
:10260000074908600749086000200549C861124869
:102610000449C86110BD00001E00002000008C426B
:10262000C400002008010020950000200000B442F2
:1026300099000020000040410000704196000020F9
:10264000970000208E0000208F00002090000020C6
:102650008C0000208D0000200000504208B50121B0
:1026600089024248FEF73BFB4149087001213F487F
:10267000FEF735FB3F490870012189023E48FEF70D
:102680002EFB3E49087001213B48FEF728FB3C49E0
:10269000087002213848FEF722FB3A490870374893
:1026A000007833490978401832490978401835498B
:1026B00009784018324909784018334908702C4885
:1026C0000078012803D1801E304908701CE02B4897
:1026D0000078012803D1801E2C49087014E0254899
:1026E0000078012803D10020284908700CE0244814
:1026F0000078012802D12549087005E021480078BA
:10270000012801D12149087020490020085620499C
:1027100008701D48007803281BDB1E48007800283D
:1027200017D101201B4908700020174908701A486A
:102730000078401C184908700120184908701020C2
:10274000042300901448027819464020FFF77EF8D1
:102750000BE00D480078032807DA104800780028BD
:1027600003D10C4908700D49087008BD00400B40AA
:102770008F0000209000002000000B408E00002001
:102780008D0000208C000020910000209800002087
:102790009900002092000020940000209300002067
:1027A00010B52021480600F05FF800280CD0012069
:1027B000800700F0B3F80446044802780078401C13
:1027C000024B18700248845410BD00001C00002009
:1027D0001900002000B587B00020019002900390FE
:1027E00001218903029888434018029089110298B8
:1027F000884340180290012301A807C8FEF724F976
:102800000622FF2101310020FEF756F806220221A0
:102810000120FEF751F84B20C0010490FF21013147
:10282000684681820021C1820183418304A901207D
:10283000800700F023F801220021900700F074F8CF
:1028400001221146900700F06FF817200121814006
:10285000044A116000BF01221146900700F054F8AD
:1028600007B000BD00E100E0024610690840002802
:1028700001D0012070470020FCE7000070B504463D
:102880000D4660681C490840E9880843A988084348
:1028900029890843698908436060012080078442D0
:1028A00007D11820FEF7B4F806462968FDF764FC46
:1028B00060621248844207D11A20FEF7A9F8064642
:1028C0002968FDF759FC60620D48844207D11C203D
:1028D000FEF79EF806462968FDF74EFC606209483F
:1028E000844207D11E20FEF793F806462968FDF7BB
:1028F00043FC606270BD0000FCE0FFFF000004408C
:102900000010004000100440002A03D0C3680B43AD
:10291000C36002E0C3688B43C36070470146086828
:1029200080B270470160704710B5002A05D0436837
:1029300010248C402343436004E0436810248C40FF
:10294000A343436010BD000010B518480068C828B4
:102950000FD91748007800280BD1164801780120BC
:10296000800700F02FF801201149087000200F495E
:1029700008600E480068C82817D90D48007801285B
:1029800013D100200A490870084908600A480078F5
:1029900000020949497840180849088006488078AB
:1029A0002D380749087000F0D7F810BD80000020CE
:1029B0001800002020000020190000201E00002028
:1029C0001D00002070B504460D4629462046FFF73D
:1029D000A9FF00BF80212046FFF746FF0028F9D05D
:1029E00070BD0000F8B505462C4600220121C90340
:1029F0001348FEF77FF900261EE027468020074097
:102A0000802F05D1012210210E48FEF773F904E052
:102A1000002210210B48FEF76DF96006040E01221A
:102A2000D1030748FEF766F900220121C9030448D3
:102A3000FEF760F9701CC6B2082EDEDBF8BD0000A0
:102A400000200B4000400B4010B50446FEF798F9FB
:102A50007820FFF7C7FFFEF7C5F90020FFF7C2FF98
:102A6000FEF7C0F92046FFF7BDFFFEF7BBF9FEF702
:102A7000A3F910BD10B50446FEF782F97820FFF7E0
:102A8000B1FFFEF7AFF94020FFF7ACFFFEF7AAF960
:102A90002046FFF7A7FFFEF7A5F9FEF78DF910BD59
:102AA000FFB58E00054620357419056D4F000126CF
:102AB000BE40B54305652268436D0C4D2A40099E12
:102AC000039D35432A4322604E000125B5401E4632
:102AD000AE4333464E00029DB5402B434365056D22
:102AE0004F000126BE4035430565FFBDF0FFFCFFEA
:102AF0002021020C01D010211046020A01D01046FC
:102B00000839020901D01046091F820801D0104679
:102B1000891E420801D0881E7047081A704730B4D9
:102B20007446641E2578641CAB4204D3635D5B006D
:102B3000E31830BC18471D46F8E702E008C8121F2A
:102B400008C1002AFAD170477047002001E001C196
:102B5000121F002AFBD17047002000BF06E00021B1
:102B6000044A1154044A1170411CC8B20328F6DB10
:102B700070470000190000201C00002010B52D48EF
:102B800000683C2854D92C48406B2B4908642B48DA
:102B9000406B2A4908642A48806827490862284807
:102BA000C068264908622449C869FFF723F8234909
:102BB000C869FFF71FF82048416B22480068FDF7FD
:102BC00005FB204908601D48416B1F480068FDF760
:102BD000FDFA1D4908601D491A480068FDF77CFD93
:102BE00002D21A4817490860194916480068FDF7CB
:102BF00069FD02D21648134908601449124800685A
:102C0000FDF76AFD02D211480F49086010490E48CD
:102C10000068FDF757FD02D20D480B4908600A48CD
:102C2000016808480068FEF78DFC00200149086033
:102C300010BD000078000020C40000200801002022
:102C4000A0000020080000200C00002000A08C45FF
:102C50000000484310B5044603E07D20C00000F0AA
:102C600007F82046611E8CB20028F6D110BD000086
:102C700070B504460420C043FEF744FF13490968B9
:102C8000C8081349FDF778FA0646FEF777FF0020DB
:102C9000FEF762FF0020FEF747FF0120FEF744FF2A
:102CA000002508E000BF0B48006901210904084025
:102CB0000028F8D06D1CA542F4D30120C043FEF7D4
:102CC00033FF0020FEF730FF70BD00009C000020A5
:102CD00040420F0000E000E0F8B516488068154952
:102CE00008610846C0684861084601681248FEF756
:102CF000A3F910498860084641681048FEF79CF91E
:102D00000C49C8600020086048600A46D168906895
:102D1000FDF75CFA0090FDF7A5FC044600220123B4
:102D20009B07FDF703FC0646FDF7B0FC01498861EF
:102D3000F8BD0000A000002050000020600000202E
:102D400010B5064800683C2806D900F009F8FFF7DE
:102D5000C3FF00200149086010BD00007C00002076
:102D600010B50020FEF766FE00B211490880012070
:102D7000FEF760FE00B20F4908800D490020085E92
:102D8000FDF74CFC04460C4801682046FDF71EFA8E
:102D90000949086007490020085EFDF73FFC04462A
:102DA000054841682046FDF711FA0349486010BD07
:102DB0004C0000204E000020A0000020FEF77CF90F
:102DC000FDF7CAFFFFF706FDFFF7ECF8FDF7F8FE89
:102DD000FEF752FCFEF728F8FFF7B8FAFEF7AAFD57
:102DE000FDF7C0FE10231DA204210020FEF777FD91
:102DF00010231DA202210020FEF771FD10231BA24B
:102E000000210846FEF76BFD10231AA206210020C0
:102E1000FEF765FDFFF77EF91EE000F043F8FEF7D0
:102E200081FBFFF71BFC15480078012808D1FFF74C
:102E30008BFDFFF7D9FAFFF783FFFFF79FFE0BE04B
:102E40000E480078002807D10D49C8610D49C861B6
:102E5000FFF776FFFFF792FEDFE70000206E6F7747
:102E6000726F6F6D3A0000002000000020726F6FDB
:102E70006D3A00002073746174653A0034000020DC
:102E8000C40000200801002010B50246012002E025
:102E90000346534318460B464C1EE1B2002BF7D1B4
:102EA00010BD000010B50121C9020E48FDF717FF43
:102EB000002815D100BF0121C9020A48FDF70FFF04
:102EC0000028F8D00A20FFF7C5FE07480078002840
:102ED00003D101200449087002E000200249087073
:102EE00010BD000000000B40340000200000000076
:102EF00000000000002F0000000007000700001481
:102F00007F147F1400242A7F2A120062640813238E
:102F100000364955225000000503000000001C2225
:102F20004100000041221C000014083E0814000863
:102F3000083E0808000000A0600000080808080813
:102F4000000060600000002010080402003E5149AB
:102F5000453E0000427F4000004261514946002149
:102F600041454B31001814127F1000274545453963
:102F7000003C4A49493000017109050300364949BE
:102F8000493600064949291E000036360000000077
:102F900056360000000814224100001414141414C2
:102FA000000041221408000201510906003249596B
:102FB000513E007C1211127C007F49494936003E87
:102FC00041414122007F4141221C007F4949494142
:102FD000007F09090901003E4149497A007F08083C
:102FE000087F0000417F4100002040413F01007FF9
:102FF00008142241007F40404040007F020C027FC5
:10300000007F0408107F003E4141413E007F0909D6
:103010000906003E4151215E007F091929460046FC
:10302000494949310001017F0101003F4040403FD3
:10303000001F2040201F003F4038403F006314081D
:1030400014630007087008070061514945430000F8
:103050007F41410000552A552A55000041417F001B
:103060000004020102040040404040400000010210
:103070000400002054545478007F484444380038F9
:103080004444442000384444487F00385454541881
:1030900000087E0901020018A4A4A47C007F080493
:1030A00004780000447D4000004080847D00007F63
:1030B000102844000000417F4000007C0418047880
:1030C000007C0804047800384444443800FC24247C
:1030D00024180018242418FC007C08040408004864
:1030E0005454542000043F444020003C4040207C85
:1030F000001C2040201C003C4030403C0044281074
:103100002844001CA0A0A07C004464544C44141427
:10311000141414140000000000000000000000005F
:1031200000000000000000F8000000000000003374
:103130003000000000100C06100C0600000000001B
:103140000000000040C07840C0784000043F040404
:103150003F040400007088FC08300000001820FFC5
:10316000211E0000F008F000E018000000211C0300
:103170001E211E0000F00888700000001E2123247C
:103180001927211010160E0000000000000000009A
:1031900000000000000000E018040200000000072A
:1031A0001820400000020418E00000000040201831
:1031B00007000000404080F0804040000202010F04
:1031C00001020200000000F0000000000101011FE8
:1031D00001010100000000000000000080B070004C
:1031E00000000000000000000000000000010101DC
:1031F000010101010000000000000000003030006B
:103200000000000000000000806018040060180644
:103210000100000000E010080810E000000F10207E
:1032200020100F00001010F8000000000020203FC8
:103230002020000000700808088870000030282452
:1032400022213000003008888848300000182020F3
:1032500020110E000000C02010F800000007042418
:10326000243F240000F8088888080800001921205D
:1032700020110E0000E0108888180000000F1120B7
:1032800020110E0000380808C83808000000003F70
:10329000000000000070880808887000001C2221CF
:1032A00021221C0000E010080810E000000031227C
:1032B00022110F00000000C0C0000000000000301C
:1032C000300000000000008000000000000080606E
:1032D00000000000000080402010080000010204EF
:1032E00008102000404040404040400004040404D6
:1032F0000404040000081020408000000020100892
:1033000004020100007048080808F00000000030C6
:1033100036010000C030C828E810E0000718272454
:1033200023140B000000C038E0000000203C230202
:103330000227382008F8888888700000203F202065
:1033400020110E00C0300808080838000718202097
:103350002010080008F808080810E000203F20208E
:1033600020100F0008F88888E8081000203F20206F
:103370002320180008F88888E8081000203F200063
:1033800003000000C030080808380000071820209B
:10339000221E020008F808000008F808203F21015A
:1033A00001213F20000808F8080800000020203F05
:1033B0002020000000000808F8080800C080808075
:1033C0007F00000008F888C028180800203F20016E
:1033D0002638200008F8080000000000203F2020C8
:1033E0002020300008F8F800F8F80800203F003FDF
:1033F000003F200008F830C00008F808203F2000F7
:1034000007183F00E01008080810E0000F10202007
:1034100020100F0008F808080808F000203F2101DC
:1034200001010000E01008080810E0000F18242433
:1034300038504F0008F8888888887000203F2000A6
:10344000030C30200070880808083800003820215C
:1034500021221C00180808F8080818000000203F66
:103460002000000008F808000008F808001F2020CD
:1034700020201F000878880000C83808000007389E
:103480000E010000F80800F80008F800033C0700EF
:10349000073C0300081868808068180820302C0357
:1034A000032C30200838C800C83808000000203F2E
:1034B0002000000010080808C8380800203826211D
:1034C00020201800000000FE020202000000007F21
:1034D00040404000000C30C000000000000000012F
:1034E0000638C00000020202FE000000004040401A
:1034F0007F0000000000040202020400000000003F
:1035000000000000000000000000000080808080BB
:1035100080808080000202040000000000000000A3
:10352000000000000000808080800000001924223C
:1035300022223F2008F8008080000000003F112078
:1035400020110E000000008080800000000E11207D
:1035500020201100000000808088F800000E11205B
:1035600020103F200000808080800000001F222269
:1035700022221300008080F0888888180020203FD5
:10358000202000000000808080808000006B9494E8
:103590009493600008F8008080800000203F2100A4
:1035A00000203F2000809898000000000020203F6D
:1035B00020200000000000809898000000C080805B
:1035C000807F000008F8000080808000203F2402F7
:1035D0002D302000000808F8000000000020203FE7
:1035E000202000008080808080808000203F20009C
:1035F0003F20003F8080008080800000203F21002D
:1036000000203F200000808080800000001F2020DC
:1036100020201F00808000808000000080FFA1200B
:1036200020110E000000008080808000000E11201C
:1036300020A0FF80808080008080800020203F21AB
:10364000200001000000808080808000003324245E
:1036500024241900008080E0808000000000001F0A
:10366000202000008080000000808000001F2020BB
:1036700020103F20808080000080808000010E307C
:103680000806010080800080008080800F300C03DD
:103690000C300F0000808000808080000020312EE0
:1036A0000E312000808080000080808080818E70BC
:1036B0001806010000808080808080000021302C6E
:1036C0002221300000000000807C02020000000087
:1036D000003F404000000000FF000000000000002C
:1036E000FF0000000002027C800000000040403F1C
:1036F00000000000000601010202040400000000B6
:10370000000000002437000000000020A00000009E
:103710003A2B0000C4370000A0000020F002000097
:103720004A2B000000000000000000000000000024
:103730000000000000000000000000000000000089
:1037400000000000555000000000000000000000D4
:103750000000000000000000000000000000000069
:103760000000000000000000000000000000000059
:10377000000000006666663F0000000000000000D8
:10378000000000006666663F0000000000000000C8
:103790000000000000000000000000000000000029
:1037A0000000000000000000000000000000000019
:1037B00000000000000000006400000000000000A5
:0437C000006CDC02BB
:040000050000016591
:00000001FF
