:020000040000FA
:1000000018020020C1000000890B0000F506000066
:10001000FFFFFFFFFFFFFFFFFFFFFFFFFFFFFFFFF0
:10002000FFFFFFFFFFFFFFFFFFFFFFFF2B0F0000A2
:10003000FFFFFFFFFFFFFFFF290F0000B10F0000D0
:1000400035010000350100003501000035010000D8
:1000500035010000350100003501000035010000C8
:1000600035010000FFFFFFFF3501000035010000F2
:10007000350100003501000035010000FFFFFFFFE2
:10008000FFFFFFFF350100003501000035010000D2
:10009000350100003501000035010000A912000003
:1000A0003501000035010000350100003501000078
:1000B0003501000035010000350100003501000068
:1000C0001D4880471D4880471D4800471D4801695D
:1000D000002908D14169002905D18169002902D18F
:1000E000C169002909D01848C1680901090D002912
:1000F0000ED005290CD006290AD0BFF34F8F134824
:100100001349016013491248C860BFF34F8FFEE7DF
:100110000E4801680E48884200D070470E480F49CB
:1001200001600A480E4901607047FEE7FEE7FEE7FE
:10013000FEE7FEE7FEE70000CD000000B50F00007F
:100140006501000000030840800108400000002015
:100150000400FA0500ED00E0008108400100000005
:10016000000000000348854600F01CF800480047E6
:10017000C51500001802002030B50B4601460020CE
:100180002022012409E00D46D5409D4205D31D469D
:100190009540491B2546954040191546521E002D95
:1001A000F1DC30BD064C0125064E05E0E36807CCC6
:1001B0002B430C3C98471034B442F7D3FFF7D6FFDB
:1001C000701E0000901E0000F7B50B46009DED006C
:1001D000154EAA19002000240027002120E0002449
:1001E0000027FF258D401D40002D17D000200FE077
:1001F0001D46C54001268E403540002D07D08600A3
:100200000F25B5402C438600029DB5402F43401C6E
:100210000828EDD31568A5433D431560121D08312C
:100220000829DCDDFEBD00002020024070B5044638
:100230001F48406B4607760F00F03EF82060330001
:1002400001F062F9081605080B16160E1216206842
:10025000606010E0174860600DE0164860600AE0DA
:100260000120C003606006E07D200002606002E0C3
:100270000020606000BF00BF0D48056A052D02D355
:100280006068400901E06068E840A0600848806A52
:10029000072109040840050C072D04D10321A0689B
:1002A000FFF76AFF01E0A068E840E06070BD000071
:1002B0000080084000127A00F0B517480068FF2758
:1002C00001373840040A1448C069C50F1248406815
:1002D0007F003840460A002E01D10020F0BD002CDE
:1002E00001D10E4800E00D480346012D01D118460A
:1002F000F4E7094880690F27FF053840C10D002940
:1003000000D110210448806903277F053840420D41
:1003100018464843D040E1E70080084000127A00C8
:100320007FB50446601180000A49461800252E2C2E
:1003300000D10225E406E40E0321A1403068084004
:10034000E04045196846FFF771FF0298E84004B0A5
:1003500070BD0000388008403FB50E4C606AE16A0D
:10036000226B0446009DAC4320460C46019DAC43E5
:1003700021461446029DAC432246002B05D0009C2A
:100380002043019C2143029C2243024C6062E162B3
:1003900022633FBD00800840002A03D003680B435E
:1003A000036002E003688B43036070470EB50020D2
:1003B0000090019002900121890301988843401820
:1003C0000190490100988843401800900123684635
:1003D00007C8FFF7C1FF012202210320FFF7F4FE47
:1003E00000220221064800F0BBF800220221044846
:1003F000FFF7D2FF01220221014800F031F80EBDC3
:1004000000600B400EB50020009001900290012189
:100410008903019888434018019009010098884396
:10042000401800900123684607C8FFF795FF012296
:10043000D1020220FFF7C8FE0122D102074800F0D6
:100440008FF800220121C902044800F0ADF8012212
:10045000D1020248FFF7A0FF0EBD000000400B4094
:10046000002A03D043680B43436002E043688B4398
:10047000436070470EB5002000900190029001216A
:1004800089030198884340180190890000988843A7
:100490004018009049000098884340180090490097
:1004A00000988843401800900123684607C8FFF76A
:1004B00053FF0122D1030020FFF786FE0122A8216D
:1004C0001046FFF781FE012221490220FFF77CFE42
:1004D00000220121C9031F4800F042F80022A82190
:1004E0001D4800F03DF8002219491C4800F038F87A
:1004F00000220121C9031748FFF74EFF0022A8215F
:100500001548FFF749FF002211491448FFF744FF3F
:100510000122D1030F48FFF73FFF0122A8210E4817
:10052000FFF73AFF01220A490C48FFF735FF012285
:10053000D1030848FFF794FF0122A8210648FFF7DE
:100540008FFF012202490548FFF78AFF0EBD000018
:100550000883000000000B4000200B4000400B40CF
:10056000002A06D183680B438360C3688B43C36052
:100570000EE0012A06D1C3680B43C36083688B4336
:10058000836005E083688B438360C3688B43C360EB
:1005900070470246D3690B40002B01D0012000E0D8
:1005A0000020704741627047002A01D0416200E09C
:1005B0008162704700B58BB00020009001900290DE
:1005C000012109040098884340180090891001987F
:1005D000884340180190891102988843401802907E
:1005E0000123684607C8FFF7B7FE0422F021002068
:1005F000FFF7EAFD0122F0213448FFF7CDFEFF218D
:100600000131334800F092FD03A800F021FE0020E4
:100610000990C7216846C1832E498183FF2101319A
:10062000018507A92A4800F01FFE002168460173D2
:10063000012101740621C18101218174062200215A
:10064000234800F0F3FD03A9214800F08BFD0121B0
:100650006846017301740621C1810121817406225B
:100660001B4800F0E3FD03A9194800F07BFD0221BF
:1006700068460173012101740621C1810121817441
:1006800006220221124800F0D1FD03A9104800F013
:1006900069FD032168460173012101740621C181AE
:1006A0000121817406220321094800F0BFFD03A93E
:1006B000074800F057FD01220F21054800F047FDD3
:1006C0000121034800F037FD0BB000BD00000B40D6
:1006D00000E00640BF12000010B5FFF793FEFFF7E1
:1006E00065FE0121C9020248FFF75CFF10BD000052
:1006F00000400B4000BF024800680028FBD0704754
:100700000000002010B50122D1030A48FFF74CFF7A
:10071000012210210848FFF747FF00221021064858
:10072000FFF742FF00220121C9030248FFF73CFF07
:1007300010BD000000200B4000400B4010B501220E
:10074000D1030748FFF730FF002210210548FFF7CB
:100750002BFF012210210348FFF726FF10BD0000E8
:1007600000200B4000400B4010B50122D10305488A
:10077000FFF71AFF00220121C9030248FFF714FF07
:1007800010BD000000200B400EB50020009001902D
:100790000290012189030198884340180190C90003
:1007A00000988843401800908900009888434018BA
:1007B00000900123684607C8FFF7CEFD0122FF2104
:1007C00041311046FFF700FD012205210320FFF70C
:1007D000FBFC0022FF2141311148FFF7C1FE00223E
:1007E00005211048FFF7BCFE0122FF2141310C48D2
:1007F000FFF7D2FD012205210B48FFF7CDFD0122B5
:10080000FF2141310648FFF72BFE01220521064852
:10081000FFF726FE002240210148FFF7C5FE0EBD6E
:1008200000200B4000400B4000600B4010B500243E
:100830000122D103D048FFF7B7FE0122A821CF48FB
:10084000FFF7B2FE0122CE49CE48FFF7ADFE0022EF
:100850008021CA48FFF7A8FE0121C903C648FFF757
:1008600098FE00280ED10A2000F06BFE00BF012187
:10087000C903C448FFF78DFE0028F8D00A2000F015
:1008800060FE01240821BD48FFF783FE00280DD13A
:100890000A2000F056FE00BF2021B848FFF779FE7D
:1008A0000028F9D00A2000F04CFE05242021B3488E
:1008B000FFF76FFE00280DD10A2000F042FE00BFB6
:1008C0000821AE48FFF765FE0028F9D00A2000F0A5
:1008D00038FE09240121C903AA48FFF75AFE00285F
:1008E0000ED10A2000F02DFE00BF0121C903A2484D
:1008F000FFF74FFE0028F8D00A2000F022FE0D245A
:100900000122D1039C48FFF74FFE0122A8219B48FA
:10091000FFF74AFE01229A499A48FFF745FE002256
:10092000FF2101319748FFF73FFE0121C90392489B
:10093000FFF72FFE00280ED10A2000F002FE00BFB4
:100940000121C9038F48FFF724FE0028F8D00A20B0
:1009500000F0F7FD022408218848FFF71AFE00285E
:100960000DD10A2000F0EDFD00BF20218348FFF7E4
:1009700010FE0028F9D00A2000F0E3FD0624202113
:100980007E48FFF706FE00280DD10A2000F0D9FDB1
:1009900000BF08217948FFF7FCFD0028F9D00A20A4
:1009A00000F0CFFD0A240121C9037648FFF7F1FDCD
:1009B00000280ED10A2000F0C4FD00BF0121C903A8
:1009C0006D48FFF7E6FD0028F8D00A2000F0B9FDD9
:1009D0000E240122D1036848FFF7E6FD0122A82179
:1009E0006648FFF7E1FD012265496648FFF7DCFD37
:1009F0000022012149026348FFF7D6FD0121C90306
:100A00005D48FFF7C6FD00280ED10A2000F099FDD1
:100A100000BF0121C9035B48FFF7BBFD0028F8D0E8
:100A20000A2000F08EFD032408215448FFF7B1FD91
:100A300000280DD10A2000F084FD00BF20214F487E
:100A4000FFF7A7FD0028F9D00A2000F07AFD07245F
:100A500020214A48FFF79DFD00280DD10A2000F013
:100A600070FD00BF08214548FFF793FD0028F9D02D
:100A70000A2000F066FD0B240121C9034148FFF75D
:100A800088FD00280ED10A2000F05BFD00BF012187
:100A9000C9033948FFF77DFD0028F8D00A2000F08F
:100AA00050FD0F240122D1033348FFF77DFD0122C1
:100AB000A8213248FFF778FD012231493148FFF77C
:100AC00073FD002208212F48FFF76EFD0121C903A5
:100AD0002948FFF75EFD00280ED10A2000F031FD05
:100AE00000BF0121C9032748FFF753FD0028F8D0B4
:100AF0000A2000F026FD042408212048FFF749FDC4
:100B000000280DD10A2000F01CFD00BF20211B4849
:100B1000FFF73FFD0028F9D00A2000F012FD08245D
:100B200020211648FFF735FD00280DD10A2000F0DE
:100B300008FD00BF08211148FFF72BFD0028F9D060
:100B40000A2000F0FEFC0C240121C9030D48FFF728
:100B500020FD00280ED10A2000F0F3FC00BF012187
:100B6000C9030548FFF715FD0028F8D00A2000F05A
:100B7000E8FC1024204610BD00000B4000200B4074
:100B80000883000000400B40704770B5002418E057
:100B90002046B030002100F0BAF90021022000F018
:100BA000B6F90021102000F0B2F9002505E001217E
:100BB000002000F0ACF9681CC5B2802DF7DB601C8A
:100BC000C4B2082CE4DB70BD0EB50020009001908B
:100BD0000290012189030198884340180190C900BF
:100BE00000988843401800904900009888434018B6
:100BF00000900123684607C8FFF7AEFB0122D1032E
:100C00001046FFF7E1FA012210210220FFF7DCFA7B
:100C100000220121C9031448FFF7A2FC0022102181
:100C20001248FFF79DFC00220121C9030E48FFF77F
:100C3000B3FB002210210D48FFF7AEFB0122D103C8
:100C40000948FFF7A9FB012210210848FFF7A4FB80
:100C50000122D1030448FFF703FC012210210348BD
:100C6000FFF7FEFB0EBD000000200B4000400B40D4
:100C700010B5FFF7A9FF012210213D48FFF794FCB2
:100C80000122D1033B48FFF78FFC1920400100F0FF
:100C900058FC0021AE2000F03AF90021022000F0BB
:100CA00036F90021102000F032F90021402000F038
:100CB0002EF90021B02000F02AF90021812000F057
:100CC00026F90021FF2000F022F90021A12000F0E8
:100CD0001EF90021A62000F01AF90021A82000F03A
:100CE00016F900213F2000F012F90021C82000F081
:100CF0000EF90021D32000F00AF90021084600F087
:100D000006F90021D52000F002F90021802000F032
:100D1000FEF80021D82000F0FAF80021052000F0AC
:100D2000F6F80021D92000F0F2F80021F12000F0BF
:100D3000EEF80021DA2000F0EAF80021122000F09D
:100D4000E6F80021DB2000F0E2F80021302000F07E
:100D5000DEF800218D2000F0DAF80021142000F0E8
:100D6000D6F80021AF2000F0D2F8FFF70EFF10BD3B
:100D700000400B4000200B4070B504460D4628464D
:100D8000B030002100F0C3F8A11CF022114009117D
:100D900008461030002100F0BAF8A11C0807000F27
:100DA000002100F0B4F870BDFFB581B007460D46D4
:100DB0000026002403982038C6B27F2F02DD0027CA
:100DC000A81CC5B20498102824D129463846FFF73C
:100DD000D3FF002408E031010919184A505C0121B1
:100DE00000F095F8601CC4B2082CF4DB681CC1B29A
:100DF0003846FFF7C1FF002409E031010919083125
:100E00000E4A505C012100F082F8601CC4B2082C2C
:100E1000F3DB11E029463846FFF7AEFF002409E076
:100E200006217143064A8918085D012100F06FF818
:100E3000601CC4B2062CF3DB05B0F0BD7E180000C8
:100E400056160000FFB583B01E460C9C0020029091
:100E500000253CE0701B401EC1B20A2000F0EEFBF2
:100E6000014600900598FFF787F90A210190FFF7E6
:100E700083F90F460298002815D1701EA84212DD92
:100E8000002F0ED1E00F0019401068430194039920
:100E90004018C0B22346202200900499FFF784FF37
:100EA00013E001200290E00F001940106843019404
:100EB00003994018C0B2009038463030C2B2234681
:100EC00004990098FFF770FF00BF681CC5B2B542D7
:100ED000C0DB07B0F0BDFFB581B004460F46154634
:100EE00000260FE0AA5D39462046049BFFF75CFF11
:100EF00020460830C4B2782C02DD0024B81CC7B2EA
:100F0000701CC6B2A85D0028ECD105B0F0BD70B56C
:100F100004460D46002D03D0E0B200F0DFFA02E0F7
:100F2000E0B200F0C5FA70BD70477047042806D1E2
:100F30000649096904221143044A116105E0034985
:100F4000096904229143014A1161704700E000E001
:100F5000002803D10021094A91610EE0012806D141
:100F60000649096901221143044A116105E0034958
:100F7000096949084900014A1161704700E000E031
:100F8000002806D00649096902221143044A11616A
:100F900005E00349096902229143014A1161704742
:100FA00000E000E0014948617047000000E000E017
:100FB0007047000010205849C86001205749086058
:100FC0005748006B402108435549086300BF554806
:100FD00080682728FBD103E0012040025149486086
:100FE000504840680121490208408842F4D102E09B
:100FF00000204C4948604B484068012149020840A4
:101000000028F5D1454908604548406A0321890216
:10101000884343494862084640680121C9020843A1
:101020003F49486000BF3E4880680007C00F002865
:10103000F9D03B484068C008C000C01C384948602F
:1010400000BF3748406B4007400F0328F9D13648AE
:101050000068C008C000401C3349086000203049C7
:10106000086208464068491588432D49486008468B
:101070000068891508432A49086008464068091530
:1010800008432749486000BF254880684007C00FD3
:101090000028F9D02248006B40218843204908638A
:1010A00008460068891588431D490860032000062A
:1010B000886108464068491508431949486000BFDF
:1010C000174880688007C00F0028F9D016480068CC
:1010D000C008C000801C1449086000201049086244
:1010E00008464068C008C000401C486000BF0C486B
:1010F000406B4007400F0128F9D10B4800681021D0
:1011000008430949086008460068012109030843AB
:1011100005490860704700000081084000830840CE
:101120000080084000A1064000020840CA43C26790
:10113000BFF34F8F7047002904D0026901231A437F
:10114000026103E002695208520002617047002AFE
:1011500003D0436F0B43436702E0436F8B43436706
:1011600070470000FCB50D78AD0006464036AF195B
:101170000D78AD005036AD1901950D78AD001036E3
:10118000AD1900950D786D062A0E274DA84203D1A2
:1011900003259540EC4302E001259540EC43224DA8
:1011A000A84200D100BF056D25400565436D234071
:1011B0001D4DA84206D18D79CE79760035439540F4
:1011C0002B4302E08D7995402B434365164DA84291
:1011D00009D1C56E25402B460D7A4E7A76003543EF
:1011E00095402B43C3663D68FF260836B5433D60F6
:1011F0003D684E8835433D604E89019D2E608E8945
:10120000009D2E60084DA84208D10D794E797600D8
:1012100035439540066D3543056504E0056D0E794F
:10122000964035430565FCBD00C0024070B58D0099
:10123000044640342B19046D4E000125B540AC43E3
:1012400004651C68FF250835AC4314431C6070BD61
:10125000002101704180017141718171C171017280
:1012600041724181818170474B88882213500B88DD
:1012700084221350026803231B049A43026002680D
:1012800001231B069A43026002688B681A430260BE
:10129000044A904202D10B798C2213508A898267CA
:1012A0007047000000C0024010B52021480600F041
:1012B0005FF800280CD00120800700F0B3F8044646
:1012C000044802780078401C024B1870024884548D
:1012D00010BD00000A0000200700002000B587B004
:1012E0000020019002900390012189030298884315
:1012F00040180290891102988843401802900123F7
:1013000001A807C8FFF728F80622FF2101310020B5
:10131000FEF75AFF062202210120FEF755FF4B205F
:10132000C0010490FF210131684681820021C18201
:101330000183418304A90120800700F023F80122E2
:101340000021900700F072F801221146900700F08A
:101350006DF8172001218140044A116000BF01226D
:101360001146900700F054F807B000BD00E100E01E
:10137000024610690840002801D001207047002073
:10138000FCE7000070B504460D4660681C49084043
:10139000E9880843A98808432989084369890843DB
:1013A000606001208007844207D11820FEF7B8FF53
:1013B00006462968FEF7E0FE60621248844207D1C3
:1013C0001A20FEF7ADFF06462968FEF7D5FE6062DB
:1013D0000D48844207D11C20FEF7A2FF064629686B
:1013E000FEF7CAFE60620948844207D11E20FEF75C
:1013F00097FF06462968FEF7BFFE606270BD0000D9
:10140000FCE0FFFF0000044000100040001004401A
:10141000002A03D0C3680B43C36002E0C3688B4358
:10142000C36070470146086880B2704710B5002A53
:1014300005D0436810248C402343436004E0436894
:1014400010248C40A343436010BD0000F8B505464E
:101450002C4600220121C9031348FFF7A5F80026F6
:101460001EE0274680200740802F05D10122102151
:101470000E48FFF799F804E0002210210B48FFF70F
:1014800093F86006040E0122D1030748FFF78CF899
:1014900000220121C9030448FFF786F8701CC6B278
:1014A000082EDEDBF8BD000000200B4000400B40A2
:1014B00010B50446FFF726F97820FFF7C7FFFFF7BE
:1014C00053F90020FFF7C2FFFFF74EF92046FFF760
:1014D000BDFFFFF749F9FFF731F910BD10B504461C
:1014E000FFF710F97820FFF7B1FFFFF73DF9402033
:1014F000FFF7ACFFFFF738F92046FFF7A7FFFFF72C
:1015000033F9FFF71BF910BD30B47446641E25781B
:10151000641CAB4204D3635D5B00E31830BC184726
:101520001D46F8E702E008C8121F08C1002AFAD1D8
:1015300070477047002001E001C1121F002AFBD153
:10154000704710B5044603E07D20C00000F006F8A7
:101550002046611E8CB20028F6D110BD70B504463D
:101560000420C043FFF7E2FC13490968C808134987
:10157000FEF702FE0646FFF715FD0020FFF700FD0F
:101580000020FFF7E5FC0120FFF7E2FC002508E062
:1015900000BF0B4800690121090408400028F8D069
:1015A0006D1CA542F4D30120C043FFF7D1FC0020FD
:1015B000FFF7CEFC70BD00001000002040420F007D
:1015C00000E000E008B5FEF7F5FFFFF785F8FFF74C
:1015D00085FEFEF74FFFFFF74BFBFFF7D5F8102313
:1015E00010A200210846FFF776FC10230FA202216B
:1015F0000020FFF770FC13E03220FFF7A2FFFFF797
:1016000015F90D49087008460078002808D0102008
:10161000022300900846027800212820FFF712FCE0
:10162000EAE70000204B65793A0000002057656921
:101630006768743A000000000400002010B50246FC
:10164000012002E00346534318460B464C1EE1B20C
:10165000002BF7D110BD0000000000000000002F9B
:10166000000000000700070000147F147F1400240E
:101670002A7F2A120062640813230036495522503B
:1016800000000503000000001C2241000000412270
:101690001C000014083E08140008083E080800005A
:1016A00000A0600000080808080800006060000052
:1016B000002010080402003E5149453E0000427FD0
:1016C0004000004261514946002141454B3100181C
:1016D00014127F10002745454539003C4A494930DE
:1016E0000001710905030036494949360006494998
:1016F000291E0000363600000000563600000008A3
:10170000142241000014141414140000412214087F
:1017100000020151090600324959513E007C121164
:10172000127C007F49494936003E41414122007FF9
:101730004141221C007F49494941007F09090901B3
:10174000003E4149497A007F0808087F0000417F38
:101750004100002040413F01007F08142241007FEA
:1017600040404040007F020C027F007F0408107F51
:10177000003E4141413E007F09090906003E4151BA
:10178000215E007F09192946004649494931000177
:10179000017F0101003F4040403F001F2040201FCB
:1017A000003F4038403F006314081463000708708E
:1017B000080700615149454300007F414100005541
:1017C0002A552A55000041417F000004020102040D
:1017D00000404040404000000102040000205454FA
:1017E0005478007F4844443800384444442000384A
:1017F0004444487F00385454541800087E090102BC
:101800000018A4A4A47C007F080404780000447D90
:101810004000004080847D00007F102844000000CC
:10182000417F4000007C04180478007C08040478A0
:1018300000384444443800FC24242418001824248C
:1018400018FC007C08040408004854545420000488
:101850003F444020003C4040207C001C2040201C95
:10186000003C4030403C004428102844001CA0A00C
:10187000A07C004464544C44141414141414000048
:101880000000000000000000000000000000000058
:1018900000F80000000000000033300000000010DD
:1018A0000C06100C0600000000000000000040C004
:1018B0007840C0784000043F04043F0404000070F6
:1018C00088FC08300000001820FF211E0000F008EE
:1018D000F000E018000000211C031E211E0000F093
:1018E0000888700000001E212324192721101016DB
:1018F0000E000000000000000000000000000000DA
:1019000000E0180402000000000718204000000258
:101910000418E000000000402018070000004040CC
:1019200080F0804040000202010F0102020000002E
:1019300000F0000000000101011F01010100000092
:1019400000000000000080B07000000000000000F7
:101950000000000000000001010101010101000080
:101960000000000000000030300000000000000017
:10197000000080601804006018060100000000E00C
:1019800010080810E000000F102020100F000010B9
:1019900010F8000000000020203F20200000007010
:1019A0000808088870000030282422213000003008
:1019B0000888884830000018202020110E00000000
:1019C000C02010F8000000070424243F240000F881
:1019D0000888880808000019212020110E0000E066
:1019E000108888180000000F112020110E00003808
:1019F0000808C83808000000003F00000000007020
:101A0000880808887000001C222121221C0000E0A8
:101A100010080810E0000000312222110F00000021
:101A200000C0C000000000000030300000000000D6
:101A30000080000000000000806000000000000046
:101A400080402010080000010204081020004040DF
:101A50004040404040000404040404040400000822
:101A600010204080000000201008040201000070D7
:101A700048080808F0000000003036010000C030BF
:101A8000C828E810E0000718272423140B000000E2
:101A9000C038E0000000203C23020227382008F86C
:101AA000888888700000203F202020110E00C03060
:101AB000080808083800071820202010080008F837
:101AC00008080810E000203F202020100F0008F830
:101AD0008888E8081000203F20202320180008F8FC
:101AE0008888E8081000203F200003000000C03074
:101AF00008080838000007182020221E020008F8F5
:101B000008000008F808203F210101213F200008BB
:101B100008F8080800000020203F202000000000F6
:101B20000808F8080800C08080807F00000008F8DE
:101B300088C028180800203F20012638200008F817
:101B4000080000000000203F20202020300008F87E
:101B5000F800F8F80800203F003F003F200008F898
:101B600030C00008F808203F200007183F00E010B0
:101B700008080810E0000F10202020100F0008F8BF
:101B800008080808F000203F210101010000E010D2
:101B900008080810E0000F18242438504F0008F8F7
:101BA000888888887000203F2000030C3020007057
:101BB0008808080838000038202121221C00180855
:101BC00008F8080818000000203F2000000008F86E
:101BD00008000008F808001F202020201F000878B7
:101BE000880000C83808000007380E010000F80817
:101BF00000F80008F800033C0700073C0300081841
:101C000068808068180820302C03032C30200838A6
:101C1000C800C83808000000203F2000000010085D
:101C20000808C838080020382621202018000000A5
:101C300000FE020202000000007F40404000000C55
:101C400030C000000000000000010638C0000002A3
:101C50000202FE000000004040407F000000000043
:101C60000402020204000000000000000000000066
:101C70000000000000008080808080808080000262
:101C8000020400000000000000000000000000004E
:101C90008080808000000019242222223F2008F842
:101CA000008080000000003F112020110E00000085
:101CB000008080800000000E112020201100000014
:101CC00000808088F800000E112020103F200000C6
:101CD000808080800000001F2222222213000080CA
:101CE00080F0888888180020203F20200000000015
:101CF000808080808000006B94949493600008F84A
:101D0000008080800000203F210000203F200080D4
:101D10009898000000000020203F202000000000D4
:101D200000809898000000C08080807F000008F844
:101D3000000080808000203F24022D302000000819
:101D400008F8000000000020203F202000008080D4
:101D5000808080808000203F20003F20003F8080E6
:101D6000008080800000203F210000203F200000F4
:101D7000808080800000001F202020201F008080A5
:101D800000808000000080FFA12020110E000000D4
:101D9000008080808000000E112020A0FF808080C5
:101DA00080008080800020203F2120000100000072
:101DB0008080808080000033242424241900008047
:101DC00080E0808000000000001F20200000808054
:101DD000000000808000001F202020103F20808015
:101DE00080000080808000010E30080601008080A5
:101DF0000080008080800F300C030C300F000080CA
:101E00008000808080000020312E0E3120008080F4
:101E100080000080808080818E7018060100008024
:101E20008080808080000021302C22213000000042
:101E30000000807C020200000000003F40400000E3
:101E40000000FF00000000000000FF000000000292
:101E5000027C800000000040403F000000000006BF
:101E60000101020204040000000000000000000064
:101E7000901E000000000020140000002415000047
:101E8000A41E00001400002004020000341500000D
:101E90000000000000000000000000000000000042
:041EA000006CDC02F4
:040000050000016591
:00000001FF
