:020000040000FA
:1000000010020020C1000000ED060000DD06000027
:10001000FFFFFFFFFFFFFFFFFFFFFFFFFFFFFFFFF0
:10002000FFFFFFFFFFFFFFFFFFFFFFFFF1060000E5
:10003000FFFFFFFFFFFFFFFFEF0600007907000053
:1000400035010000350100003501000035010000D8
:1000500035010000350100003501000035010000C8
:1000600035010000FFFFFFFF3501000035010000F2
:10007000350100003501000035010000FFFFFFFFE2
:10008000FFFFFFFF350100003501000035010000D2
:10009000350100003501000035010000710A000043
:1000A0003501000035010000350100003501000078
:1000B0003501000035010000350100003501000068
:1000C0001D4880471D4880471D4800471D4801695D
:1000D000002908D14169002905D18169002902D18F
:1000E000C169002909D01848C1680901090D002912
:1000F0000ED005290CD006290AD0BFF34F8F134824
:100100001349016013491248C860BFF34F8FFEE7DF
:100110000E4801680E48884200D070470E480F49CB
:1001200001600A480E4901607047FEE7FEE7FEE7FE
:10013000FEE7FEE7FEE70000CD0000007D070000BF
:100140006501000000030840800108400000002015
:100150000400FA0500ED00E0008108400100000005
:10016000000000000348854600F01CF800480047E6
:10017000690D00001002002030B50B46014600203A
:100180002022012409E00D46D5409D4205D31D469D
:100190009540491B2546954040191546521E002D95
:1001A000F1DC30BD064C0125064E05E0E36807CCC6
:1001B0002B430C3C98471034B442F7D3FFF7D6FFDB
:1001C000940D0000B40D0000F7B50B46009DED0046
:1001D000154EAA19002000240027002120E0002449
:1001E0000027FF258D401D40002D17D000200FE077
:1001F0001D46C54001268E403540002D07D08600A3
:100200000F25B5402C438600029DB5402F43401C6E
:100210000828EDD31568A5433D431560121D08312C
:100220000829DCDDFEBD00002020024070B5044638
:100230001F48406B4607760F00F03EF82060330001
:1002400000F021FD081605080B16160E1216206880
:10025000606010E0174860600DE0164860600AE0DA
:100260000120C003606006E07D200002606002E0C3
:100270000020606000BF00BF0D48056A052D02D355
:100280006068400901E06068E840A0600848806A52
:10029000072109040840050C072D04D10321A0689B
:1002A000FFF76AFF01E0A068E840E06070BD000071
:1002B0000080084000127A00F0B517480068FF2758
:1002C00001373840040A1448C069C50F1248406815
:1002D0007F003840460A002E01D10020F0BD002CDE
:1002E00001D10E4800E00D480346012D01D118460A
:1002F000F4E7094880690F27FF053840C10D002940
:1003000000D110210448806903277F053840420D41
:1003100018464843D040E1E70080084000127A00C8
:100320007FB50446601180000A49461800252E2C2E
:1003300000D10225E406E40E0321A1403068084004
:10034000E04045196846FFF771FF0298E84004B0A5
:1003500070BD0000388008403FB50E4C606AE16A0D
:10036000226B0446009DAC4320460C46019DAC43E5
:1003700021461446029DAC432246002B05D0009C2A
:100380002043019C2143029C2243024C6062E162B3
:1003900022633FBD00800840002A03D003680B435E
:1003A000036002E003688B43036070470EB50020D2
:1003B0000090019002900121890301988843401820
:1003C0000190C900009888434018009001236846B6
:1003D00007C8FFF7C1FF01222A211046FFF7F4FEEC
:1003E00001222A21064800F0B9F800222A210448F7
:1003F000FFF7D2FF01222A21014800F02FF80EBD9D
:1004000000200B400EB500200090019002900121C9
:1004100089030198884340180190C90000988843D7
:10042000401800900123684607C8FFF795FF012296
:1004300015211046FFF7C8FE01221521064800F0DD
:100440008DF800221521044800F0A3F8012215219F
:100450000148FFF7A1FF0EBD00200B40002A03D08A
:1004600043680B43436002E043688B43436070473B
:100470000EB500200090019002900121890301989F
:1004800088434018019089000098884340180090E4
:10049000490000988843401800904900009888431C
:1004A000401800900123684607C8FFF755FF012256
:1004B000D1030020FFF788FE0122A8211046FFF794
:1004C00083FE012221490220FFF77EFE0022012146
:1004D000C9031F4800F042F80022A8211D4800F07F
:1004E0003DF8002219491C4800F038F8002201218B
:1004F000C9031748FFF750FF0022A8211548FFF74E
:100500004BFF002211491448FFF746FF0122D10397
:100510000F48FFF741FF0122A8210E48FFF73CFFDB
:1005200001220A490C48FFF737FF0122D10308488E
:10053000FFF794FF0122A8210648FFF78FFF012251
:1005400002490548FFF78AFF0EBD0000088300003E
:1005500000000B4000200B4000400B40002A06D159
:1005600083680B438360C3688B43C3600EE0012A3A
:1005700006D1C3680B43C36083688B43836005E087
:1005800083688B438360C3688B43C3607047416259
:100590007047002A01D0416200E08162704700008C
:1005A00000B58BB000200090019002900121090459
:1005B000009888434018009089100198884340189B
:1005C00001908911029888434018029001236846DF
:1005D00007C8FFF7C1FE0422F0210020FFF7F4FD59
:1005E0000122F0213448FFF7D7FEFF2101313348C3
:1005F00000F080F903A800F00FFA00200990C7214D
:100600006846C1832E498183FF210131018507A9F5
:100610002A4800F00DFA0021684601730121017497
:100620000621C1810121817406220021234800F0A6
:10063000E1F903A9214800F079F901216846017325
:1006400001740621C1810121817406221B4800F03A
:10065000D1F903A9194800F069F90221684601732C
:10066000012101740621C181012181740622022128
:10067000124800F0BFF903A9104800F057F9032110
:1006800068460173012101740621C1810121817431
:1006900006220321094800F0ADF903A9074800F03C
:1006A00045F901220F21054800F035F901210348E1
:1006B00000F025F90BB000BD00000B4000E0064043
:1006C000BF12000010B5FFF79DFEFFF76FFE15216A
:1006D0000148FFF75CFF10BD00200B4000BF02483F
:1006E00000680028FBD0704700000020704770476A
:1006F00070470000042806D1064909690422114305
:10070000044A116105E00349096904229143014A41
:100710001161704700E000E0002803D10021094A80
:1007200091610EE0012806D10649096901221143B1
:10073000044A116105E00349096949084900014A71
:100740001161704700E000E0002806D00649096901
:1007500002221143044A116105E00349096902229A
:100760009143014A1161704700E000E0014948618E
:100770007047000000E000E070470000102058497A
:10078000C8600120574908605748006B4021084362
:100790005549086300BF554880682728FBD103E00E
:1007A00001204002514948605048406801214902F7
:1007B00008408842F4D102E000204C4948604B4890
:1007C00040680121490208400028F5D145490860E8
:1007D0004548406A032189028843434948620846E4
:1007E00040680121C90208433F49486000BF3E48B4
:1007F00080680007C00F0028F9D03B484068C00857
:10080000C000C01C3849486000BF3748406B4007F3
:10081000400F0328F9D136480068C008C000401CCA
:10082000334908600020304908620846406849158D
:1008300088432D49486008460068891508432A49BD
:10084000086008464068091508432749486000BF0A
:10085000254880684007C00F0028F9D02248006B67
:100860004021884320490863084600688915884369
:100870001D49086003200006886108464068491544
:1008800008431949486000BF174880688007C00FB7
:100890000028F9D016480068C008C000801C144920
:1008A000086000201049086208464068C008C0007F
:1008B000401C486000BF0C48406B4007400F0128B7
:1008C000F9D10B480068102108430949086008461F
:1008D00000680121090308430549086070470000CA
:1008E00000810840008308400080084000A10640C5
:1008F00000020840CA43C267BFF34F8F7047002908
:1009000004D0026901231A43026103E0026952081C
:10091000520002617047002A03D0436F0B434367C4
:1009200002E0436F8B43436770470000FCB50D78CE
:10093000AD0006464036AF190D78AD005036AD1902
:1009400001950D78AD001036AD1900950D786D0646
:100950002A0E274DA84203D103259540EC4302E01F
:1009600001259540EC43224DA84200D100BF056D02
:1009700025400565436D23401D4DA84206D18D7964
:10098000CE797600354395402B4302E08D79954032
:100990002B434365164DA84209D1C56E25402B4611
:1009A0000D7A4E7A7600354395402B43C3663D68F9
:1009B000FF260836B5433D603D684E8835433D60AF
:1009C0004E89019D2E608E89009D2E60084DA842A3
:1009D00008D10D794E79760035439540066D354343
:1009E000056504E0056D0E79964035430565FCBD4F
:1009F00000C0024070B58D00044640342B19046DD0
:100A00004E000125B540AC4304651C68FF25083540
:100A1000AC4314431C6070BD002101704180017122
:100A200041718171C171017241724181818170474F
:100A30004B88882213500B888422135002680323AA
:100A40001B049A430260026801231B069A4302605A
:100A500002688B681A430260044A904202D10B7903
:100A60008C2213508A8982677047000000C00240C0
:100A700010B52021480600F05FF800280CD00120B6
:100A8000800700F0B3F80446044802780078401C60
:100A9000024B18700248845410BD0000080000206A
:100AA0000500002000B587B000200190029003905F
:100AB0000121890302988843401802908911029805
:100AC000884340180290012301A807C8FFF744FC9F
:100AD000062204210020FFF777FB062208210020D0
:100AE000FFF772FB4B20C0010490FF2101316846E3
:100AF00081820021C1820183418304A901208007F2
:100B000000F024F801220021900700F075F801227E
:100B10001146900700F070F8172001218140054A26
:100B2000116000BF01221146900700F055F807B090
:100B300000BD000000E100E0024610690840002806
:100B400001D0012070470020FCE7000070B504468A
:100B50000D4660681C490840E9880843A988084395
:100B6000298908436989084360600120800784421D
:100B700007D11820FFF7D4FB06462968FFF7FCFAD7
:100B800060621248844207D11A20FFF7C9FB06466B
:100B90002968FFF7F1FA60620D48844207D11C20F2
:100BA000FFF7BEFB06462968FFF7E6FA60620948D0
:100BB000844207D11E20FFF7B3FB06462968FFF7E2
:100BC000DBFA606270BD0000FCE0FFFF0000044043
:100BD0000010004000100440002A03D0C3680B43FB
:100BE000C36002E0C3688B43C36070470146086876
:100BF00080B270470160704710B5002A05D0436885
:100C000010248C402343436004E0436810248C404C
:100C1000A343436010BD000070B555245025214604
:100C2000A00700F021F8642000F05CF82946A00736
:100C300000F01AF8642000F055F808480078000227
:100C400006494978401806490880044880782D38BC
:100C50000449087000F034F870BD00000500002061
:100C60000A0000200900002070B504460D46294600
:100C70002046FFF7BFFF00BF80212046FFF75CFF43
:100C80000028F9D070BD30B47446641E2578641C09
:100C9000AB4204D3635D5B00E31830BC18471D46CC
:100CA000F8E702E008C8121F08C1002AFAD170470D
:100CB0007047002001E001C1121F002AFBD17047DC
:100CC000002000BF06E00021044A1154044A1170BC
:100CD000411CC8B20328F6DB704700000500002065
:100CE0000800002010B5044603E07D20C00000F09D
:100CF00007F82046611E8CB20028F6D110BD000016
:100D000070B504460420C043FFF7F4FC134909689A
:100D1000C8081349FFF730FA0646FFF727FD002001
:100D2000FFF712FD0020FFF7F7FC0120FFF7F4FCAE
:100D3000002508E000BF0B480069012109040840B4
:100D40000028F8D06D1CA542F4D30120C043FFF762
:100D5000E3FC0020FFF7E0FC70BD00000C00002069
:100D600040420F0000E000E0FFF71AFCFFF7AAFC8A
:100D7000FFF798FEFFF77CFB0AE0FF2101208007C8
:100D8000FFF772FFFF20F530FFF7ACFFFFF744FFDE
:100D9000F3E70000B40D0000000000201000000088
:100DA000A20C0000C40D0000100000200002000092
:100DB000B20C000000000000000000000000000075
:040DC000006CDC02E5
:040000050000016591
:00000001FF
