:020000040000FA
:1000000068020020C10000002D0C0000010B000060
:10001000FFFFFFFFFFFFFFFFFFFFFFFFFFFFFFFFF0
:10002000FFFFFFFFFFFFFFFFFFFFFFFF470C000089
:10003000FFFFFFFFFFFFFFFF450C0000CD0C00009E
:1000400035010000350100003501000035010000D8
:1000500035010000350100003501000035010000C8
:1000600035010000FFFFFFFF35010000FD07000024
:10007000C50700003501000035010000FFFFFFFF4C
:10008000FFFFFFFF350100003501000035010000D2
:10009000350100003501000035010000A11100000C
:1000A0003501000035010000350100003501000078
:1000B0003501000035010000350100003501000068
:1000C0001D4880471D4880471D4800471D4801695D
:1000D000002908D14169002905D18169002902D18F
:1000E000C169002909D01848C1680901090D002912
:1000F0000ED005290CD006290AD0BFF34F8F134824
:100100001349016013491248C860BFF34F8FFEE7DF
:100110000E4801680E48884200D070470E480F49CB
:1001200001600A480E4901607047FEE7FEE7FEE7FE
:10013000FEE7FEE7FEE70000CD000000D10C000066
:100140006501000000030840800108400000002015
:100150000400FA0500ED00E0008108400100000005
:10016000000000000348854600F09AF90048004767
:10017000191500006802002030B50B46014600202A
:100180002022012409E00D46D5409D4205D31D469D
:100190009540491B2546954040191546521E002D95
:1001A000F1DC30BDF0B50C465C4085B0E40FE407EF
:1001B00003944C00002664085900944649080246FE
:1001C0000296224321D062460A431ED06200570D98
:1001D0004A000E032303550D012402462C49240531
:1001E000781B1B0B360B40182343264361460090B7
:1001F0001C46501AB44103D30098401C009002E002
:10020000921800985B41002803DA0020014605B0EF
:10021000F0BD0020012109050746864611E064462D
:100220001D46141BB54106D36546521BB3417446A7
:1002300007430C43A646CD074008490828439218B7
:100240005B4105460D43EAD11046184313D0604682
:10025000194650407140084306D06046101AB34119
:1002600006D20122002306E000220123DB0702E080
:100270000122D2435310009874460105381C614195
:10028000029C039D0019694100F0AAF8BFE7000035
:10029000FD030000C217C10F504010B54018CA0737
:1002A0009623002100F063F810BD000070B5CD0F5B
:1002B0004A0009030123090B1B0519430B4BED07EA
:1002C0000024520D9A4201DA002070BD074B3433EE
:1002D0009A4203DC9A1A00F031F802E004495118FE
:1002E00088402C43F1D0404270BD0000FF03000065
:1002F000CDFBFFFFC20FD207400040080BD0C10D5D
:100300000723DB01C91840020905400A1143C2084E
:1003100040071143704700200146704710B5202A5E
:1003200004DB0146203A9140002010BD914020237B
:100330009C1A0346E3401943904010BD10B5202A93
:1003400004DB0846203AD040002110BD0B46D340C4
:10035000D0402024A21A91400843194610BD00291C
:1003600004DA401C490001D140084000704770B4D5
:100370000024050C05D11024000402D1002921D04D
:100380001124050E01D100020834050F01D100012E
:10039000241D850F01D18000A41C002801DB400032
:1003A000641C002908D020252E1B0D46F540A140D5
:1003B00000D001212943084301061B1B000ADB1D55
:1003C00002D5002070BC7047DB0518188018002982
:1003D000F8DA401C4900F5D170BC40084000704775
:1003E00010B5002B08DA0024401C614192185B41D3
:1003F0001A4301D14008400010BDF0B51FB482B0CF
:1004000005460C0003D0084600F0FEFF02E000F0B5
:10041000FBFF20300246009021462846FFF77EFF72
:10042000049B059A04460F4618431143084314D011
:10043000184610431BD0009840210A1A1846059907
:10044000FFF77CFF05460E46009A05990498FFF7D2
:1004500065FF084305D0012004E02046394607B077
:10046000F0BD0020C11705430E432C4337430099CC
:100470000E986305401A7905E40A00220C43FD0A30
:100480000A3002D500200146E9E70105101969414B
:100490000C9C0D9D00196941FFF7A2FFDFE70000EA
:1004A000064C0125064E05E0E36807CC2B430C3CC7
:1004B00098471034B442F7D3FFF758FE3C150000BC
:1004C0005C150000F7B50B46009DED00154EAA190E
:1004D000002000240027002120E000240027FF2521
:1004E0008D401D40002D17D000200FE01D46C54057
:1004F00001268E403540002D07D086000F25B540DF
:100500002C438600029DB5402F43401C0828EDD3A4
:100510001568A5433D431560121D08310829DCDD2F
:10052000FEBD00002020024070B504461F48406B0D
:100530004607760F00F03EF82060330000F07BFFA6
:10054000081605080B16160E12162068606010E0DB
:10055000174860600DE0164860600AE00120C003A3
:10056000606006E07D200002606002E000206060C4
:1005700000BF00BF0D48056A052D02D36068400921
:1005800001E06068E840A0600848806A072109042B
:100590000840050C072D04D10321A068FFF7ECFDEE
:1005A00001E0A068E840E06070BD00000080084005
:1005B00000127A00F0B517480068FF27013738406D
:1005C000040A1448C069C50F124840687F003840CB
:1005D000460A002E01D10020F0BD002C01D10E48AA
:1005E00000E00D480346012D01D11846F4E7094803
:1005F00080690F27FF053840C10D002900D1102167
:100600000448806903277F053840420D1846484357
:10061000D040E1E70080084000127A007FB5044630
:10062000601180000A49461800252E2C00D10225B1
:10063000E406E40E0321A14030680840E04045197B
:100640006846FFF771FF0298E84004B070BD0000F3
:10065000388008403FB50E4C606AE16A226B044660
:10066000009DAC4320460C46019DAC4321461446F8
:10067000029DAC432246002B05D0009C2043019CE8
:100680002143029C2243024C6062E16222633FBD2F
:100690000080084081627047002A03D003680B4342
:1006A000036002E003688B43036070470EB50020CF
:1006B000009001900290012189030198884340181D
:1006C0000190C900009888434018009001236846B3
:1006D00007C8FFF7BFFF01222A211046FFF7F2FEED
:1006E00001222A21064800F043F800222A2104486A
:1006F000FFF7D2FF01222A21014800F02FF80EBD9A
:1007000000200B400EB500200090019002900121C6
:1007100089030198884340180190C90000988843D4
:10072000401800900123684607C8FFF793FF012295
:1007300015211046FFF7C6FE01221521064800F0DC
:1007400017F800221521044800F036F8012215217F
:100750000148FFF7A1FF0EBD00200B40002A03D087
:1007600043680B43436002E043688B434360704738
:10077000002A06D183680B438360C3688B43C36040
:100780000EE0012A06D1C3680B43C36083688B4324
:10079000836005E083688B438360C3688B43C360D9
:1007A00070470246D3690B40002B01D0012000E0C6
:1007B0000020704741627047002A01D0416200E08A
:1007C0008162704710B5FF2101310A4800F03AFC00
:1007D00000280DD0FF210131064800F0F7FB064844
:1007E0000068401C0449086000200249803108600C
:1007F00010BD000000E006403400002010B5FF21CD
:1008000001310A4800F01EFC00280DD0FF21013103
:10081000064800F0DBFB06480068401C04490860FD
:10082000002002498031086010BD000000F0064041
:1008300038000020F8B500F09DF83E49086000F04F
:10084000DBF83D49086000F019F93C490860394877
:1008500000683B49096888421CD936480068394914
:1008600008600846006836490968401A354908603A
:1008700008460068FFF70EFD0090FFF73BFD0446B9
:100880000022314BFFF78EFC0646FFF70FFD2D4986
:10089000086002E000202B490860274800682B49C7
:1008A000096888421CD9244800682949086008461C
:1008B000006826490968401A25490860084600680A
:1008C000FFF7E8FC0090FFF715FD064600221E4BDF
:1008D000FFF768FC0446FFF7E9FC1D49086002E0E9
:1008E00000201B490860154800681A4909688842B9
:1008F0001CD9124800681849086008460068154964
:100900000968401A1449086008460068FFF7C2FCED
:100910000090FFF7EFFC044600220B4BFFF742FC70
:100920000646FFF7C3FC0C49086002E000200A49B4
:100930000860F8BD0C00002010000020140000200A
:10094000180000202400002000A05A401C000020B5
:1009500028000020200000202C00002010B5FFF708
:10096000D1FEFFF7A3FE15210148FFF723FF10BDBD
:1009700000200B4070B501211E48FFF71BFF01202E
:1009800000F096FD01211B48FFF784FE002400BF04
:1009900002211848FFF705FF0028F9D1002517E0CC
:1009A00001211448FFF706FF6400012000F080FDDC
:1009B00001211048FFF76EFE02210E48FFF7F1FEFD
:1009C000002800D0641C012000F072FD681CC5B234
:1009D000182DE5DB01210748FFF7ECFE0120C005DB
:1009E0004440012000F064FD01210248FFF752FE5F
:1009F000204670BD00200B4070B504211E48FFF753
:100A0000D9FE012000F054FD04211B48FFF742FEEF
:100A1000002400BF08211848FFF7C3FE0028F9D1C1
:100A2000002517E004211448FFF7C4FE64000120EC
:100A300000F03EFD04211048FFF72CFE08210E486F
:100A4000FFF7AFFE002800D0641C012000F030FD4D
:100A5000681CC5B2182DE5DB04210748FFF7AAFE84
:100A60000120C0054440012000F022FD042102487D
:100A7000FFF710FE204670BD00200B4070B510211E
:100A80001E48FFF797FE012000F012FD10211B48C1
:100A9000FFF700FE002400BF20211848FFF781FE69
:100AA0000028F9D1002517E010211448FFF782FE35
:100AB0006400012000F0FCFC10211048FFF7EAFD63
:100AC00020210E48FFF76DFE002800D0641C012095
:100AD00000F0EEFC681CC5B2182DE5DB10210748BC
:100AE000FFF768FE0120C0054440012000F0E0FC53
:100AF00010210248FFF7CEFD204670BD00200B40BC
:100B000000BF024800680028FBD0704700000020AA
:100B1000002904D0026F10231A43026703E0026F1A
:100B200010239A430267704700B58BB000200090F5
:100B30000190029001218903019888434018019097
:100B4000029840084000401C02900123684607C8F4
:100B5000FFF780FD042211030020FFF7B3FC0422FD
:100B600001210846FFF7AEFC042211460120FFF7E1
:100B7000A9FC042208210320FFF7A4FC29496846A8
:100B8000C1830021818308A8017000200990FF2102
:100B900001316846018507A9234800F0E1FA0121E7
:100BA000214800F051F90021684601730621C181F6
:100BB000012101740021817401751A49491CC18207
:100BC0000021018303A9184800F056FA0121684664
:100BD00001730021C1820121817403A9124800F030
:100BE0004BFA0221684601730E49491CC18200215B
:100BF000817403A90C4800F03FFA03216846017391
:100C00000021C1820121817403A9074800F034FA50
:100C10000121054800F0DFF901210348FFF778FFC3
:100C20000BB000BDBF5D000000C002407047000077
:100C3000C206D20E01219140014A116070470000A6
:100C400000E100E070477047042806D106490969B1
:100C500004221143044A116105E003490969042291
:100C60009143014A1161704700E000E0002803D180
:100C70000021094A91610EE0012806D1064909695F
:100C800001221143044A116105E003490969490839
:100C90004900014A1161704700E000E0002806D0D9
:100CA0000649096902221143044A116105E003491A
:100CB000096902229143014A1161704700E000E096
:100CC000014948617047000000E000E07047000003
:100CD00010205849C8600120574908605748006BE8
:100CE000402108435549086300BF554880682728BC
:100CF000FBD103E001204002514948605048406860
:100D00000121490208408842F4D102E000204C4908
:100D100048604B4840680121490208400028F5D14D
:100D2000454908604548406A032189028843434990
:100D30004862084640680121C90208433F494860AB
:100D400000BF3E4880680007C00F0028F9D03B482C
:100D50004068C008C000C01C3849486000BF374820
:100D6000406B4007400F0328F9D136480068C0089F
:100D7000C000401C33490860002030490862084622
:100D80004068491588432D49486008460068891520
:100D900008432A490860084640680915084327495E
:100DA000486000BF254880684007C00F0028F9D080
:100DB0002248006B402188432049086308460068A8
:100DC000891588431D49086003200006886108468C
:100DD0004068491508431949486000BF17488068B2
:100DE0008007C00F0028F9D016480068C008C0006E
:100DF000801C1449086000201049086208464068B9
:100E0000C008C000401C486000BF0C48406B400751
:100E1000400F0128F9D10B48006810210843094907
:100E20000860084600680121090308430549086075
:100E3000704700000081084000830840008008409F
:100E400000A1064000020840002904D002690223E4
:100E50001A43026103E0026902239A430261704768
:100E60001FB5002001900290039001210904019810
:100E700088434018019089100298884340180290D6
:100E800089110398884340180390012301A807C8DB
:100E9000FFF7E0FB012149020398884340180390C3
:100EA000012301A807C8FFF7D5FB04224021002039
:100EB000FFF708FB042280210020FFF703FB042238
:100EC00011460020FFF7FEFA042208210020FFF758
:100ED000F9FA1321684601800021C94341800121AC
:100EE000017100200290090268468181694622480A
:100EF00000F036F96946214800F032F900231A461D
:100F0000032109021C4800F073F800231A4603214C
:100F100009021A4800F06CF806230122082116483D
:100F200000F02EF8062301220821144800F028F8CA
:100F3000FF210131104800F044F8FF2101310F4832
:100F400000F03FF8012211020B4800F08BF801225B
:100F500011020A4800F086F80C20FFF769FE0B200A
:100F6000FFF766FE0121044800F035F8012103482F
:100F700000F031F81FBD000000E0064000F0064020
:100F8000F8B504460E4617461D46022E07D1CB0380
:100F90003A4601212046009500F00EFA07E00123B1
:100FA0001B043A4600212046009500F005FA314620
:100FB000204600F0C5F86068072109020843606018
:100FC000F8BDCA43C267BFF34F8F7047CA43C267B9
:100FD000BFF34F8F7047002904D0026901231A43E1
:100FE000026103E00269520852000261704700008A
:100FF000FFB50C464168026A456A436D0726360212
:101000000F46B74339460E46264331460C4E324012
:10101000032636042F46B7433D46012636043243A5
:10102000354305261F46B7433B46039EB600029F45
:101030003E4333434160026245624365FFBD0000A9
:10104000FFFFFC7F10B50246D06F08400346506F8B
:1010500008400446002B03D0002C01D0012010BD15
:101060000020FCE7002A03D0436F0B43436702E0F4
:10107000436F8B4343677047FCB50D78AD00064660
:101080004036AF190D78AD005036AD1901950D7889
:10109000AD001036AD1900950D786D062A0E274D5E
:1010A000A84203D103259540EC4302E00125954079
:1010B000EC43224DA84200D100BF056D25400565D7
:1010C000436D23401D4DA84206D18D79CE7976001F
:1010D000354395402B4302E08D7995402B43436582
:1010E000164DA84209D1C56E25402B460D7A4E7A81
:1010F0007600354395402B43C3663D68FF2608368E
:10110000B5433D603D684E8835433D604E89019D45
:101110002E608E89009D2E60084DA84208D10D7961
:101120004E79760035439540066D3543056504E0FC
:10113000056D0E79964035430565FCBD00C0024043
:1011400010B5436807242402A343436083681A0947
:101150001201836814460C432343836010BD0000D2
:101160004B88882213500B88842213500268032373
:101170001B049A430260026801231B069A43026023
:1011800002688B681A430260044A904202D10B79CC
:101190008C2213508A8982677047000000C0024089
:1011A00010B52021480600F05FF800280CD001207F
:1011B000800700F0B3F80446044802780078401C29
:1011C000024B18700248845410BD00000800002033
:1011D0000500002000B587B0002001900290039028
:1011E00001218903029888434018029089110298CE
:1011F000884340180290012301A807C8FFF72AFA84
:10120000062204210020FFF75DF9062208210020B4
:10121000FFF758F94B20C0010490FF2101316846C7
:1012200081820021C1820183418304A901208007BA
:1012300000F024F801220021900700F075F8012247
:101240001146900700F070F8172001218140054AEF
:10125000116000BF01221146900700F055F807B059
:1012600000BD000000E100E00246106908400028CF
:1012700001D0012070470020FCE7000070B5044653
:101280000D4660681C490840E9880843A98808435E
:1012900029890843698908436060012080078442E6
:1012A00007D11820FFF7BAF906462968FEF764FF50
:1012B00060621248844207D11A20FFF7AFF9064650
:1012C0002968FEF759FF60620D48844207D11C204F
:1012D000FFF7A4F906462968FEF74EFF6062094849
:1012E000844207D11E20FFF799F906462968FEF7C8
:1012F00043FF606270BD0000FCE0FFFF000004409F
:101300000010004000100440002A03D0C3680B43C3
:10131000C36002E0C3688B43C3607047014608683E
:1013200080B270470160704710B5002A05D043684D
:1013300010248C402343436004E0436810248C4015
:10134000A343436010BD000070B5552450252146CD
:10135000A00700F021F8642000F09CF82946A007BF
:1013600000F01AF8642000F095F8084800780002B0
:1013700006494978401806490880044880782D3885
:101380000449087000F074F870BD000005000020EA
:101390000A0000200900002070B504460D462946C9
:1013A0002046FFF7BFFF00BF80212046FFF75CFF0C
:1013B0000028F9D070BD0000FFB58E00054620352D
:1013C0007419056D4F000126BE40B54305652268BE
:1013D000436D0C4D2A40099E039D35432A432260EC
:1013E0004E000125B5401E46AE4333464E00029DD9
:1013F000B5402B434365056D4F000126BE40354384
:101400000565FFBDF0FFFCFF2021020C01D010217B
:101410001046020A01D010460839020901D01046D0
:10142000091F820801D01046891E420801D0881E7B
:101430007047081A704730B47446641E2578641CDF
:10144000AB4204D3635D5B00E31830BC18471D4614
:10145000F8E702E008C8121F08C1002AFAD1704755
:101460007047002001E001C1121F002AFBD1704724
:10147000002000BF06E00021044A1154044A117004
:10148000411CC8B20328F6DB7047000005000020AD
:101490000800002010B5044603E07D20C00000F0E5
:1014A00007F82046611E8CB20028F6D110BD00005E
:1014B00070B504460420C043FFF7C6FB1349096812
:1014C000C8081349FEF758FE0646FFF7F9FB00204F
:1014D000FFF7E4FB0020FFF7C9FB0120FFF7C6FB85
:1014E000002508E000BF0B480069012109040840FD
:1014F0000028F8D06D1CA542F4D30120C043FFF7AB
:10150000B5FB0020FFF7B2FB70BD000060000020BB
:1015100040420F0000E000E0FFF706FBFFF71EFA75
:10152000FFF758FEFFF79CFC07E0FFF783F9FF2069
:10153000F530FFF7AFFFFFF707FFF6E75C15000098
:10154000000000206400000052140000C0150000DC
:10155000640000200402000062140000000000008B
:10156000000000000000000000000000000000007B
:10157000000000000000000000000000000000006B
:10158000000000000000000000000000000000005B
:101590000000000000000000000000006666663FDA
:1015A0000000000000000000000000006666663FCA
:1015B000000000000000000000000000006CDC02E1
:040000050000016591
:00000001FF
